{
  "contractName": "GeoDB",
  "abi": [
    {
      "constant": true,
      "inputs": [],
      "name": "name",
      "outputs": [
        {
          "name": "",
          "type": "string"
        }
      ],
      "payable": false,
      "stateMutability": "view",
      "type": "function"
    },
    {
      "constant": false,
      "inputs": [
        {
          "name": "spender",
          "type": "address"
        },
        {
          "name": "value",
          "type": "uint256"
        }
      ],
      "name": "approve",
      "outputs": [
        {
          "name": "",
          "type": "bool"
        }
      ],
      "payable": false,
      "stateMutability": "nonpayable",
      "type": "function"
    },
    {
      "constant": true,
      "inputs": [],
      "name": "totalSupply",
      "outputs": [
        {
          "name": "",
          "type": "uint256"
        }
      ],
      "payable": false,
      "stateMutability": "view",
      "type": "function"
    },
    {
      "constant": false,
      "inputs": [
        {
          "name": "from",
          "type": "address"
        },
        {
          "name": "to",
          "type": "address"
        },
        {
          "name": "value",
          "type": "uint256"
        }
      ],
      "name": "transferFrom",
      "outputs": [
        {
          "name": "",
          "type": "bool"
        }
      ],
      "payable": false,
      "stateMutability": "nonpayable",
      "type": "function"
    },
    {
      "constant": true,
      "inputs": [
        {
          "name": "",
          "type": "uint256"
        }
      ],
      "name": "federationStakeProposals",
      "outputs": [
        {
          "name": "",
          "type": "uint256"
        }
      ],
      "payable": false,
      "stateMutability": "view",
      "type": "function"
    },
    {
      "constant": true,
      "inputs": [],
      "name": "decimals",
      "outputs": [
        {
          "name": "",
          "type": "uint32"
        }
      ],
      "payable": false,
      "stateMutability": "view",
      "type": "function"
    },
    {
      "constant": true,
      "inputs": [],
      "name": "initialStakeRequirement",
      "outputs": [
        {
          "name": "",
          "type": "uint256"
        }
      ],
      "payable": false,
      "stateMutability": "view",
      "type": "function"
    },
    {
      "constant": false,
      "inputs": [
        {
          "name": "spender",
          "type": "address"
        },
        {
          "name": "addedValue",
          "type": "uint256"
        }
      ],
      "name": "increaseAllowance",
      "outputs": [
        {
          "name": "",
          "type": "bool"
        }
      ],
      "payable": false,
      "stateMutability": "nonpayable",
      "type": "function"
    },
    {
      "constant": true,
      "inputs": [
        {
          "name": "owner",
          "type": "address"
        }
      ],
      "name": "balanceOf",
      "outputs": [
        {
          "name": "",
          "type": "uint256"
        }
      ],
      "payable": false,
      "stateMutability": "view",
      "type": "function"
    },
    {
      "constant": false,
      "inputs": [],
      "name": "renounceOwnership",
      "outputs": [],
      "payable": false,
      "stateMutability": "nonpayable",
      "type": "function"
    },
    {
      "constant": true,
      "inputs": [
        {
          "name": "",
          "type": "address"
        }
      ],
      "name": "federationStakes",
      "outputs": [
        {
          "name": "stake",
          "type": "uint256"
        },
        {
          "name": "releaseRequestIndex",
          "type": "uint16"
        }
      ],
      "payable": false,
      "stateMutability": "view",
      "type": "function"
    },
    {
      "constant": true,
      "inputs": [],
      "name": "owner",
      "outputs": [
        {
          "name": "",
          "type": "address"
        }
      ],
      "payable": false,
      "stateMutability": "view",
      "type": "function"
    },
    {
      "constant": true,
      "inputs": [],
      "name": "isOwner",
      "outputs": [
        {
          "name": "",
          "type": "bool"
        }
      ],
      "payable": false,
      "stateMutability": "view",
      "type": "function"
    },
    {
      "constant": true,
      "inputs": [],
      "name": "symbol",
      "outputs": [
        {
          "name": "",
          "type": "string"
        }
      ],
      "payable": false,
      "stateMutability": "view",
      "type": "function"
    },
    {
      "constant": true,
      "inputs": [],
      "name": "currentFederationStakeProposal",
      "outputs": [
        {
          "name": "",
          "type": "uint256"
        }
      ],
      "payable": false,
      "stateMutability": "view",
      "type": "function"
    },
    {
      "constant": false,
      "inputs": [
        {
          "name": "spender",
          "type": "address"
        },
        {
          "name": "subtractedValue",
          "type": "uint256"
        }
      ],
      "name": "decreaseAllowance",
      "outputs": [
        {
          "name": "",
          "type": "bool"
        }
      ],
      "payable": false,
      "stateMutability": "nonpayable",
      "type": "function"
    },
    {
      "constant": false,
      "inputs": [
        {
          "name": "to",
          "type": "address"
        },
        {
          "name": "value",
          "type": "uint256"
        }
      ],
      "name": "transfer",
      "outputs": [
        {
          "name": "",
          "type": "bool"
        }
      ],
      "payable": false,
      "stateMutability": "nonpayable",
      "type": "function"
    },
    {
      "constant": true,
      "inputs": [],
      "name": "maxSupply",
      "outputs": [
        {
          "name": "",
          "type": "uint256"
        }
      ],
      "payable": false,
      "stateMutability": "view",
      "type": "function"
    },
    {
      "constant": true,
      "inputs": [
        {
          "name": "owner",
          "type": "address"
        },
        {
          "name": "spender",
          "type": "address"
        }
      ],
      "name": "allowance",
      "outputs": [
        {
          "name": "",
          "type": "uint256"
        }
      ],
      "payable": false,
      "stateMutability": "view",
      "type": "function"
    },
    {
      "constant": false,
      "inputs": [
        {
          "name": "newOwner",
          "type": "address"
        }
      ],
      "name": "transferOwnership",
      "outputs": [],
      "payable": false,
      "stateMutability": "nonpayable",
      "type": "function"
    },
    {
      "inputs": [],
      "payable": false,
      "stateMutability": "nonpayable",
      "type": "constructor"
    },
    {
      "anonymous": false,
      "inputs": [
        {
          "indexed": true,
          "name": "previousOwner",
          "type": "address"
        },
        {
          "indexed": true,
          "name": "newOwner",
          "type": "address"
        }
      ],
      "name": "OwnershipTransferred",
      "type": "event"
    },
    {
      "anonymous": false,
      "inputs": [
        {
          "indexed": true,
          "name": "from",
          "type": "address"
        },
        {
          "indexed": true,
          "name": "to",
          "type": "address"
        },
        {
          "indexed": false,
          "name": "value",
          "type": "uint256"
        }
      ],
      "name": "Transfer",
      "type": "event"
    },
    {
      "anonymous": false,
      "inputs": [
        {
          "indexed": true,
          "name": "owner",
          "type": "address"
        },
        {
          "indexed": true,
          "name": "spender",
          "type": "address"
        },
        {
          "indexed": false,
          "name": "value",
          "type": "uint256"
        }
      ],
      "name": "Approval",
      "type": "event"
    },
    {
      "constant": true,
      "inputs": [],
      "name": "getCurrentFederationStakeRequirement",
      "outputs": [
        {
          "name": "",
          "type": "uint256"
        }
      ],
      "payable": false,
      "stateMutability": "view",
      "type": "function"
    },
    {
      "constant": false,
      "inputs": [
        {
          "name": "amount",
          "type": "uint256"
        }
      ],
      "name": "federationStakeLock",
      "outputs": [
        {
          "name": "",
          "type": "uint256"
        }
      ],
      "payable": false,
      "stateMutability": "nonpayable",
      "type": "function"
    },
    {
      "constant": false,
      "inputs": [],
      "name": "federationStakeWithdraw",
      "outputs": [],
      "payable": false,
      "stateMutability": "nonpayable",
      "type": "function"
    },
    {
      "constant": true,
      "inputs": [],
      "name": "getStake",
      "outputs": [
        {
          "name": "",
          "type": "uint256"
        }
      ],
      "payable": false,
      "stateMutability": "view",
      "type": "function"
    },
    {
      "constant": false,
      "inputs": [],
      "name": "requestStakeWithdrawal",
      "outputs": [],
      "payable": false,
      "stateMutability": "nonpayable",
      "type": "function"
    },
    {
      "constant": false,
      "inputs": [
        {
          "name": "addr",
          "type": "address"
        },
        {
          "name": "index",
          "type": "uint16"
        }
      ],
      "name": "voteStakeWithdrawalRequest",
      "outputs": [],
      "payable": false,
      "stateMutability": "nonpayable",
      "type": "function"
    },
    {
      "constant": false,
      "inputs": [
        {
          "name": "userAddress",
          "type": "address"
        },
        {
          "name": "reward",
          "type": "uint256"
        }
      ],
      "name": "releaseRewards",
      "outputs": [],
      "payable": false,
      "stateMutability": "nonpayable",
      "type": "function"
    }
  ],
  "bytecode": "0x60806040526040805190810160405280600381526020017f47454f0000000000000000000000000000000000000000000000000000000000815250600490805190602001906200005192919062000313565b503480156200005f57600080fd5b5033600360006101000a81548173ffffffffffffffffffffffffffffffffffffffff021916908373ffffffffffffffffffffffffffffffffffffffff160217905550600360009054906101000a900473ffffffffffffffffffffffffffffffffffffffff1673ffffffffffffffffffffffffffffffffffffffff16600073ffffffffffffffffffffffffffffffffffffffff167f8be0079c531659141344cd1fd0a4f28419497f9722a3daafe3b4186f6b6457e060405160405180910390a36200013f336509184e72a0006200017c640100000000026401000000009004565b60006006819055506005620186a09080600181540180825580915050906001820390600052602060002001600090919290919091505550620003c2565b600073ffffffffffffffffffffffffffffffffffffffff168273ffffffffffffffffffffffffffffffffffffffff1614151515620001b957600080fd5b620001de81600254620002f16401000000000262002075179091906401000000009004565b60028190555062000245816000808573ffffffffffffffffffffffffffffffffffffffff1673ffffffffffffffffffffffffffffffffffffffff16815260200190815260200160002054620002f16401000000000262002075179091906401000000009004565b6000808473ffffffffffffffffffffffffffffffffffffffff1673ffffffffffffffffffffffffffffffffffffffff168152602001908152602001600020819055508173ffffffffffffffffffffffffffffffffffffffff16600073ffffffffffffffffffffffffffffffffffffffff167fddf252ad1be2c89b69c2b068fc378daa952ba7f163c4a11628f55a4df523b3ef836040518082815260200191505060405180910390a35050565b60008082840190508381101515156200030957600080fd5b8091505092915050565b828054600181600116156101000203166002900490600052602060002090601f016020900481019282601f106200035657805160ff191683800117855562000387565b8280016001018555821562000387579182015b828111156200038657825182559160200191906001019062000369565b5b5090506200039691906200039a565b5090565b620003bf91905b80821115620003bb576000816000905550600101620003a1565b5090565b90565b6123f780620003d26000396000f3fe608060405234801561001057600080fd5b50600436106101c6576000357c01000000000000000000000000000000000000000000000000000000009004806389f6360011610116578063a9059cbb116100b4578063dd62ed3e1161008e578063dd62ed3e146107ce578063ddbf885514610846578063f2fde38b14610894578063fc0e3d90146108d8576101c6565b8063a9059cbb146106f8578063c0de2fb31461075e578063d5abeb01146107b0576101c6565b806395d89b41116100f057806395d89b41146105d357806396cf6d10146106565780639caedcbd14610674578063a457c2d714610692576101c6565b806389f63600146105005780638da5cb5b146105675780638f32d59b146105b1576101c6565b806338a58d4d116101835780635eaab7b51161015d5780635eaab7b51461048a5780636de6e5981461049457806370a082311461049e578063715018a6146104f6576101c6565b806338a58d4d146103c457806339509351146103e25780633d8f2eb414610448576101c6565b806306fdde03146101cb578063095ea7b31461024e57806318160ddd146102b457806323b872dd146102d257806326568ae714610358578063313ce5671461039a575b600080fd5b6101d36108f6565b6040518080602001828103825283818151815260200191508051906020019080838360005b838110156102135780820151818401526020810190506101f8565b50505050905090810190601f1680156102405780820380516001836020036101000a031916815260200191505b509250505060405180910390f35b61029a6004803603604081101561026457600080fd5b81019080803573ffffffffffffffffffffffffffffffffffffffff1690602001909291908035906020019092919050505061092f565b604051808215151515815260200191505060405180910390f35b6102bc610946565b6040518082815260200191505060405180910390f35b61033e600480360360608110156102e857600080fd5b81019080803573ffffffffffffffffffffffffffffffffffffffff169060200190929190803573ffffffffffffffffffffffffffffffffffffffff16906020019092919080359060200190929190505050610950565b604051808215151515815260200191505060405180910390f35b6103846004803603602081101561036e57600080fd5b8101908080359060200190929190505050610a01565b6040518082815260200191505060405180910390f35b6103a2610a24565b604051808263ffffffff1663ffffffff16815260200191505060405180910390f35b6103cc610a29565b6040518082815260200191505060405180910390f35b61042e600480360360408110156103f857600080fd5b81019080803573ffffffffffffffffffffffffffffffffffffffff16906020019092919080359060200190929190505050610a30565b604051808215151515815260200191505060405180910390f35b6104746004803603602081101561045e57600080fd5b8101908080359060200190929190505050610ad5565b6040518082815260200191505060405180910390f35b610492610c1a565b005b61049c61107c565b005b6104e0600480360360208110156104b457600080fd5b81019080803573ffffffffffffffffffffffffffffffffffffffff169060200190929190505050611299565b6040518082815260200191505060405180910390f35b6104fe6112e1565b005b6105426004803603602081101561051657600080fd5b81019080803573ffffffffffffffffffffffffffffffffffffffff1690602001909291905050506113b5565b604051808381526020018261ffff1661ffff1681526020019250505060405180910390f35b61056f6113e7565b604051808273ffffffffffffffffffffffffffffffffffffffff1673ffffffffffffffffffffffffffffffffffffffff16815260200191505060405180910390f35b6105b9611411565b604051808215151515815260200191505060405180910390f35b6105db611469565b6040518080602001828103825283818151815260200191508051906020019080838360005b8381101561061b578082015181840152602081019050610600565b50505050905090810190601f1680156106485780820380516001836020036101000a031916815260200191505b509250505060405180910390f35b61065e611507565b6040518082815260200191505060405180910390f35b61067c61152a565b6040518082815260200191505060405180910390f35b6106de600480360360408110156106a857600080fd5b81019080803573ffffffffffffffffffffffffffffffffffffffff16906020019092919080359060200190929190505050611530565b604051808215151515815260200191505060405180910390f35b6107446004803603604081101561070e57600080fd5b81019080803573ffffffffffffffffffffffffffffffffffffffff169060200190929190803590602001909291905050506115d5565b604051808215151515815260200191505060405180910390f35b6107ae6004803603604081101561077457600080fd5b81019080803573ffffffffffffffffffffffffffffffffffffffff169060200190929190803561ffff1690602001909291905050506115ec565b005b6107b8611b1c565b6040518082815260200191505060405180910390f35b610830600480360360408110156107e457600080fd5b81019080803573ffffffffffffffffffffffffffffffffffffffff169060200190929190803573ffffffffffffffffffffffffffffffffffffffff169060200190929190505050611b26565b6040518082815260200191505060405180910390f35b6108926004803603604081101561085c57600080fd5b81019080803573ffffffffffffffffffffffffffffffffffffffff16906020019092919080359060200190929190505050611bad565b005b6108d6600480360360208110156108aa57600080fd5b81019080803573ffffffffffffffffffffffffffffffffffffffff169060200190929190505050611cbb565b005b6108e0611cda565b6040518082815260200191505060405180910390f35b6040805190810160405280600b81526020017f47656f444220546f6b656e00000000000000000000000000000000000000000081525081565b600061093c338484611d24565b6001905092915050565b6000600254905090565b600061095d848484611e87565b6109f684336109f185600160008a73ffffffffffffffffffffffffffffffffffffffff1673ffffffffffffffffffffffffffffffffffffffff16815260200190815260200160002060003373ffffffffffffffffffffffffffffffffffffffff1673ffffffffffffffffffffffffffffffffffffffff1681526020019081526020016000205461205390919063ffffffff16565b611d24565b600190509392505050565b600581815481101515610a1057fe5b906000526020600020016000915090505481565b600581565b620186a081565b6000610acb3384610ac685600160003373ffffffffffffffffffffffffffffffffffffffff1673ffffffffffffffffffffffffffffffffffffffff16815260200190815260200160002060008973ffffffffffffffffffffffffffffffffffffffff1673ffffffffffffffffffffffffffffffffffffffff1681526020019081526020016000205461207590919063ffffffff16565b611d24565b6001905092915050565b600080610b2d83600760003373ffffffffffffffffffffffffffffffffffffffff1673ffffffffffffffffffffffffffffffffffffffff1681526020019081526020016000206000015461207590919063ffffffff16565b90506005600654815481101515610b4057fe5b90600052602060002001548110151515610bc2576040517f08c379a000000000000000000000000000000000000000000000000000000000815260040180806020018281038252601b8152602001807f5374616b656420616d6f756e74206973206e6f7420656e6f756768000000000081525060200191505060405180910390fd5b610bcc30846115d5565b5080600760003373ffffffffffffffffffffffffffffffffffffffff1673ffffffffffffffffffffffffffffffffffffffff1681526020019081526020016000206000018190555050919050565b6000600760003373ffffffffffffffffffffffffffffffffffffffff1673ffffffffffffffffffffffffffffffffffffffff16815260200190815260200160002060000154111515610cb7576040517f08c379a000000000000000000000000000000000000000000000000000000000815260040180806020018281038252602281526020018061235c6022913960400191505060405180910390fd5b6000600760003373ffffffffffffffffffffffffffffffffffffffff1673ffffffffffffffffffffffffffffffffffffffff16815260200190815260200160002060030160009054906101000a900461ffff1661ffff16111515610d83576040517f08c379a000000000000000000000000000000000000000000000000000000000815260040180806020018281038252601e8152602001807f52657175657374207374616b65207769746864726177616c206669727374000081525060200191505060405180910390fd5b610d9f6002610d9130611299565b61209690919063ffffffff16565b600760003373ffffffffffffffffffffffffffffffffffffffff1673ffffffffffffffffffffffffffffffffffffffff16815260200190815260200160002060000154600760003373ffffffffffffffffffffffffffffffffffffffff1673ffffffffffffffffffffffffffffffffffffffff1681526020019081526020016000206001016000600760003373ffffffffffffffffffffffffffffffffffffffff1673ffffffffffffffffffffffffffffffffffffffff16815260200190815260200160002060030160009054906101000a900461ffff1661ffff1661ffff168152602001908152602001600020540110151515610f05576040517f08c379a000000000000000000000000000000000000000000000000000000000815260040180806020018281038252601a8152602001807f566f74696e67207374616b65206973206e6f7420656e6f75676800000000000081525060200191505060405180910390fd5b6000600760003373ffffffffffffffffffffffffffffffffffffffff1673ffffffffffffffffffffffffffffffffffffffff1681526020019081526020016000206000015490506000600760003373ffffffffffffffffffffffffffffffffffffffff1673ffffffffffffffffffffffffffffffffffffffff1681526020019081526020016000206000018190555060003090508073ffffffffffffffffffffffffffffffffffffffff1663a9059cbb33846040518363ffffffff167c0100000000000000000000000000000000000000000000000000000000028152600401808373ffffffffffffffffffffffffffffffffffffffff1673ffffffffffffffffffffffffffffffffffffffff16815260200182815260200192505050602060405180830381600087803b15801561103c57600080fd5b505af1158015611050573d6000803e3d6000fd5b505050506040513d602081101561106657600080fd5b8101908080519060200190929190505050505050565b6000600760003373ffffffffffffffffffffffffffffffffffffffff1673ffffffffffffffffffffffffffffffffffffffff16815260200190815260200160002060000154111515611119576040517f08c379a000000000000000000000000000000000000000000000000000000000815260040180806020018281038252602281526020018061235c6022913960400191505060405180910390fd5b61ffff600760003373ffffffffffffffffffffffffffffffffffffffff1673ffffffffffffffffffffffffffffffffffffffff16815260200190815260200160002060030160009054906101000a900461ffff1661ffff16141515156111e7576040517f08c379a000000000000000000000000000000000000000000000000000000000815260040180806020018281038252601b8152602001807f5769746864726177616c2072657175657374206465706c65746564000000000081525060200191505060405180910390fd5b6001600760003373ffffffffffffffffffffffffffffffffffffffff1673ffffffffffffffffffffffffffffffffffffffff16815260200190815260200160002060030160009054906101000a900461ffff1601600760003373ffffffffffffffffffffffffffffffffffffffff1673ffffffffffffffffffffffffffffffffffffffff16815260200190815260200160002060030160006101000a81548161ffff021916908361ffff160217905550565b60008060008373ffffffffffffffffffffffffffffffffffffffff1673ffffffffffffffffffffffffffffffffffffffff168152602001908152602001600020549050919050565b6112e9611411565b15156112f457600080fd5b600073ffffffffffffffffffffffffffffffffffffffff16600360009054906101000a900473ffffffffffffffffffffffffffffffffffffffff1673ffffffffffffffffffffffffffffffffffffffff167f8be0079c531659141344cd1fd0a4f28419497f9722a3daafe3b4186f6b6457e060405160405180910390a36000600360006101000a81548173ffffffffffffffffffffffffffffffffffffffff021916908373ffffffffffffffffffffffffffffffffffffffff160217905550565b60076020528060005260406000206000915090508060000154908060030160009054906101000a900461ffff16905082565b6000600360009054906101000a900473ffffffffffffffffffffffffffffffffffffffff16905090565b6000600360009054906101000a900473ffffffffffffffffffffffffffffffffffffffff1673ffffffffffffffffffffffffffffffffffffffff163373ffffffffffffffffffffffffffffffffffffffff1614905090565b60048054600181600116156101000203166002900480601f0160208091040260200160405190810160405280929190818152602001828054600181600116156101000203166002900480156114ff5780601f106114d4576101008083540402835291602001916114ff565b820191906000526020600020905b8154815290600101906020018083116114e257829003601f168201915b505050505081565b6000600560065481548110151561151a57fe5b9060005260206000200154905090565b60065481565b60006115cb33846115c685600160003373ffffffffffffffffffffffffffffffffffffffff1673ffffffffffffffffffffffffffffffffffffffff16815260200190815260200160002060008973ffffffffffffffffffffffffffffffffffffffff1673ffffffffffffffffffffffffffffffffffffffff1681526020019081526020016000205461205390919063ffffffff16565b611d24565b6001905092915050565b60006115e2338484611e87565b6001905092915050565b60056006548154811015156115fd57fe5b9060005260206000200154600760003373ffffffffffffffffffffffffffffffffffffffff1673ffffffffffffffffffffffffffffffffffffffff16815260200190815260200160002060000154101515156116a4576040517f08c379a00000000000000000000000000000000000000000000000000000000081526004018080602001828103825260258152602001806123376025913960400191505060405180910390fd5b3373ffffffffffffffffffffffffffffffffffffffff168273ffffffffffffffffffffffffffffffffffffffff161415151561172b576040517f08c379a000000000000000000000000000000000000000000000000000000000815260040180806020018281038252604e81526020018061237e604e913960600191505060405180910390fd5b60008161ffff161115156117a7576040517f08c379a000000000000000000000000000000000000000000000000000000000815260040180806020018281038252601c8152602001807f496e646578206d7573742062652067726561746572207468616e20300000000081525060200191505060405180910390fd5b8061ffff16600760008473ffffffffffffffffffffffffffffffffffffffff1673ffffffffffffffffffffffffffffffffffffffff16815260200190815260200160002060030160009054906101000a900461ffff1661ffff16141515611859576040517f08c379a00000000000000000000000000000000000000000000000000000000081526004018080602001828103825260268152602001806123116026913960400191505060405180910390fd5b60008133604051602001808361ffff1661ffff1681526020018273ffffffffffffffffffffffffffffffffffffffff1673ffffffffffffffffffffffffffffffffffffffff1681526020019250505060405160208183030381529060405280519060200120905060001515600760008573ffffffffffffffffffffffffffffffffffffffff1673ffffffffffffffffffffffffffffffffffffffff168152602001908152602001600020600201600083815260200190815260200160002060009054906101000a900460ff16151514151561199c576040517f08c379a00000000000000000000000000000000000000000000000000000000081526004018080602001828103825260158152602001807f596f752063616e6e6f7420766f7465207477696365000000000000000000000081525060200191505060405180910390fd5b611a4c600760003373ffffffffffffffffffffffffffffffffffffffff1673ffffffffffffffffffffffffffffffffffffffff16815260200190815260200160002060000154600760008673ffffffffffffffffffffffffffffffffffffffff1673ffffffffffffffffffffffffffffffffffffffff16815260200190815260200160002060010160008561ffff1661ffff1681526020019081526020016000205461207590919063ffffffff16565b600760008573ffffffffffffffffffffffffffffffffffffffff1673ffffffffffffffffffffffffffffffffffffffff16815260200190815260200160002060010160008461ffff1661ffff168152602001908152602001600020819055506001600760008573ffffffffffffffffffffffffffffffffffffffff1673ffffffffffffffffffffffffffffffffffffffff168152602001908152602001600020600201600083815260200190815260200160002060006101000a81548160ff021916908315150217905550505050565b655af3107a400081565b6000600160008473ffffffffffffffffffffffffffffffffffffffff1673ffffffffffffffffffffffffffffffffffffffff16815260200190815260200160002060008373ffffffffffffffffffffffffffffffffffffffff1673ffffffffffffffffffffffffffffffffffffffff16815260200190815260200160002054905092915050565b611bb5611411565b1515611bc057600080fd5b6005600654815481101515611bd157fe5b9060005260206000200154600760003373ffffffffffffffffffffffffffffffffffffffff1673ffffffffffffffffffffffffffffffffffffffff1681526020019081526020016000206000015410151515611c95576040517f08c379a000000000000000000000000000000000000000000000000000000000815260040180806020018281038252601b8152602001807f5374616b656420616d6f756e74206973206e6f7420656e6f756768000000000081525060200191505060405180910390fd5b655af3107a400081611ca5610946565b011015611cb757611cb682826120c0565b5b5050565b611cc3611411565b1515611cce57600080fd5b611cd781612214565b50565b6000600760003373ffffffffffffffffffffffffffffffffffffffff1673ffffffffffffffffffffffffffffffffffffffff16815260200190815260200160002060000154905090565b600073ffffffffffffffffffffffffffffffffffffffff168273ffffffffffffffffffffffffffffffffffffffff1614151515611d6057600080fd5b600073ffffffffffffffffffffffffffffffffffffffff168373ffffffffffffffffffffffffffffffffffffffff1614151515611d9c57600080fd5b80600160008573ffffffffffffffffffffffffffffffffffffffff1673ffffffffffffffffffffffffffffffffffffffff16815260200190815260200160002060008473ffffffffffffffffffffffffffffffffffffffff1673ffffffffffffffffffffffffffffffffffffffff168152602001908152602001600020819055508173ffffffffffffffffffffffffffffffffffffffff168373ffffffffffffffffffffffffffffffffffffffff167f8c5be1e5ebec7d5bd14f71427d1e84f3dd0314c0f7b2291e5b200ac8c7c3b925836040518082815260200191505060405180910390a3505050565b600073ffffffffffffffffffffffffffffffffffffffff168273ffffffffffffffffffffffffffffffffffffffff1614151515611ec357600080fd5b611f14816000808673ffffffffffffffffffffffffffffffffffffffff1673ffffffffffffffffffffffffffffffffffffffff1681526020019081526020016000205461205390919063ffffffff16565b6000808573ffffffffffffffffffffffffffffffffffffffff1673ffffffffffffffffffffffffffffffffffffffff16815260200190815260200160002081905550611fa7816000808573ffffffffffffffffffffffffffffffffffffffff1673ffffffffffffffffffffffffffffffffffffffff1681526020019081526020016000205461207590919063ffffffff16565b6000808473ffffffffffffffffffffffffffffffffffffffff1673ffffffffffffffffffffffffffffffffffffffff168152602001908152602001600020819055508173ffffffffffffffffffffffffffffffffffffffff168373ffffffffffffffffffffffffffffffffffffffff167fddf252ad1be2c89b69c2b068fc378daa952ba7f163c4a11628f55a4df523b3ef836040518082815260200191505060405180910390a3505050565b600082821115151561206457600080fd5b600082840390508091505092915050565b600080828401905083811015151561208c57600080fd5b8091505092915050565b600080821115156120a657600080fd5b600082848115156120b357fe5b0490508091505092915050565b600073ffffffffffffffffffffffffffffffffffffffff168273ffffffffffffffffffffffffffffffffffffffff16141515156120fc57600080fd5b6121118160025461207590919063ffffffff16565b600281905550612168816000808573ffffffffffffffffffffffffffffffffffffffff1673ffffffffffffffffffffffffffffffffffffffff1681526020019081526020016000205461207590919063ffffffff16565b6000808473ffffffffffffffffffffffffffffffffffffffff1673ffffffffffffffffffffffffffffffffffffffff168152602001908152602001600020819055508173ffffffffffffffffffffffffffffffffffffffff16600073ffffffffffffffffffffffffffffffffffffffff167fddf252ad1be2c89b69c2b068fc378daa952ba7f163c4a11628f55a4df523b3ef836040518082815260200191505060405180910390a35050565b600073ffffffffffffffffffffffffffffffffffffffff168173ffffffffffffffffffffffffffffffffffffffff161415151561225057600080fd5b8073ffffffffffffffffffffffffffffffffffffffff16600360009054906101000a900473ffffffffffffffffffffffffffffffffffffffff1673ffffffffffffffffffffffffffffffffffffffff167f8be0079c531659141344cd1fd0a4f28419497f9722a3daafe3b4186f6b6457e060405160405180910390a380600360006101000a81548173ffffffffffffffffffffffffffffffffffffffff021916908373ffffffffffffffffffffffffffffffffffffffff1602179055505056fe496e646578206d75737420626520657175616c20746f2063757272656e74207265717565737443616c6c6572206d7573742062652070617274206f66207468652066656465726174696f6e5468657265206973206e6f207374616b6520666f7220746869732061646472657373596f757220766f7465732077696c6c206265206175746f6d61746963616c6c79206164646564207768656e20796f752063616c6c2066656465726174696f6e5374616b6557697468647261772829a165627a7a723058208402d4c0adf0a1da8db0ba1c4312d9d173a680aaad873b3d1402933dd489b34d0029",
  "source": "pragma solidity ^0.5.2;\n\nimport \"openzeppelin-solidity/contracts/token/ERC20/ERC20.sol\";\nimport \"openzeppelin-solidity/contracts/token/ERC20/ERC20.sol\";\nimport \"openzeppelin-solidity/contracts/ownership/Ownable.sol\";\n\n/**\n* @title GeoDB ERC20 Token\n*/\ncontract GeoDB is ERC20, Ownable{\n\n  // Contract constants\n\n  uint256 constant public maxSupply = 100000000000000;\n  uint32 constant public decimals = 5;\n  uint256 constant public initialStakeRequirement = 100000; // 1 GEO\n  string constant public name = \"GeoDB Token\";\n  string public symbol = \"GEO\";\n\n\n  // Federation\n\n  struct FederationStake {\n    uint256 stake;\n    mapping(uint16 => uint256) withdrawApprovals;\n    mapping(bytes32 => bool) withdrawApprovers;\n    uint16 releaseRequestIndex;\n  }\n\n  uint256[] public federationStakeProposals;\n  uint256 public currentFederationStakeProposal;\n\n  mapping(address => FederationStake) public federationStakes;\n\n  constructor() public {\n    _mint(msg.sender, 10000000000000); // Team allocation\n    currentFederationStakeProposal = 0;\n    federationStakeProposals.push(initialStakeRequirement);\n  }\n\n  function getCurrentFederationStakeRequirement() public view returns (uint256){\n    return federationStakeProposals[currentFederationStakeProposal];\n  }\n\n  function federationStakeLock(uint256 amount) public returns (uint256){\n    uint256 summedStakes = federationStakes[msg.sender].stake.add(amount);\n    require(summedStakes >= federationStakeProposals[currentFederationStakeProposal], \"Staked amount is not enough\");\n    transfer(address(this), amount);\n    federationStakes[msg.sender].stake = summedStakes;\n  }\n\n  function federationStakeWithdraw() public callerMustHaveStake {\n\n    require(federationStakes[msg.sender].releaseRequestIndex > 0, \"Request stake withdrawal first\");\n\n    require(\n       federationStakes[msg.sender].withdrawApprovals[federationStakes[msg.sender].releaseRequestIndex]\n       + federationStakes[msg.sender].stake\n       >= balanceOf(address(this)).div(2), \"Voting stake is not enough\"\n     );\n\n    uint256 stake = federationStakes[msg.sender].stake;\n    federationStakes[msg.sender].stake = 0;\n    GeoDB selfReference = GeoDB(address(this));\n    selfReference.transfer(msg.sender, stake);\n  }\n\n  function getStake() public view returns(uint256){\n    return federationStakes[msg.sender].stake;\n  }\n\n  function requestStakeWithdrawal() public callerMustHaveStake {\n    require(federationStakes[msg.sender].releaseRequestIndex != 65535, \"Withdrawal request depleted\");\n    federationStakes[msg.sender].releaseRequestIndex = federationStakes[msg.sender].releaseRequestIndex + 1;\n  }\n\n  function voteStakeWithdrawalRequest(address addr, uint16 index) public callerMustBeFederated {\n    require(addr != msg.sender, \"Your votes will be automatically added when you call federationStakeWithdraw()\");\n    require(index > 0, \"Index must be greater than 0\");\n    require(federationStakes[addr].releaseRequestIndex == index, \"Index must be equal to current request\");\n    bytes32 withdrawApprover = keccak256(abi.encode(index, msg.sender));\n    require(federationStakes[addr].withdrawApprovers[withdrawApprover] == false, \"You cannot vote twice\");\n\n    federationStakes[addr].withdrawApprovals[index] = federationStakes[addr].withdrawApprovals[index].add(federationStakes[msg.sender].stake);\n    federationStakes[addr].withdrawApprovers[withdrawApprover] = true;\n\n\n  }\n\n  function releaseRewards(address userAddress, uint256 reward) public onlyOwner {\n    require(federationStakes[msg.sender].stake >= federationStakeProposals[currentFederationStakeProposal], \"Staked amount is not enough\");\n\n    if(totalSupply() + reward < maxSupply){\n      _mint(userAddress, reward);\n    }\n  }\n\n  modifier callerMustHaveStake() {\n    require(federationStakes[msg.sender].stake > 0, \"There is no stake for this address\");\n    _;\n  }\n\n  modifier callerMustBeFederated() {\n      require(federationStakes[msg.sender].stake >= federationStakeProposals[currentFederationStakeProposal], \"Caller must be part of the federation\");\n      _;\n  }\n\n}\n",
  "sourcePath": "/home/mad/geodb/fabric/ethereum/contracts/GeoDB.sol",
  "compiler": {
    "name": "solc",
    "version": "0.5.2+commit.1df8f40c.Emscripten.clang"
  },
  "schemaVersion": "3.0.9",
  "updatedAt": "2019-05-08T10:05:43.994Z",
  "devdoc": {
    "methods": {
      "allowance(address,address)": {
        "details": "Function to check the amount of tokens that an owner allowed to a spender.",
        "params": {
          "owner": "address The address which owns the funds.",
          "spender": "address The address which will spend the funds."
        },
        "return": "A uint256 specifying the amount of tokens still available for the spender."
      },
      "approve(address,uint256)": {
        "details": "Approve the passed address to spend the specified amount of tokens on behalf of msg.sender. Beware that changing an allowance with this method brings the risk that someone may use both the old and the new allowance by unfortunate transaction ordering. One possible solution to mitigate this race condition is to first reduce the spender's allowance to 0 and set the desired value afterwards: https://github.com/ethereum/EIPs/issues/20#issuecomment-263524729",
        "params": {
          "spender": "The address which will spend the funds.",
          "value": "The amount of tokens to be spent."
        }
      },
      "balanceOf(address)": {
        "details": "Gets the balance of the specified address.",
        "params": {
          "owner": "The address to query the balance of."
        },
        "return": "A uint256 representing the amount owned by the passed address."
      },
      "decreaseAllowance(address,uint256)": {
        "details": "Decrease the amount of tokens that an owner allowed to a spender. approve should be called when _allowed[msg.sender][spender] == 0. To decrement allowed value is better to use this function to avoid 2 calls (and wait until the first transaction is mined) From MonolithDAO Token.sol Emits an Approval event.",
        "params": {
          "spender": "The address which will spend the funds.",
          "subtractedValue": "The amount of tokens to decrease the allowance by."
        }
      },
      "increaseAllowance(address,uint256)": {
        "details": "Increase the amount of tokens that an owner allowed to a spender. approve should be called when _allowed[msg.sender][spender] == 0. To increment allowed value is better to use this function to avoid 2 calls (and wait until the first transaction is mined) From MonolithDAO Token.sol Emits an Approval event.",
        "params": {
          "addedValue": "The amount of tokens to increase the allowance by.",
          "spender": "The address which will spend the funds."
        }
      },
      "isOwner()": {
        "return": "true if `msg.sender` is the owner of the contract."
      },
      "owner()": {
        "return": "the address of the owner."
      },
      "renounceOwnership()": {
        "details": "Allows the current owner to relinquish control of the contract. It will not be possible to call the functions with the `onlyOwner` modifier anymore."
      },
      "totalSupply()": {
        "details": "Total number of tokens in existence"
      },
      "transfer(address,uint256)": {
        "details": "Transfer token to a specified address",
        "params": {
          "to": "The address to transfer to.",
          "value": "The amount to be transferred."
        }
      },
      "transferFrom(address,address,uint256)": {
        "details": "Transfer tokens from one address to another. Note that while this function emits an Approval event, this is not required as per the specification, and other compliant implementations may not emit the event.",
        "params": {
          "from": "address The address which you want to send tokens from",
          "to": "address The address which you want to transfer to",
          "value": "uint256 the amount of tokens to be transferred"
        }
      },
      "transferOwnership(address)": {
        "details": "Allows the current owner to transfer control of the contract to a newOwner.",
        "params": {
          "newOwner": "The address to transfer ownership to."
        }
      }
    },
    "title": "GeoDB ERC20 Token"
  },
  "userdoc": {
    "methods": {
      "renounceOwnership()": {
        "notice": "Renouncing ownership will leave the contract without an owner, thereby removing any functionality that is only available to the owner."
      }
    }
  }
}