{
  "contractName": "GeoDB",
  "abi": [
    {
      "constant": true,
      "inputs": [],
      "name": "name",
      "outputs": [
        {
          "name": "",
          "type": "string"
        }
      ],
      "payable": false,
      "stateMutability": "view",
      "type": "function"
    },
    {
      "constant": false,
      "inputs": [
        {
          "name": "spender",
          "type": "address"
        },
        {
          "name": "value",
          "type": "uint256"
        }
      ],
      "name": "approve",
      "outputs": [
        {
          "name": "",
          "type": "bool"
        }
      ],
      "payable": false,
      "stateMutability": "nonpayable",
      "type": "function"
    },
    {
      "constant": true,
      "inputs": [],
      "name": "totalSupply",
      "outputs": [
        {
          "name": "",
          "type": "uint256"
        }
      ],
      "payable": false,
      "stateMutability": "view",
      "type": "function"
    },
    {
      "constant": false,
      "inputs": [
        {
          "name": "from",
          "type": "address"
        },
        {
          "name": "to",
          "type": "address"
        },
        {
          "name": "value",
          "type": "uint256"
        }
      ],
      "name": "transferFrom",
      "outputs": [
        {
          "name": "",
          "type": "bool"
        }
      ],
      "payable": false,
      "stateMutability": "nonpayable",
      "type": "function"
    },
    {
      "constant": true,
      "inputs": [],
      "name": "decimals",
      "outputs": [
        {
          "name": "",
          "type": "uint32"
        }
      ],
      "payable": false,
      "stateMutability": "view",
      "type": "function"
    },
    {
      "constant": false,
      "inputs": [
        {
          "name": "spender",
          "type": "address"
        },
        {
          "name": "addedValue",
          "type": "uint256"
        }
      ],
      "name": "increaseAllowance",
      "outputs": [
        {
          "name": "",
          "type": "bool"
        }
      ],
      "payable": false,
      "stateMutability": "nonpayable",
      "type": "function"
    },
    {
      "constant": true,
      "inputs": [
        {
          "name": "",
          "type": "uint256"
        }
      ],
      "name": "federationStakingBallots",
      "outputs": [
        {
          "name": "stake",
          "type": "uint256"
        },
        {
          "name": "approved",
          "type": "bool"
        },
        {
          "name": "proposer",
          "type": "address"
        },
        {
          "name": "approvals",
          "type": "uint256"
        },
        {
          "name": "deadline",
          "type": "uint256"
        }
      ],
      "payable": false,
      "stateMutability": "view",
      "type": "function"
    },
    {
      "constant": true,
      "inputs": [
        {
          "name": "owner",
          "type": "address"
        }
      ],
      "name": "balanceOf",
      "outputs": [
        {
          "name": "",
          "type": "uint256"
        }
      ],
      "payable": false,
      "stateMutability": "view",
      "type": "function"
    },
    {
      "constant": false,
      "inputs": [],
      "name": "renounceOwnership",
      "outputs": [],
      "payable": false,
      "stateMutability": "nonpayable",
      "type": "function"
    },
    {
      "constant": true,
      "inputs": [
        {
          "name": "",
          "type": "address"
        }
      ],
      "name": "federationStakes",
      "outputs": [
        {
          "name": "stake",
          "type": "uint256"
        },
        {
          "name": "approved",
          "type": "bool"
        },
        {
          "name": "releaseRequestIndex",
          "type": "uint16"
        }
      ],
      "payable": false,
      "stateMutability": "view",
      "type": "function"
    },
    {
      "constant": true,
      "inputs": [],
      "name": "totalStake",
      "outputs": [
        {
          "name": "",
          "type": "uint256"
        }
      ],
      "payable": false,
      "stateMutability": "view",
      "type": "function"
    },
    {
      "constant": true,
      "inputs": [],
      "name": "owner",
      "outputs": [
        {
          "name": "",
          "type": "address"
        }
      ],
      "payable": false,
      "stateMutability": "view",
      "type": "function"
    },
    {
      "constant": true,
      "inputs": [],
      "name": "isOwner",
      "outputs": [
        {
          "name": "",
          "type": "bool"
        }
      ],
      "payable": false,
      "stateMutability": "view",
      "type": "function"
    },
    {
      "constant": true,
      "inputs": [],
      "name": "symbol",
      "outputs": [
        {
          "name": "",
          "type": "string"
        }
      ],
      "payable": false,
      "stateMutability": "view",
      "type": "function"
    },
    {
      "constant": false,
      "inputs": [
        {
          "name": "spender",
          "type": "address"
        },
        {
          "name": "subtractedValue",
          "type": "uint256"
        }
      ],
      "name": "decreaseAllowance",
      "outputs": [
        {
          "name": "",
          "type": "bool"
        }
      ],
      "payable": false,
      "stateMutability": "nonpayable",
      "type": "function"
    },
    {
      "constant": false,
      "inputs": [
        {
          "name": "to",
          "type": "address"
        },
        {
          "name": "value",
          "type": "uint256"
        }
      ],
      "name": "transfer",
      "outputs": [
        {
          "name": "",
          "type": "bool"
        }
      ],
      "payable": false,
      "stateMutability": "nonpayable",
      "type": "function"
    },
    {
      "constant": true,
      "inputs": [
        {
          "name": "",
          "type": "address"
        }
      ],
      "name": "federationJoinBallots",
      "outputs": [
        {
          "name": "requestIndex",
          "type": "uint16"
        }
      ],
      "payable": false,
      "stateMutability": "view",
      "type": "function"
    },
    {
      "constant": true,
      "inputs": [],
      "name": "maxSupply",
      "outputs": [
        {
          "name": "",
          "type": "uint256"
        }
      ],
      "payable": false,
      "stateMutability": "view",
      "type": "function"
    },
    {
      "constant": true,
      "inputs": [],
      "name": "federationMinimumStake",
      "outputs": [
        {
          "name": "",
          "type": "uint256"
        }
      ],
      "payable": false,
      "stateMutability": "view",
      "type": "function"
    },
    {
      "constant": true,
      "inputs": [
        {
          "name": "owner",
          "type": "address"
        },
        {
          "name": "spender",
          "type": "address"
        }
      ],
      "name": "allowance",
      "outputs": [
        {
          "name": "",
          "type": "uint256"
        }
      ],
      "payable": false,
      "stateMutability": "view",
      "type": "function"
    },
    {
      "constant": false,
      "inputs": [
        {
          "name": "newOwner",
          "type": "address"
        }
      ],
      "name": "transferOwnership",
      "outputs": [],
      "payable": false,
      "stateMutability": "nonpayable",
      "type": "function"
    },
    {
      "inputs": [],
      "payable": false,
      "stateMutability": "nonpayable",
      "type": "constructor"
    },
    {
      "anonymous": false,
      "inputs": [
        {
          "indexed": true,
          "name": "previousOwner",
          "type": "address"
        },
        {
          "indexed": true,
          "name": "newOwner",
          "type": "address"
        }
      ],
      "name": "OwnershipTransferred",
      "type": "event"
    },
    {
      "anonymous": false,
      "inputs": [
        {
          "indexed": true,
          "name": "from",
          "type": "address"
        },
        {
          "indexed": true,
          "name": "to",
          "type": "address"
        },
        {
          "indexed": false,
          "name": "value",
          "type": "uint256"
        }
      ],
      "name": "Transfer",
      "type": "event"
    },
    {
      "anonymous": false,
      "inputs": [
        {
          "indexed": true,
          "name": "owner",
          "type": "address"
        },
        {
          "indexed": true,
          "name": "spender",
          "type": "address"
        },
        {
          "indexed": false,
          "name": "value",
          "type": "uint256"
        }
      ],
      "name": "Approval",
      "type": "event"
    },
    {
      "constant": true,
      "inputs": [],
      "name": "getCurrentFederationStakeRequirement",
      "outputs": [
        {
          "name": "",
          "type": "uint256"
        }
      ],
      "payable": false,
      "stateMutability": "view",
      "type": "function"
    },
    {
      "constant": false,
      "inputs": [
        {
          "name": "amount",
          "type": "uint256"
        }
      ],
      "name": "federationStakeLock",
      "outputs": [
        {
          "name": "",
          "type": "uint256"
        }
      ],
      "payable": false,
      "stateMutability": "nonpayable",
      "type": "function"
    },
    {
      "constant": false,
      "inputs": [],
      "name": "federationStakeWithdraw",
      "outputs": [],
      "payable": false,
      "stateMutability": "nonpayable",
      "type": "function"
    },
    {
      "constant": true,
      "inputs": [],
      "name": "getStake",
      "outputs": [
        {
          "name": "",
          "type": "uint256"
        }
      ],
      "payable": false,
      "stateMutability": "view",
      "type": "function"
    },
    {
      "constant": false,
      "inputs": [],
      "name": "requestStakeWithdrawal",
      "outputs": [],
      "payable": false,
      "stateMutability": "nonpayable",
      "type": "function"
    },
    {
      "constant": false,
      "inputs": [
        {
          "name": "addr",
          "type": "address"
        },
        {
          "name": "index",
          "type": "uint16"
        }
      ],
      "name": "voteStakeWithdrawalRequest",
      "outputs": [],
      "payable": false,
      "stateMutability": "nonpayable",
      "type": "function"
    },
    {
      "constant": false,
      "inputs": [
        {
          "name": "stake",
          "type": "uint256"
        }
      ],
      "name": "newStakingBallot",
      "outputs": [],
      "payable": false,
      "stateMutability": "nonpayable",
      "type": "function"
    },
    {
      "constant": false,
      "inputs": [
        {
          "name": "index",
          "type": "uint256"
        }
      ],
      "name": "voteStakingBallot",
      "outputs": [],
      "payable": false,
      "stateMutability": "nonpayable",
      "type": "function"
    },
    {
      "constant": false,
      "inputs": [
        {
          "name": "index",
          "type": "uint256"
        }
      ],
      "name": "resolveStakingBallot",
      "outputs": [],
      "payable": false,
      "stateMutability": "nonpayable",
      "type": "function"
    },
    {
      "constant": false,
      "inputs": [
        {
          "name": "userAddress",
          "type": "address"
        },
        {
          "name": "reward",
          "type": "uint256"
        }
      ],
      "name": "releaseRewards",
      "outputs": [],
      "payable": false,
      "stateMutability": "nonpayable",
      "type": "function"
    }
  ],
  "bytecode": "0x60806040526040805190810160405280600381526020017f47454f00000000000000000000000000000000000000000000000000000000008152506004908051906020019062000051929190620003d4565b503480156200005f57600080fd5b5033600360006101000a81548173ffffffffffffffffffffffffffffffffffffffff021916908373ffffffffffffffffffffffffffffffffffffffff160217905550600360009054906101000a900473ffffffffffffffffffffffffffffffffffffffff1673ffffffffffffffffffffffffffffffffffffffff16600073ffffffffffffffffffffffffffffffffffffffff167f8be0079c531659141344cd1fd0a4f28419497f9722a3daafe3b4186f6b6457e060405160405180910390a36200013f336509184e72a0006200023d640100000000026401000000009004565b620186a060058190555062000166306005546200023d640100000000026401000000009004565b6001600760003373ffffffffffffffffffffffffffffffffffffffff1673ffffffffffffffffffffffffffffffffffffffff16815260200190815260200160002060010160006101000a81548160ff021916908315150217905550620001e8600554600654620003b26401000000000262002dff179091906401000000009004565b600681905550600554600760003373ffffffffffffffffffffffffffffffffffffffff1673ffffffffffffffffffffffffffffffffffffffff1681526020019081526020016000206000018190555062000483565b600073ffffffffffffffffffffffffffffffffffffffff168273ffffffffffffffffffffffffffffffffffffffff16141515156200027a57600080fd5b6200029f81600254620003b26401000000000262002dff179091906401000000009004565b60028190555062000306816000808573ffffffffffffffffffffffffffffffffffffffff1673ffffffffffffffffffffffffffffffffffffffff16815260200190815260200160002054620003b26401000000000262002dff179091906401000000009004565b6000808473ffffffffffffffffffffffffffffffffffffffff1673ffffffffffffffffffffffffffffffffffffffff168152602001908152602001600020819055508173ffffffffffffffffffffffffffffffffffffffff16600073ffffffffffffffffffffffffffffffffffffffff167fddf252ad1be2c89b69c2b068fc378daa952ba7f163c4a11628f55a4df523b3ef836040518082815260200191505060405180910390a35050565b6000808284019050838110151515620003ca57600080fd5b8091505092915050565b828054600181600116156101000203166002900490600052602060002090601f016020900481019282601f106200041757805160ff191683800117855562000448565b8280016001018555821562000448579182015b82811115620004475782518255916020019190600101906200042a565b5b5090506200045791906200045b565b5090565b6200048091905b808211156200047c57600081600090555060010162000462565b5090565b90565b61336680620004936000396000f3fe608060405234801561001057600080fd5b5060043610610202576000357c0100000000000000000000000000000000000000000000000000000000900480638da5cb5b1161012c578063c5399cfb116100bf578063ddbf88551161008e578063ddbf885514610995578063e60eef0f146109e3578063f2fde38b14610a11578063fc0e3d9014610a5557610202565b8063c5399cfb146108b3578063d5abeb01146108e1578063d9d564d9146108ff578063dd62ed3e1461091d57610202565b8063a457c2d7116100fb578063a457c2d714610735578063a9059cbb1461079b578063bd7383aa14610801578063c0de2fb31461086157610202565b80638da5cb5b146106285780638f32d59b1461067257806395d89b411461069457806396cf6d101461071757610202565b80633d8f2eb4116101a457806370a082311161017357806370a0823114610536578063715018a61461058e57806389f63600146105985780638b0e9f3f1461060a57610202565b80633d8f2eb41461045257806354591867146104945780635eaab7b5146105225780636de6e5981461052c57610202565b806318a95059116101e057806318a950591461030e57806323b872dd1461033c578063313ce567146103c257806339509351146103ec57610202565b806306fdde0314610207578063095ea7b31461028a57806318160ddd146102f0575b600080fd5b61020f610a73565b6040518080602001828103825283818151815260200191508051906020019080838360005b8381101561024f578082015181840152602081019050610234565b50505050905090810190601f16801561027c5780820380516001836020036101000a031916815260200191505b509250505060405180910390f35b6102d6600480360360408110156102a057600080fd5b81019080803573ffffffffffffffffffffffffffffffffffffffff16906020019092919080359060200190929190505050610aac565b604051808215151515815260200191505060405180910390f35b6102f8610ac3565b6040518082815260200191505060405180910390f35b61033a6004803603602081101561032457600080fd5b8101908080359060200190929190505050610acd565b005b6103a86004803603606081101561035257600080fd5b81019080803573ffffffffffffffffffffffffffffffffffffffff169060200190929190803573ffffffffffffffffffffffffffffffffffffffff16906020019092919080359060200190929190505050610e62565b604051808215151515815260200191505060405180910390f35b6103ca610f13565b604051808263ffffffff1663ffffffff16815260200191505060405180910390f35b6104386004803603604081101561040257600080fd5b81019080803573ffffffffffffffffffffffffffffffffffffffff16906020019092919080359060200190929190505050610f18565b604051808215151515815260200191505060405180910390f35b61047e6004803603602081101561046857600080fd5b8101908080359060200190929190505050610fbd565b6040518082815260200191505060405180910390f35b6104c0600480360360208110156104aa57600080fd5b8101908080359060200190929190505050611160565b60405180868152602001851515151581526020018473ffffffffffffffffffffffffffffffffffffffff1673ffffffffffffffffffffffffffffffffffffffff1681526020018381526020018281526020019550505050505060405180910390f35b61052a6111d2565b005b61053461158a565b005b6105786004803603602081101561054c57600080fd5b81019080803573ffffffffffffffffffffffffffffffffffffffff1690602001909291905050506117a7565b6040518082815260200191505060405180910390f35b6105966117ef565b005b6105da600480360360208110156105ae57600080fd5b81019080803573ffffffffffffffffffffffffffffffffffffffff1690602001909291905050506118c3565b60405180848152602001831515151581526020018261ffff1661ffff168152602001935050505060405180910390f35b610612611908565b6040518082815260200191505060405180910390f35b61063061190e565b604051808273ffffffffffffffffffffffffffffffffffffffff1673ffffffffffffffffffffffffffffffffffffffff16815260200191505060405180910390f35b61067a611938565b604051808215151515815260200191505060405180910390f35b61069c611990565b6040518080602001828103825283818151815260200191508051906020019080838360005b838110156106dc5780820151818401526020810190506106c1565b50505050905090810190601f1680156107095780820380516001836020036101000a031916815260200191505b509250505060405180910390f35b61071f611a2e565b6040518082815260200191505060405180910390f35b6107816004803603604081101561074b57600080fd5b81019080803573ffffffffffffffffffffffffffffffffffffffff16906020019092919080359060200190929190505050611a38565b604051808215151515815260200191505060405180910390f35b6107e7600480360360408110156107b157600080fd5b81019080803573ffffffffffffffffffffffffffffffffffffffff16906020019092919080359060200190929190505050611add565b604051808215151515815260200191505060405180910390f35b6108436004803603602081101561081757600080fd5b81019080803573ffffffffffffffffffffffffffffffffffffffff169060200190929190505050611af4565b604051808261ffff1661ffff16815260200191505060405180910390f35b6108b16004803603604081101561087757600080fd5b81019080803573ffffffffffffffffffffffffffffffffffffffff169060200190929190803561ffff169060200190929190505050611b20565b005b6108df600480360360208110156108c957600080fd5b810190808035906020019092919050505061208f565b005b6108e96122d2565b6040518082815260200191505060405180910390f35b6109076122dc565b6040518082815260200191505060405180910390f35b61097f6004803603604081101561093357600080fd5b81019080803573ffffffffffffffffffffffffffffffffffffffff169060200190929190803573ffffffffffffffffffffffffffffffffffffffff1690602001909291905050506122e2565b6040518082815260200191505060405180910390f35b6109e1600480360360408110156109ab57600080fd5b81019080803573ffffffffffffffffffffffffffffffffffffffff16906020019092919080359060200190929190505050612369565b005b610a0f600480360360208110156109f957600080fd5b8101908080359060200190929190505050612542565b005b610a5360048036036020811015610a2757600080fd5b81019080803573ffffffffffffffffffffffffffffffffffffffff169060200190929190505050612a45565b005b610a5d612a64565b6040518082815260200191505060405180910390f35b6040805190810160405280600b81526020017f47656f444220546f6b656e00000000000000000000000000000000000000000081525081565b6000610ab9338484612aae565b6001905092915050565b6000600254905090565b600554600760003373ffffffffffffffffffffffffffffffffffffffff1673ffffffffffffffffffffffffffffffffffffffff1681526020019081526020016000206000015410158015610b6d5750600760003373ffffffffffffffffffffffffffffffffffffffff1673ffffffffffffffffffffffffffffffffffffffff16815260200190815260200160002060010160009054906101000a900460ff165b1515610bc4576040517f08c379a00000000000000000000000000000000000000000000000000000000081526004018080602001828103825260258152602001806132816025913960400191505060405180910390fd5b8060098054905081101515610c41576040517f08c379a00000000000000000000000000000000000000000000000000000000081526004018080602001828103825260148152602001807f496e64657820646f6573206e6f7420657869737400000000000000000000000081525060200191505060405180910390fd5b42600982815481101515610c5157fe5b90600052602060002090600502016004015411151515610cd9576040517f08c379a00000000000000000000000000000000000000000000000000000000081526004018080602001828103825260178152602001807f54686520646561646c696e65206861732070617373656400000000000000000081525060200191505060405180910390fd5b60001515600982815481101515610cec57fe5b906000526020600020906005020160010160009054906101000a900460ff161515141515610d65576040517f08c379a00000000000000000000000000000000000000000000000000000000081526004018080602001828103825260258152602001806132c86025913960400191505060405180910390fd5b600554600983815481101515610d7757fe5b906000526020600020906005020160020154111515610dfe576040517f08c379a00000000000000000000000000000000000000000000000000000000081526004018080602001828103825260148152602001807f4e6f7420656e6f75676820617070726f76616c7300000000000000000000000081525060200191505060405180910390fd5b6001600983815481101515610e0f57fe5b906000526020600020906005020160010160006101000a81548160ff021916908315150217905550600982815481101515610e4657fe5b9060005260206000209060050201600001546005819055505050565b6000610e6f848484612c11565b610f088433610f0385600160008a73ffffffffffffffffffffffffffffffffffffffff1673ffffffffffffffffffffffffffffffffffffffff16815260200190815260200160002060003373ffffffffffffffffffffffffffffffffffffffff1673ffffffffffffffffffffffffffffffffffffffff16815260200190815260200160002054612ddd90919063ffffffff16565b612aae565b600190509392505050565b600581565b6000610fb33384610fae85600160003373ffffffffffffffffffffffffffffffffffffffff1673ffffffffffffffffffffffffffffffffffffffff16815260200190815260200160002060008973ffffffffffffffffffffffffffffffffffffffff1673ffffffffffffffffffffffffffffffffffffffff16815260200190815260200160002054612dff90919063ffffffff16565b612aae565b6001905092915050565b60006001600760003373ffffffffffffffffffffffffffffffffffffffff1673ffffffffffffffffffffffffffffffffffffffff16815260200190815260200160002060010160006101000a81548160ff021916908315150217905550600061107183600760003373ffffffffffffffffffffffffffffffffffffffff1673ffffffffffffffffffffffffffffffffffffffff16815260200190815260200160002060000154612dff90919063ffffffff16565b905060055481101515156110ed576040517f08c379a000000000000000000000000000000000000000000000000000000000815260040180806020018281038252601b8152602001807f5374616b656420616d6f756e74206973206e6f7420656e6f756768000000000081525060200191505060405180910390fd5b6110f73084611add565b5061110d83600654612dff90919063ffffffff16565b60068190555080600760003373ffffffffffffffffffffffffffffffffffffffff1673ffffffffffffffffffffffffffffffffffffffff1681526020019081526020016000206000018190555050919050565b60098181548110151561116f57fe5b90600052602060002090600502016000915090508060000154908060010160009054906101000a900460ff16908060010160019054906101000a900473ffffffffffffffffffffffffffffffffffffffff16908060020154908060040154905085565b6000600760003373ffffffffffffffffffffffffffffffffffffffff1673ffffffffffffffffffffffffffffffffffffffff1681526020019081526020016000206000015411151561126f576040517f08c379a00000000000000000000000000000000000000000000000000000000081526004018080602001828103825260228152602001806132a66022913960400191505060405180910390fd5b60001515600760003373ffffffffffffffffffffffffffffffffffffffff1673ffffffffffffffffffffffffffffffffffffffff16815260200190815260200160002060010160009054906101000a900460ff16151514156112d9576112d433612e20565b611588565b6000600760003373ffffffffffffffffffffffffffffffffffffffff1673ffffffffffffffffffffffffffffffffffffffff16815260200190815260200160002060010160019054906101000a900461ffff1661ffff161115156113a5576040517f08c379a000000000000000000000000000000000000000000000000000000000815260040180806020018281038252601e8152602001807f52657175657374207374616b65207769746864726177616c206669727374000081525060200191505060405180910390fd5b6113bb6002600654612f9890919063ffffffff16565b600760003373ffffffffffffffffffffffffffffffffffffffff1673ffffffffffffffffffffffffffffffffffffffff16815260200190815260200160002060000154600760003373ffffffffffffffffffffffffffffffffffffffff1673ffffffffffffffffffffffffffffffffffffffff1681526020019081526020016000206002016000600760003373ffffffffffffffffffffffffffffffffffffffff1673ffffffffffffffffffffffffffffffffffffffff16815260200190815260200160002060010160019054906101000a900461ffff1661ffff1661ffff168152602001908152602001600020540110151515611521576040517f08c379a000000000000000000000000000000000000000000000000000000000815260040180806020018281038252601a8152602001807f566f74696e67207374616b65206973206e6f7420656e6f75676800000000000081525060200191505060405180910390fd5b611578600760003373ffffffffffffffffffffffffffffffffffffffff1673ffffffffffffffffffffffffffffffffffffffff16815260200190815260200160002060000154600654612ddd90919063ffffffff16565b60068190555061158733612e20565b5b565b6000600760003373ffffffffffffffffffffffffffffffffffffffff1673ffffffffffffffffffffffffffffffffffffffff16815260200190815260200160002060000154111515611627576040517f08c379a00000000000000000000000000000000000000000000000000000000081526004018080602001828103825260228152602001806132a66022913960400191505060405180910390fd5b61ffff600760003373ffffffffffffffffffffffffffffffffffffffff1673ffffffffffffffffffffffffffffffffffffffff16815260200190815260200160002060010160019054906101000a900461ffff1661ffff16141515156116f5576040517f08c379a000000000000000000000000000000000000000000000000000000000815260040180806020018281038252601b8152602001807f5769746864726177616c2072657175657374206465706c65746564000000000081525060200191505060405180910390fd5b6001600760003373ffffffffffffffffffffffffffffffffffffffff1673ffffffffffffffffffffffffffffffffffffffff16815260200190815260200160002060010160019054906101000a900461ffff1601600760003373ffffffffffffffffffffffffffffffffffffffff1673ffffffffffffffffffffffffffffffffffffffff16815260200190815260200160002060010160016101000a81548161ffff021916908361ffff160217905550565b60008060008373ffffffffffffffffffffffffffffffffffffffff1673ffffffffffffffffffffffffffffffffffffffff168152602001908152602001600020549050919050565b6117f7611938565b151561180257600080fd5b600073ffffffffffffffffffffffffffffffffffffffff16600360009054906101000a900473ffffffffffffffffffffffffffffffffffffffff1673ffffffffffffffffffffffffffffffffffffffff167f8be0079c531659141344cd1fd0a4f28419497f9722a3daafe3b4186f6b6457e060405160405180910390a36000600360006101000a81548173ffffffffffffffffffffffffffffffffffffffff021916908373ffffffffffffffffffffffffffffffffffffffff160217905550565b60076020528060005260406000206000915090508060000154908060010160009054906101000a900460ff16908060010160019054906101000a900461ffff16905083565b60065481565b6000600360009054906101000a900473ffffffffffffffffffffffffffffffffffffffff16905090565b6000600360009054906101000a900473ffffffffffffffffffffffffffffffffffffffff1673ffffffffffffffffffffffffffffffffffffffff163373ffffffffffffffffffffffffffffffffffffffff1614905090565b60048054600181600116156101000203166002900480601f016020809104026020016040519081016040528092919081815260200182805460018160011615610100020316600290048015611a265780601f106119fb57610100808354040283529160200191611a26565b820191906000526020600020905b815481529060010190602001808311611a0957829003601f168201915b505050505081565b6000600554905090565b6000611ad33384611ace85600160003373ffffffffffffffffffffffffffffffffffffffff1673ffffffffffffffffffffffffffffffffffffffff16815260200190815260200160002060008973ffffffffffffffffffffffffffffffffffffffff1673ffffffffffffffffffffffffffffffffffffffff16815260200190815260200160002054612ddd90919063ffffffff16565b612aae565b6001905092915050565b6000611aea338484612c11565b6001905092915050565b60086020528060005260406000206000915090508060000160009054906101000a900461ffff16905081565b600554600760003373ffffffffffffffffffffffffffffffffffffffff1673ffffffffffffffffffffffffffffffffffffffff1681526020019081526020016000206000015410158015611bc05750600760003373ffffffffffffffffffffffffffffffffffffffff1673ffffffffffffffffffffffffffffffffffffffff16815260200190815260200160002060010160009054906101000a900460ff165b1515611c17576040517f08c379a00000000000000000000000000000000000000000000000000000000081526004018080602001828103825260258152602001806132816025913960400191505060405180910390fd5b3373ffffffffffffffffffffffffffffffffffffffff168273ffffffffffffffffffffffffffffffffffffffff1614151515611c9e576040517f08c379a000000000000000000000000000000000000000000000000000000000815260040180806020018281038252604e8152602001806132ed604e913960600191505060405180910390fd5b60008161ffff16111515611d1a576040517f08c379a000000000000000000000000000000000000000000000000000000000815260040180806020018281038252601c8152602001807f496e646578206d7573742062652067726561746572207468616e20300000000081525060200191505060405180910390fd5b8061ffff16600760008473ffffffffffffffffffffffffffffffffffffffff1673ffffffffffffffffffffffffffffffffffffffff16815260200190815260200160002060010160019054906101000a900461ffff1661ffff16141515611dcc576040517f08c379a000000000000000000000000000000000000000000000000000000000815260040180806020018281038252602681526020018061325b6026913960400191505060405180910390fd5b60008133604051602001808361ffff1661ffff1681526020018273ffffffffffffffffffffffffffffffffffffffff1673ffffffffffffffffffffffffffffffffffffffff1681526020019250505060405160208183030381529060405280519060200120905060001515600760008573ffffffffffffffffffffffffffffffffffffffff1673ffffffffffffffffffffffffffffffffffffffff168152602001908152602001600020600301600083815260200190815260200160002060009054906101000a900460ff161515141515611f0f576040517f08c379a00000000000000000000000000000000000000000000000000000000081526004018080602001828103825260158152602001807f596f752063616e6e6f7420766f7465207477696365000000000000000000000081525060200191505060405180910390fd5b611fbf600760003373ffffffffffffffffffffffffffffffffffffffff1673ffffffffffffffffffffffffffffffffffffffff16815260200190815260200160002060000154600760008673ffffffffffffffffffffffffffffffffffffffff1673ffffffffffffffffffffffffffffffffffffffff16815260200190815260200160002060020160008561ffff1661ffff16815260200190815260200160002054612dff90919063ffffffff16565b600760008573ffffffffffffffffffffffffffffffffffffffff1673ffffffffffffffffffffffffffffffffffffffff16815260200190815260200160002060020160008461ffff1661ffff168152602001908152602001600020819055506001600760008573ffffffffffffffffffffffffffffffffffffffff1673ffffffffffffffffffffffffffffffffffffffff168152602001908152602001600020600301600083815260200190815260200160002060006101000a81548160ff021916908315150217905550505050565b600554600760003373ffffffffffffffffffffffffffffffffffffffff1673ffffffffffffffffffffffffffffffffffffffff168152602001908152602001600020600001541015801561212f5750600760003373ffffffffffffffffffffffffffffffffffffffff1673ffffffffffffffffffffffffffffffffffffffff16815260200190815260200160002060010160009054906101000a900460ff165b1515612186576040517f08c379a00000000000000000000000000000000000000000000000000000000081526004018080602001828103825260258152602001806132816025913960400191505060405180910390fd5b61218e613212565b60a0604051908101604052808381526020016000151581526020013373ffffffffffffffffffffffffffffffffffffffff168152602001600760003373ffffffffffffffffffffffffffffffffffffffff1673ffffffffffffffffffffffffffffffffffffffff1681526020019081526020016000206000015481526020016201518042018152509050600981908060018154018082558091505090600182039060005260206000209060050201600090919290919091506000820151816000015560208201518160010160006101000a81548160ff02191690831515021790555060408201518160010160016101000a81548173ffffffffffffffffffffffffffffffffffffffff021916908373ffffffffffffffffffffffffffffffffffffffff16021790555060608201518160020155608082015181600401555050505050565b655af3107a400081565b60055481565b6000600160008473ffffffffffffffffffffffffffffffffffffffff1673ffffffffffffffffffffffffffffffffffffffff16815260200190815260200160002060008373ffffffffffffffffffffffffffffffffffffffff1673ffffffffffffffffffffffffffffffffffffffff16815260200190815260200160002054905092915050565b600554600760003373ffffffffffffffffffffffffffffffffffffffff1673ffffffffffffffffffffffffffffffffffffffff16815260200190815260200160002060000154101580156124095750600760003373ffffffffffffffffffffffffffffffffffffffff1673ffffffffffffffffffffffffffffffffffffffff16815260200190815260200160002060010160009054906101000a900460ff165b1515612460576040517f08c379a00000000000000000000000000000000000000000000000000000000081526004018080602001828103825260258152602001806132816025913960400191505060405180910390fd5b600554600760003373ffffffffffffffffffffffffffffffffffffffff1673ffffffffffffffffffffffffffffffffffffffff168152602001908152602001600020600001541015151561251c576040517f08c379a000000000000000000000000000000000000000000000000000000000815260040180806020018281038252601b8152602001807f5374616b656420616d6f756e74206973206e6f7420656e6f756768000000000081525060200191505060405180910390fd5b655af3107a40008161252c610ac3565b01101561253e5761253d8282612fc2565b5b5050565b600554600760003373ffffffffffffffffffffffffffffffffffffffff1673ffffffffffffffffffffffffffffffffffffffff16815260200190815260200160002060000154101580156125e25750600760003373ffffffffffffffffffffffffffffffffffffffff1673ffffffffffffffffffffffffffffffffffffffff16815260200190815260200160002060010160009054906101000a900460ff165b1515612639576040517f08c379a00000000000000000000000000000000000000000000000000000000081526004018080602001828103825260258152602001806132816025913960400191505060405180910390fd5b80600980549050811015156126b6576040517f08c379a00000000000000000000000000000000000000000000000000000000081526004018080602001828103825260148152602001807f496e64657820646f6573206e6f7420657869737400000000000000000000000081525060200191505060405180910390fd5b426009828154811015156126c657fe5b9060005260206000209060050201600401541115151561274e576040517f08c379a00000000000000000000000000000000000000000000000000000000081526004018080602001828103825260178152602001807f54686520646561646c696e65206861732070617373656400000000000000000081525060200191505060405180910390fd5b6000151560098281548110151561276157fe5b906000526020600020906005020160010160009054906101000a900460ff1615151415156127da576040517f08c379a00000000000000000000000000000000000000000000000000000000081526004018080602001828103825260258152602001806132c86025913960400191505060405180910390fd5b6009828154811015156127e957fe5b906000526020600020906005020160030160003373ffffffffffffffffffffffffffffffffffffffff1673ffffffffffffffffffffffffffffffffffffffff16815260200190815260200160002060009054906101000a900460ff161580156128be575060098281548110151561285c57fe5b906000526020600020906005020160010160019054906101000a900473ffffffffffffffffffffffffffffffffffffffff1673ffffffffffffffffffffffffffffffffffffffff163373ffffffffffffffffffffffffffffffffffffffff1614155b1515612932576040517f08c379a00000000000000000000000000000000000000000000000000000000081526004018080602001828103825260158152602001807f596f752063616e6e6f7420766f7465207477696365000000000000000000000081525060200191505060405180910390fd5b600160098381548110151561294357fe5b906000526020600020906005020160030160003373ffffffffffffffffffffffffffffffffffffffff1673ffffffffffffffffffffffffffffffffffffffff16815260200190815260200160002060006101000a81548160ff021916908315150217905550612a1d600760003373ffffffffffffffffffffffffffffffffffffffff1673ffffffffffffffffffffffffffffffffffffffff168152602001908152602001600020600001546009848154811015156129fd57fe5b906000526020600020906005020160020154612dff90919063ffffffff16565b600983815481101515612a2c57fe5b9060005260206000209060050201600201819055505050565b612a4d611938565b1515612a5857600080fd5b612a6181613116565b50565b6000600760003373ffffffffffffffffffffffffffffffffffffffff1673ffffffffffffffffffffffffffffffffffffffff16815260200190815260200160002060000154905090565b600073ffffffffffffffffffffffffffffffffffffffff168273ffffffffffffffffffffffffffffffffffffffff1614151515612aea57600080fd5b600073ffffffffffffffffffffffffffffffffffffffff168373ffffffffffffffffffffffffffffffffffffffff1614151515612b2657600080fd5b80600160008573ffffffffffffffffffffffffffffffffffffffff1673ffffffffffffffffffffffffffffffffffffffff16815260200190815260200160002060008473ffffffffffffffffffffffffffffffffffffffff1673ffffffffffffffffffffffffffffffffffffffff168152602001908152602001600020819055508173ffffffffffffffffffffffffffffffffffffffff168373ffffffffffffffffffffffffffffffffffffffff167f8c5be1e5ebec7d5bd14f71427d1e84f3dd0314c0f7b2291e5b200ac8c7c3b925836040518082815260200191505060405180910390a3505050565b600073ffffffffffffffffffffffffffffffffffffffff168273ffffffffffffffffffffffffffffffffffffffff1614151515612c4d57600080fd5b612c9e816000808673ffffffffffffffffffffffffffffffffffffffff1673ffffffffffffffffffffffffffffffffffffffff16815260200190815260200160002054612ddd90919063ffffffff16565b6000808573ffffffffffffffffffffffffffffffffffffffff1673ffffffffffffffffffffffffffffffffffffffff16815260200190815260200160002081905550612d31816000808573ffffffffffffffffffffffffffffffffffffffff1673ffffffffffffffffffffffffffffffffffffffff16815260200190815260200160002054612dff90919063ffffffff16565b6000808473ffffffffffffffffffffffffffffffffffffffff1673ffffffffffffffffffffffffffffffffffffffff168152602001908152602001600020819055508173ffffffffffffffffffffffffffffffffffffffff168373ffffffffffffffffffffffffffffffffffffffff167fddf252ad1be2c89b69c2b068fc378daa952ba7f163c4a11628f55a4df523b3ef836040518082815260200191505060405180910390a3505050565b6000828211151515612dee57600080fd5b600082840390508091505092915050565b6000808284019050838110151515612e1657600080fd5b8091505092915050565b6000600760008373ffffffffffffffffffffffffffffffffffffffff1673ffffffffffffffffffffffffffffffffffffffff1681526020019081526020016000206000015490506000600760008473ffffffffffffffffffffffffffffffffffffffff1673ffffffffffffffffffffffffffffffffffffffff1681526020019081526020016000206000018190555060003090508073ffffffffffffffffffffffffffffffffffffffff1663a9059cbb84846040518363ffffffff167c0100000000000000000000000000000000000000000000000000000000028152600401808373ffffffffffffffffffffffffffffffffffffffff1673ffffffffffffffffffffffffffffffffffffffff16815260200182815260200192505050602060405180830381600087803b158015612f5757600080fd5b505af1158015612f6b573d6000803e3d6000fd5b505050506040513d6020811015612f8157600080fd5b810190808051906020019092919050505050505050565b60008082111515612fa857600080fd5b60008284811515612fb557fe5b0490508091505092915050565b600073ffffffffffffffffffffffffffffffffffffffff168273ffffffffffffffffffffffffffffffffffffffff1614151515612ffe57600080fd5b61301381600254612dff90919063ffffffff16565b60028190555061306a816000808573ffffffffffffffffffffffffffffffffffffffff1673ffffffffffffffffffffffffffffffffffffffff16815260200190815260200160002054612dff90919063ffffffff16565b6000808473ffffffffffffffffffffffffffffffffffffffff1673ffffffffffffffffffffffffffffffffffffffff168152602001908152602001600020819055508173ffffffffffffffffffffffffffffffffffffffff16600073ffffffffffffffffffffffffffffffffffffffff167fddf252ad1be2c89b69c2b068fc378daa952ba7f163c4a11628f55a4df523b3ef836040518082815260200191505060405180910390a35050565b600073ffffffffffffffffffffffffffffffffffffffff168173ffffffffffffffffffffffffffffffffffffffff161415151561315257600080fd5b8073ffffffffffffffffffffffffffffffffffffffff16600360009054906101000a900473ffffffffffffffffffffffffffffffffffffffff1673ffffffffffffffffffffffffffffffffffffffff167f8be0079c531659141344cd1fd0a4f28419497f9722a3daafe3b4186f6b6457e060405160405180910390a380600360006101000a81548173ffffffffffffffffffffffffffffffffffffffff021916908373ffffffffffffffffffffffffffffffffffffffff16021790555050565b60a06040519081016040528060008152602001600015158152602001600073ffffffffffffffffffffffffffffffffffffffff1681526020016000815260200160008152509056fe496e646578206d75737420626520657175616c20746f2063757272656e74207265717565737443616c6c6572206d7573742062652070617274206f66207468652066656465726174696f6e5468657265206973206e6f207374616b6520666f7220746869732061646472657373546869732062616c6c6f742068617320616c7265616479206265656e20617070726f766564596f757220766f7465732077696c6c206265206175746f6d61746963616c6c79206164646564207768656e20796f752063616c6c2066656465726174696f6e5374616b6557697468647261772829a165627a7a723058203d7c1d3022eaf6cdf38aef1e3d76e21396a575794dbea41aa5b5a84bdfe82d030029",
  "source": "pragma solidity ^0.5.2;\n\nimport \"openzeppelin-solidity/contracts/token/ERC20/ERC20.sol\";\nimport \"openzeppelin-solidity/contracts/token/ERC20/ERC20.sol\";\nimport \"openzeppelin-solidity/contracts/ownership/Ownable.sol\";\nimport \"./GeoDBClasses.sol\";\n\n/**\n* @title GeoDB ERC20 Token\n*/\ncontract GeoDB is GeoDBClasses, ERC20, Ownable{\n\n  // Contract constants\n\n  uint256 constant public maxSupply = 100000000000000;\n  uint32 constant public decimals = 5;\n  string constant public name = \"GeoDB Token\";\n  string public symbol = \"GEO\";\n\n\n  // Federation\n\n  uint256 public federationMinimumStake;\n  uint256 public totalStake;\n\n  mapping(address => FederationStake) public federationStakes;\n  mapping(address => FederationJoinBallot) public federationJoinBallots;\n  FederationStakingBallot[] public federationStakingBallots;\n\n  constructor() public {\n    _mint(msg.sender, 10000000000000); // Team allocation\n\n    federationMinimumStake = 100000; // Initial minimum stake: 1 GEO\n\n    // Initial stake given to the owner\n    _mint(address(this), federationMinimumStake);\n    federationStakes[msg.sender].approved = true;\n    totalStake = totalStake.add(federationMinimumStake);\n    federationStakes[msg.sender].stake = federationMinimumStake;\n\n  }\n\n  function getCurrentFederationStakeRequirement() public view returns (uint256){\n    return federationMinimumStake;\n  }\n\n  function federationStakeLock(uint256 amount) public returns (uint256){\n\n    federationStakes[msg.sender].approved = true; // Delete when voting to join federation is available\n\n    uint256 summedStakes = federationStakes[msg.sender].stake.add(amount);\n    require(summedStakes >= federationMinimumStake, \"Staked amount is not enough\");\n    transfer(address(this), amount);\n    totalStake = totalStake.add(amount);\n    federationStakes[msg.sender].stake = summedStakes;\n  }\n\n  function federationStakeWithdraw() public callerMustHaveStake {\n\n    if(federationStakes[msg.sender].approved == false){\n      withdrawStake(msg.sender);\n      return;\n    }\n\n    require(federationStakes[msg.sender].releaseRequestIndex > 0, \"Request stake withdrawal first\");\n    require(\n       federationStakes[msg.sender].withdrawApprovals[federationStakes[msg.sender].releaseRequestIndex]\n       + federationStakes[msg.sender].stake\n       >= totalStake.div(2), \"Voting stake is not enough\"\n     );\n\n    totalStake = totalStake.sub(federationStakes[msg.sender].stake);\n    withdrawStake(msg.sender);\n  }\n\n  function withdrawStake(address addr) internal {\n    uint256 stake = federationStakes[addr].stake;\n    federationStakes[addr].stake = 0;\n    GeoDB selfReference = GeoDB(address(this));\n    selfReference.transfer(addr, stake);\n  }\n\n  function getStake() public view returns(uint256){\n    return federationStakes[msg.sender].stake;\n  }\n\n  function requestStakeWithdrawal() public callerMustHaveStake {\n    require(federationStakes[msg.sender].releaseRequestIndex != 65535, \"Withdrawal request depleted\");\n    federationStakes[msg.sender].releaseRequestIndex = federationStakes[msg.sender].releaseRequestIndex + 1;\n  }\n\n  function voteStakeWithdrawalRequest(address addr, uint16 index) public callerMustBeFederated() {\n    require(addr != msg.sender, \"Your votes will be automatically added when you call federationStakeWithdraw()\");\n    require(index > 0, \"Index must be greater than 0\");\n    require(federationStakes[addr].releaseRequestIndex == index, \"Index must be equal to current request\");\n    bytes32 withdrawApprover = keccak256(abi.encode(index, msg.sender));\n    require(federationStakes[addr].withdrawApprovers[withdrawApprover] == false, \"You cannot vote twice\");\n\n    federationStakes[addr].withdrawApprovals[index] = federationStakes[addr].withdrawApprovals[index].add(federationStakes[msg.sender].stake);\n    federationStakes[addr].withdrawApprovers[withdrawApprover] = true;\n\n\n  }\n\n  function newStakingBallot(uint256 stake) public callerMustBeFederated() {\n\n    FederationStakingBallot memory ballot = FederationStakingBallot({\n      stake: stake,\n      approved: false,\n      proposer: msg.sender,\n      approvals: federationStakes[msg.sender].stake,\n      deadline: (block.timestamp + 1 days)\n    });\n\n    federationStakingBallots.push(ballot);\n\n\n  }\n\n  function voteStakingBallot(uint256 index) public callerMustBeFederated stakingBallotIsValid(index) {\n    require(!federationStakingBallots[index].approvers[msg.sender] && msg.sender != federationStakingBallots[index].proposer, \"You cannot vote twice\");\n    federationStakingBallots[index].approvers[msg.sender] = true;\n    federationStakingBallots[index].approvals = federationStakingBallots[index].approvals.add(federationStakes[msg.sender].stake);\n  }\n\n  function resolveStakingBallot(uint256 index) public callerMustBeFederated() stakingBallotIsValid(index){\n    require(federationStakingBallots[index].approvals >\n      federationMinimumStake,\n      \"Not enough approvals\"\n    ); // Untested\n\n    federationStakingBallots[index].approved = true;\n    federationMinimumStake = federationStakingBallots[index].stake;\n\n  }\n\n  function releaseRewards(address userAddress, uint256 reward) public callerMustBeFederated() {\n    require(federationStakes[msg.sender].stake >= federationMinimumStake, \"Staked amount is not enough\");\n\n    if(totalSupply() + reward < maxSupply){\n      _mint(userAddress, reward);\n    }\n  }\n\n  modifier callerMustHaveStake() {\n    require(federationStakes[msg.sender].stake > 0, \"There is no stake for this address\");\n    _;\n  }\n\n  modifier callerMustBeFederated() {\n    require(federationStakes[msg.sender].stake >= federationMinimumStake\n      && federationStakes[msg.sender].approved,\n      \"Caller must be part of the federation\"); // Untested\n    _;\n  }\n\n  modifier stakingBallotIsValid(uint256 index){\n    require(index < federationStakingBallots.length, \"Index does not exist\"); // Untested\n    require(federationStakingBallots[index].deadline <= now, \"The deadline has passed\"); // Untested\n    require(federationStakingBallots[index].approved == false, \"This ballot has already been approved\"); // Untested\n    _;\n  }\n\n}\n",
  "sourcePath": "/home/mad/geodb/fabric/ethereum/contracts/GeoDB.sol",
  "compiler": {
    "name": "solc",
    "version": "0.5.2+commit.1df8f40c.Emscripten.clang"
  },
  "schemaVersion": "3.0.9",
  "updatedAt": "2019-05-09T15:20:24.216Z",
  "devdoc": {
    "methods": {
      "allowance(address,address)": {
        "details": "Function to check the amount of tokens that an owner allowed to a spender.",
        "params": {
          "owner": "address The address which owns the funds.",
          "spender": "address The address which will spend the funds."
        },
        "return": "A uint256 specifying the amount of tokens still available for the spender."
      },
      "approve(address,uint256)": {
        "details": "Approve the passed address to spend the specified amount of tokens on behalf of msg.sender. Beware that changing an allowance with this method brings the risk that someone may use both the old and the new allowance by unfortunate transaction ordering. One possible solution to mitigate this race condition is to first reduce the spender's allowance to 0 and set the desired value afterwards: https://github.com/ethereum/EIPs/issues/20#issuecomment-263524729",
        "params": {
          "spender": "The address which will spend the funds.",
          "value": "The amount of tokens to be spent."
        }
      },
      "balanceOf(address)": {
        "details": "Gets the balance of the specified address.",
        "params": {
          "owner": "The address to query the balance of."
        },
        "return": "A uint256 representing the amount owned by the passed address."
      },
      "decreaseAllowance(address,uint256)": {
        "details": "Decrease the amount of tokens that an owner allowed to a spender. approve should be called when _allowed[msg.sender][spender] == 0. To decrement allowed value is better to use this function to avoid 2 calls (and wait until the first transaction is mined) From MonolithDAO Token.sol Emits an Approval event.",
        "params": {
          "spender": "The address which will spend the funds.",
          "subtractedValue": "The amount of tokens to decrease the allowance by."
        }
      },
      "increaseAllowance(address,uint256)": {
        "details": "Increase the amount of tokens that an owner allowed to a spender. approve should be called when _allowed[msg.sender][spender] == 0. To increment allowed value is better to use this function to avoid 2 calls (and wait until the first transaction is mined) From MonolithDAO Token.sol Emits an Approval event.",
        "params": {
          "addedValue": "The amount of tokens to increase the allowance by.",
          "spender": "The address which will spend the funds."
        }
      },
      "isOwner()": {
        "return": "true if `msg.sender` is the owner of the contract."
      },
      "owner()": {
        "return": "the address of the owner."
      },
      "renounceOwnership()": {
        "details": "Allows the current owner to relinquish control of the contract. It will not be possible to call the functions with the `onlyOwner` modifier anymore."
      },
      "totalSupply()": {
        "details": "Total number of tokens in existence"
      },
      "transfer(address,uint256)": {
        "details": "Transfer token to a specified address",
        "params": {
          "to": "The address to transfer to.",
          "value": "The amount to be transferred."
        }
      },
      "transferFrom(address,address,uint256)": {
        "details": "Transfer tokens from one address to another. Note that while this function emits an Approval event, this is not required as per the specification, and other compliant implementations may not emit the event.",
        "params": {
          "from": "address The address which you want to send tokens from",
          "to": "address The address which you want to transfer to",
          "value": "uint256 the amount of tokens to be transferred"
        }
      },
      "transferOwnership(address)": {
        "details": "Allows the current owner to transfer control of the contract to a newOwner.",
        "params": {
          "newOwner": "The address to transfer ownership to."
        }
      }
    },
    "title": "GeoDB ERC20 Token"
  },
  "userdoc": {
    "methods": {
      "renounceOwnership()": {
        "notice": "Renouncing ownership will leave the contract without an owner, thereby removing any functionality that is only available to the owner."
      }
    }
  }
}