{
  "contractName": "GeoDB",
  "abi": [
    {
      "constant": true,
      "inputs": [],
      "name": "name",
      "outputs": [
        {
          "name": "",
          "type": "string"
        }
      ],
      "payable": false,
      "stateMutability": "view",
      "type": "function"
    },
    {
      "constant": false,
      "inputs": [
        {
          "name": "spender",
          "type": "address"
        },
        {
          "name": "value",
          "type": "uint256"
        }
      ],
      "name": "approve",
      "outputs": [
        {
          "name": "",
          "type": "bool"
        }
      ],
      "payable": false,
      "stateMutability": "nonpayable",
      "type": "function"
    },
    {
      "constant": true,
      "inputs": [],
      "name": "totalSupply",
      "outputs": [
        {
          "name": "",
          "type": "uint256"
        }
      ],
      "payable": false,
      "stateMutability": "view",
      "type": "function"
    },
    {
      "constant": false,
      "inputs": [
        {
          "name": "from",
          "type": "address"
        },
        {
          "name": "to",
          "type": "address"
        },
        {
          "name": "value",
          "type": "uint256"
        }
      ],
      "name": "transferFrom",
      "outputs": [
        {
          "name": "",
          "type": "bool"
        }
      ],
      "payable": false,
      "stateMutability": "nonpayable",
      "type": "function"
    },
    {
      "constant": true,
      "inputs": [],
      "name": "decimals",
      "outputs": [
        {
          "name": "",
          "type": "uint32"
        }
      ],
      "payable": false,
      "stateMutability": "view",
      "type": "function"
    },
    {
      "constant": false,
      "inputs": [
        {
          "name": "spender",
          "type": "address"
        },
        {
          "name": "addedValue",
          "type": "uint256"
        }
      ],
      "name": "increaseAllowance",
      "outputs": [
        {
          "name": "",
          "type": "bool"
        }
      ],
      "payable": false,
      "stateMutability": "nonpayable",
      "type": "function"
    },
    {
      "constant": true,
      "inputs": [
        {
          "name": "",
          "type": "uint256"
        }
      ],
      "name": "federationStakingBallots",
      "outputs": [
        {
          "name": "stake",
          "type": "uint256"
        },
        {
          "name": "approved",
          "type": "bool"
        },
        {
          "name": "proposer",
          "type": "address"
        },
        {
          "name": "approvals",
          "type": "uint256"
        },
        {
          "name": "deadline",
          "type": "uint256"
        }
      ],
      "payable": false,
      "stateMutability": "view",
      "type": "function"
    },
    {
      "constant": true,
      "inputs": [
        {
          "name": "owner",
          "type": "address"
        }
      ],
      "name": "balanceOf",
      "outputs": [
        {
          "name": "",
          "type": "uint256"
        }
      ],
      "payable": false,
      "stateMutability": "view",
      "type": "function"
    },
    {
      "constant": false,
      "inputs": [],
      "name": "renounceOwnership",
      "outputs": [],
      "payable": false,
      "stateMutability": "nonpayable",
      "type": "function"
    },
    {
      "constant": true,
      "inputs": [
        {
          "name": "",
          "type": "address"
        }
      ],
      "name": "federationStakes",
      "outputs": [
        {
          "name": "stake",
          "type": "uint256"
        },
        {
          "name": "approved",
          "type": "bool"
        },
        {
          "name": "releaseRequestIndex",
          "type": "uint16"
        }
      ],
      "payable": false,
      "stateMutability": "view",
      "type": "function"
    },
    {
      "constant": true,
      "inputs": [],
      "name": "totalStake",
      "outputs": [
        {
          "name": "",
          "type": "uint256"
        }
      ],
      "payable": false,
      "stateMutability": "view",
      "type": "function"
    },
    {
      "constant": true,
      "inputs": [],
      "name": "owner",
      "outputs": [
        {
          "name": "",
          "type": "address"
        }
      ],
      "payable": false,
      "stateMutability": "view",
      "type": "function"
    },
    {
      "constant": true,
      "inputs": [],
      "name": "isOwner",
      "outputs": [
        {
          "name": "",
          "type": "bool"
        }
      ],
      "payable": false,
      "stateMutability": "view",
      "type": "function"
    },
    {
      "constant": true,
      "inputs": [],
      "name": "symbol",
      "outputs": [
        {
          "name": "",
          "type": "string"
        }
      ],
      "payable": false,
      "stateMutability": "view",
      "type": "function"
    },
    {
      "constant": false,
      "inputs": [
        {
          "name": "spender",
          "type": "address"
        },
        {
          "name": "subtractedValue",
          "type": "uint256"
        }
      ],
      "name": "decreaseAllowance",
      "outputs": [
        {
          "name": "",
          "type": "bool"
        }
      ],
      "payable": false,
      "stateMutability": "nonpayable",
      "type": "function"
    },
    {
      "constant": false,
      "inputs": [
        {
          "name": "to",
          "type": "address"
        },
        {
          "name": "value",
          "type": "uint256"
        }
      ],
      "name": "transfer",
      "outputs": [
        {
          "name": "",
          "type": "bool"
        }
      ],
      "payable": false,
      "stateMutability": "nonpayable",
      "type": "function"
    },
    {
      "constant": true,
      "inputs": [
        {
          "name": "",
          "type": "address"
        }
      ],
      "name": "federationJoinBallots",
      "outputs": [
        {
          "name": "requestIndex",
          "type": "uint16"
        }
      ],
      "payable": false,
      "stateMutability": "view",
      "type": "function"
    },
    {
      "constant": true,
      "inputs": [],
      "name": "maxSupply",
      "outputs": [
        {
          "name": "",
          "type": "uint256"
        }
      ],
      "payable": false,
      "stateMutability": "view",
      "type": "function"
    },
    {
      "constant": true,
      "inputs": [],
      "name": "federationMinimumStake",
      "outputs": [
        {
          "name": "",
          "type": "uint256"
        }
      ],
      "payable": false,
      "stateMutability": "view",
      "type": "function"
    },
    {
      "constant": true,
      "inputs": [
        {
          "name": "owner",
          "type": "address"
        },
        {
          "name": "spender",
          "type": "address"
        }
      ],
      "name": "allowance",
      "outputs": [
        {
          "name": "",
          "type": "uint256"
        }
      ],
      "payable": false,
      "stateMutability": "view",
      "type": "function"
    },
    {
      "constant": false,
      "inputs": [
        {
          "name": "newOwner",
          "type": "address"
        }
      ],
      "name": "transferOwnership",
      "outputs": [],
      "payable": false,
      "stateMutability": "nonpayable",
      "type": "function"
    },
    {
      "inputs": [],
      "payable": false,
      "stateMutability": "nonpayable",
      "type": "constructor"
    },
    {
      "anonymous": false,
      "inputs": [
        {
          "indexed": true,
          "name": "previousOwner",
          "type": "address"
        },
        {
          "indexed": true,
          "name": "newOwner",
          "type": "address"
        }
      ],
      "name": "OwnershipTransferred",
      "type": "event"
    },
    {
      "anonymous": false,
      "inputs": [
        {
          "indexed": true,
          "name": "from",
          "type": "address"
        },
        {
          "indexed": true,
          "name": "to",
          "type": "address"
        },
        {
          "indexed": false,
          "name": "value",
          "type": "uint256"
        }
      ],
      "name": "Transfer",
      "type": "event"
    },
    {
      "anonymous": false,
      "inputs": [
        {
          "indexed": true,
          "name": "owner",
          "type": "address"
        },
        {
          "indexed": true,
          "name": "spender",
          "type": "address"
        },
        {
          "indexed": false,
          "name": "value",
          "type": "uint256"
        }
      ],
      "name": "Approval",
      "type": "event"
    },
    {
      "constant": true,
      "inputs": [],
      "name": "getCurrentFederationStakeRequirement",
      "outputs": [
        {
          "name": "",
          "type": "uint256"
        }
      ],
      "payable": false,
      "stateMutability": "view",
      "type": "function"
    },
    {
      "constant": false,
      "inputs": [
        {
          "name": "amount",
          "type": "uint256"
        }
      ],
      "name": "federationStakeLock",
      "outputs": [
        {
          "name": "",
          "type": "uint256"
        }
      ],
      "payable": false,
      "stateMutability": "nonpayable",
      "type": "function"
    },
    {
      "constant": false,
      "inputs": [],
      "name": "federationStakeWithdraw",
      "outputs": [],
      "payable": false,
      "stateMutability": "nonpayable",
      "type": "function"
    },
    {
      "constant": true,
      "inputs": [],
      "name": "getStake",
      "outputs": [
        {
          "name": "",
          "type": "uint256"
        }
      ],
      "payable": false,
      "stateMutability": "view",
      "type": "function"
    },
    {
      "constant": false,
      "inputs": [],
      "name": "requestStakeWithdrawal",
      "outputs": [],
      "payable": false,
      "stateMutability": "nonpayable",
      "type": "function"
    },
    {
      "constant": false,
      "inputs": [
        {
          "name": "addr",
          "type": "address"
        },
        {
          "name": "index",
          "type": "uint16"
        }
      ],
      "name": "voteStakeWithdrawalRequest",
      "outputs": [],
      "payable": false,
      "stateMutability": "nonpayable",
      "type": "function"
    },
    {
      "constant": false,
      "inputs": [
        {
          "name": "stake",
          "type": "uint256"
        }
      ],
      "name": "newStakingBallot",
      "outputs": [],
      "payable": false,
      "stateMutability": "nonpayable",
      "type": "function"
    },
    {
      "constant": false,
      "inputs": [
        {
          "name": "index",
          "type": "uint256"
        }
      ],
      "name": "voteStakingBallot",
      "outputs": [],
      "payable": false,
      "stateMutability": "nonpayable",
      "type": "function"
    },
    {
      "constant": false,
      "inputs": [
        {
          "name": "index",
          "type": "uint256"
        }
      ],
      "name": "resolveStakingBallot",
      "outputs": [],
      "payable": false,
      "stateMutability": "nonpayable",
      "type": "function"
    },
    {
      "constant": true,
      "inputs": [],
      "name": "getStakingBallotsCount",
      "outputs": [
        {
          "name": "",
          "type": "uint256"
        }
      ],
      "payable": false,
      "stateMutability": "view",
      "type": "function"
    },
    {
      "constant": false,
      "inputs": [
        {
          "name": "userAddress",
          "type": "address"
        },
        {
          "name": "reward",
          "type": "uint256"
        }
      ],
      "name": "releaseRewards",
      "outputs": [],
      "payable": false,
      "stateMutability": "nonpayable",
      "type": "function"
    }
  ],
  "bytecode": "0x60806040526040805190810160405280600381526020017f47454f00000000000000000000000000000000000000000000000000000000008152506004908051906020019062000051929190620003d4565b503480156200005f57600080fd5b5033600360006101000a81548173ffffffffffffffffffffffffffffffffffffffff021916908373ffffffffffffffffffffffffffffffffffffffff160217905550600360009054906101000a900473ffffffffffffffffffffffffffffffffffffffff1673ffffffffffffffffffffffffffffffffffffffff16600073ffffffffffffffffffffffffffffffffffffffff167f8be0079c531659141344cd1fd0a4f28419497f9722a3daafe3b4186f6b6457e060405160405180910390a36200013f336509184e72a0006200023d640100000000026401000000009004565b620186a060058190555062000166306005546200023d640100000000026401000000009004565b6001600760003373ffffffffffffffffffffffffffffffffffffffff1673ffffffffffffffffffffffffffffffffffffffff16815260200190815260200160002060010160006101000a81548160ff021916908315150217905550620001e8600554600654620003b26401000000000262002db6179091906401000000009004565b600681905550600554600760003373ffffffffffffffffffffffffffffffffffffffff1673ffffffffffffffffffffffffffffffffffffffff1681526020019081526020016000206000018190555062000483565b600073ffffffffffffffffffffffffffffffffffffffff168273ffffffffffffffffffffffffffffffffffffffff16141515156200027a57600080fd5b6200029f81600254620003b26401000000000262002db6179091906401000000009004565b60028190555062000306816000808573ffffffffffffffffffffffffffffffffffffffff1673ffffffffffffffffffffffffffffffffffffffff16815260200190815260200160002054620003b26401000000000262002db6179091906401000000009004565b6000808473ffffffffffffffffffffffffffffffffffffffff1673ffffffffffffffffffffffffffffffffffffffff168152602001908152602001600020819055508173ffffffffffffffffffffffffffffffffffffffff16600073ffffffffffffffffffffffffffffffffffffffff167fddf252ad1be2c89b69c2b068fc378daa952ba7f163c4a11628f55a4df523b3ef836040518082815260200191505060405180910390a35050565b6000808284019050838110151515620003ca57600080fd5b8091505092915050565b828054600181600116156101000203166002900490600052602060002090601f016020900481019282601f106200041757805160ff191683800117855562000448565b8280016001018555821562000448579182015b82811115620004475782518255916020019190600101906200042a565b5b5090506200045791906200045b565b5090565b6200048091905b808211156200047c57600081600090555060010162000462565b5090565b90565b6132f380620004936000396000f3fe608060405234801561001057600080fd5b506004361061020d576000357c0100000000000000000000000000000000000000000000000000000000900480638da5cb5b1161012c578063c5399cfb116100bf578063ddbf88551161008e578063ddbf8855146109be578063e60eef0f14610a0c578063f2fde38b14610a3a578063fc0e3d9014610a7e5761020d565b8063c5399cfb146108dc578063d5abeb011461090a578063d9d564d914610928578063dd62ed3e146109465761020d565b8063a457c2d7116100fb578063a457c2d71461075e578063a9059cbb146107c4578063bd7383aa1461082a578063c0de2fb31461088a5761020d565b80638da5cb5b146106515780638f32d59b1461069b57806395d89b41146106bd57806396cf6d10146107405761020d565b80633d8f2eb4116101a457806370a082311161017357806370a082311461055f578063715018a6146105b757806389f63600146105c15780638b0e9f3f146106335761020d565b80633d8f2eb41461047b57806354591867146104bd5780635eaab7b51461054b5780636de6e598146105555761020d565b806318a95059116101e057806318a950591461033757806323b872dd14610365578063313ce567146103eb57806339509351146104155761020d565b806306fdde0314610212578063095ea7b314610295578063173f154f146102fb57806318160ddd14610319575b600080fd5b61021a610a9c565b6040518080602001828103825283818151815260200191508051906020019080838360005b8381101561025a57808201518184015260208101905061023f565b50505050905090810190601f1680156102875780820380516001836020036101000a031916815260200191505b509250505060405180910390f35b6102e1600480360360408110156102ab57600080fd5b81019080803573ffffffffffffffffffffffffffffffffffffffff16906020019092919080359060200190929190505050610ad5565b604051808215151515815260200191505060405180910390f35b610303610aec565b6040518082815260200191505060405180910390f35b610321610af9565b6040518082815260200191505060405180910390f35b6103636004803603602081101561034d57600080fd5b8101908080359060200190929190505050610b03565b005b6103d16004803603606081101561037b57600080fd5b81019080803573ffffffffffffffffffffffffffffffffffffffff169060200190929190803573ffffffffffffffffffffffffffffffffffffffff16906020019092919080359060200190929190505050610eab565b604051808215151515815260200191505060405180910390f35b6103f3610f5c565b604051808263ffffffff1663ffffffff16815260200191505060405180910390f35b6104616004803603604081101561042b57600080fd5b81019080803573ffffffffffffffffffffffffffffffffffffffff16906020019092919080359060200190929190505050610f61565b604051808215151515815260200191505060405180910390f35b6104a76004803603602081101561049157600080fd5b8101908080359060200190929190505050611006565b6040518082815260200191505060405180910390f35b6104e9600480360360208110156104d357600080fd5b81019080803590602001909291905050506111a9565b60405180868152602001851515151581526020018473ffffffffffffffffffffffffffffffffffffffff1673ffffffffffffffffffffffffffffffffffffffff1681526020018381526020018281526020019550505050505060405180910390f35b61055361121b565b005b61055d6115d3565b005b6105a16004803603602081101561057557600080fd5b81019080803573ffffffffffffffffffffffffffffffffffffffff1690602001909291905050506117f0565b6040518082815260200191505060405180910390f35b6105bf611838565b005b610603600480360360208110156105d757600080fd5b81019080803573ffffffffffffffffffffffffffffffffffffffff16906020019092919050505061190c565b60405180848152602001831515151581526020018261ffff1661ffff168152602001935050505060405180910390f35b61063b611951565b6040518082815260200191505060405180910390f35b610659611957565b604051808273ffffffffffffffffffffffffffffffffffffffff1673ffffffffffffffffffffffffffffffffffffffff16815260200191505060405180910390f35b6106a3611981565b604051808215151515815260200191505060405180910390f35b6106c56119d9565b6040518080602001828103825283818151815260200191508051906020019080838360005b838110156107055780820151818401526020810190506106ea565b50505050905090810190601f1680156107325780820380516001836020036101000a031916815260200191505b509250505060405180910390f35b610748611a77565b6040518082815260200191505060405180910390f35b6107aa6004803603604081101561077457600080fd5b81019080803573ffffffffffffffffffffffffffffffffffffffff16906020019092919080359060200190929190505050611a81565b604051808215151515815260200191505060405180910390f35b610810600480360360408110156107da57600080fd5b81019080803573ffffffffffffffffffffffffffffffffffffffff16906020019092919080359060200190929190505050611b26565b604051808215151515815260200191505060405180910390f35b61086c6004803603602081101561084057600080fd5b81019080803573ffffffffffffffffffffffffffffffffffffffff169060200190929190505050611b3d565b604051808261ffff1661ffff16815260200191505060405180910390f35b6108da600480360360408110156108a057600080fd5b81019080803573ffffffffffffffffffffffffffffffffffffffff169060200190929190803561ffff169060200190929190505050611b69565b005b610908600480360360208110156108f257600080fd5b81019080803590602001909291905050506120d8565b005b61091261231b565b6040518082815260200191505060405180910390f35b610930612325565b6040518082815260200191505060405180910390f35b6109a86004803603604081101561095c57600080fd5b81019080803573ffffffffffffffffffffffffffffffffffffffff169060200190929190803573ffffffffffffffffffffffffffffffffffffffff16906020019092919050505061232b565b6040518082815260200191505060405180910390f35b610a0a600480360360408110156109d457600080fd5b81019080803573ffffffffffffffffffffffffffffffffffffffff169060200190929190803590602001909291905050506123b2565b005b610a3860048036036020811015610a2257600080fd5b81019080803590602001909291905050506124cf565b005b610a7c60048036036020811015610a5057600080fd5b81019080803573ffffffffffffffffffffffffffffffffffffffff1690602001909291905050506129d2565b005b610a866129f1565b6040518082815260200191505060405180910390f35b6040805190810160405280600b81526020017f47656f444220546f6b656e00000000000000000000000000000000000000000081525081565b6000610ae2338484612a3b565b6001905092915050565b6000600980549050905090565b6000600254905090565b600554600760003373ffffffffffffffffffffffffffffffffffffffff1673ffffffffffffffffffffffffffffffffffffffff1681526020019081526020016000206000015410158015610ba35750600760003373ffffffffffffffffffffffffffffffffffffffff1673ffffffffffffffffffffffffffffffffffffffff16815260200190815260200160002060010160009054906101000a900460ff165b1515610bfa576040517f08c379a000000000000000000000000000000000000000000000000000000000815260040180806020018281038252602581526020018061320e6025913960400191505060405180910390fd5b8060098054905081101515610c77576040517f08c379a00000000000000000000000000000000000000000000000000000000081526004018080602001828103825260148152602001807f496e64657820646f6573206e6f7420657869737400000000000000000000000081525060200191505060405180910390fd5b600981815481101515610c8657fe5b9060005260206000209060050201600401544211151515610d0f576040517f08c379a00000000000000000000000000000000000000000000000000000000081526004018080602001828103825260178152602001807f54686520646561646c696e65206861732070617373656400000000000000000081525060200191505060405180910390fd5b60001515600982815481101515610d2257fe5b906000526020600020906005020160010160009054906101000a900460ff161515141515610d9b576040517f08c379a00000000000000000000000000000000000000000000000000000000081526004018080602001828103825260258152602001806132556025913960400191505060405180910390fd5b610db16002600654612b9e90919063ffffffff16565b600983815481101515610dc057fe5b906000526020600020906005020160020154111515610e47576040517f08c379a000000000000000000000000000000000000000000000000000000000815260040180806020018281038252601a8152602001807f566f74696e67207374616b65206973206e6f7420656e6f75676800000000000081525060200191505060405180910390fd5b6001600983815481101515610e5857fe5b906000526020600020906005020160010160006101000a81548160ff021916908315150217905550600982815481101515610e8f57fe5b9060005260206000209060050201600001546005819055505050565b6000610eb8848484612bc8565b610f518433610f4c85600160008a73ffffffffffffffffffffffffffffffffffffffff1673ffffffffffffffffffffffffffffffffffffffff16815260200190815260200160002060003373ffffffffffffffffffffffffffffffffffffffff1673ffffffffffffffffffffffffffffffffffffffff16815260200190815260200160002054612d9490919063ffffffff16565b612a3b565b600190509392505050565b600581565b6000610ffc3384610ff785600160003373ffffffffffffffffffffffffffffffffffffffff1673ffffffffffffffffffffffffffffffffffffffff16815260200190815260200160002060008973ffffffffffffffffffffffffffffffffffffffff1673ffffffffffffffffffffffffffffffffffffffff16815260200190815260200160002054612db690919063ffffffff16565b612a3b565b6001905092915050565b60006001600760003373ffffffffffffffffffffffffffffffffffffffff1673ffffffffffffffffffffffffffffffffffffffff16815260200190815260200160002060010160006101000a81548160ff02191690831515021790555060006110ba83600760003373ffffffffffffffffffffffffffffffffffffffff1673ffffffffffffffffffffffffffffffffffffffff16815260200190815260200160002060000154612db690919063ffffffff16565b90506005548110151515611136576040517f08c379a000000000000000000000000000000000000000000000000000000000815260040180806020018281038252601b8152602001807f5374616b656420616d6f756e74206973206e6f7420656e6f756768000000000081525060200191505060405180910390fd5b6111403084611b26565b5061115683600654612db690919063ffffffff16565b60068190555080600760003373ffffffffffffffffffffffffffffffffffffffff1673ffffffffffffffffffffffffffffffffffffffff1681526020019081526020016000206000018190555050919050565b6009818154811015156111b857fe5b90600052602060002090600502016000915090508060000154908060010160009054906101000a900460ff16908060010160019054906101000a900473ffffffffffffffffffffffffffffffffffffffff16908060020154908060040154905085565b6000600760003373ffffffffffffffffffffffffffffffffffffffff1673ffffffffffffffffffffffffffffffffffffffff168152602001908152602001600020600001541115156112b8576040517f08c379a00000000000000000000000000000000000000000000000000000000081526004018080602001828103825260228152602001806132336022913960400191505060405180910390fd5b60001515600760003373ffffffffffffffffffffffffffffffffffffffff1673ffffffffffffffffffffffffffffffffffffffff16815260200190815260200160002060010160009054906101000a900460ff16151514156113225761131d33612dd7565b6115d1565b6000600760003373ffffffffffffffffffffffffffffffffffffffff1673ffffffffffffffffffffffffffffffffffffffff16815260200190815260200160002060010160019054906101000a900461ffff1661ffff161115156113ee576040517f08c379a000000000000000000000000000000000000000000000000000000000815260040180806020018281038252601e8152602001807f52657175657374207374616b65207769746864726177616c206669727374000081525060200191505060405180910390fd5b6114046002600654612b9e90919063ffffffff16565b600760003373ffffffffffffffffffffffffffffffffffffffff1673ffffffffffffffffffffffffffffffffffffffff16815260200190815260200160002060000154600760003373ffffffffffffffffffffffffffffffffffffffff1673ffffffffffffffffffffffffffffffffffffffff1681526020019081526020016000206002016000600760003373ffffffffffffffffffffffffffffffffffffffff1673ffffffffffffffffffffffffffffffffffffffff16815260200190815260200160002060010160019054906101000a900461ffff1661ffff1661ffff16815260200190815260200160002054011015151561156a576040517f08c379a000000000000000000000000000000000000000000000000000000000815260040180806020018281038252601a8152602001807f566f74696e67207374616b65206973206e6f7420656e6f75676800000000000081525060200191505060405180910390fd5b6115c1600760003373ffffffffffffffffffffffffffffffffffffffff1673ffffffffffffffffffffffffffffffffffffffff16815260200190815260200160002060000154600654612d9490919063ffffffff16565b6006819055506115d033612dd7565b5b565b6000600760003373ffffffffffffffffffffffffffffffffffffffff1673ffffffffffffffffffffffffffffffffffffffff16815260200190815260200160002060000154111515611670576040517f08c379a00000000000000000000000000000000000000000000000000000000081526004018080602001828103825260228152602001806132336022913960400191505060405180910390fd5b61ffff600760003373ffffffffffffffffffffffffffffffffffffffff1673ffffffffffffffffffffffffffffffffffffffff16815260200190815260200160002060010160019054906101000a900461ffff1661ffff161415151561173e576040517f08c379a000000000000000000000000000000000000000000000000000000000815260040180806020018281038252601b8152602001807f5769746864726177616c2072657175657374206465706c65746564000000000081525060200191505060405180910390fd5b6001600760003373ffffffffffffffffffffffffffffffffffffffff1673ffffffffffffffffffffffffffffffffffffffff16815260200190815260200160002060010160019054906101000a900461ffff1601600760003373ffffffffffffffffffffffffffffffffffffffff1673ffffffffffffffffffffffffffffffffffffffff16815260200190815260200160002060010160016101000a81548161ffff021916908361ffff160217905550565b60008060008373ffffffffffffffffffffffffffffffffffffffff1673ffffffffffffffffffffffffffffffffffffffff168152602001908152602001600020549050919050565b611840611981565b151561184b57600080fd5b600073ffffffffffffffffffffffffffffffffffffffff16600360009054906101000a900473ffffffffffffffffffffffffffffffffffffffff1673ffffffffffffffffffffffffffffffffffffffff167f8be0079c531659141344cd1fd0a4f28419497f9722a3daafe3b4186f6b6457e060405160405180910390a36000600360006101000a81548173ffffffffffffffffffffffffffffffffffffffff021916908373ffffffffffffffffffffffffffffffffffffffff160217905550565b60076020528060005260406000206000915090508060000154908060010160009054906101000a900460ff16908060010160019054906101000a900461ffff16905083565b60065481565b6000600360009054906101000a900473ffffffffffffffffffffffffffffffffffffffff16905090565b6000600360009054906101000a900473ffffffffffffffffffffffffffffffffffffffff1673ffffffffffffffffffffffffffffffffffffffff163373ffffffffffffffffffffffffffffffffffffffff1614905090565b60048054600181600116156101000203166002900480601f016020809104026020016040519081016040528092919081815260200182805460018160011615610100020316600290048015611a6f5780601f10611a4457610100808354040283529160200191611a6f565b820191906000526020600020905b815481529060010190602001808311611a5257829003601f168201915b505050505081565b6000600554905090565b6000611b1c3384611b1785600160003373ffffffffffffffffffffffffffffffffffffffff1673ffffffffffffffffffffffffffffffffffffffff16815260200190815260200160002060008973ffffffffffffffffffffffffffffffffffffffff1673ffffffffffffffffffffffffffffffffffffffff16815260200190815260200160002054612d9490919063ffffffff16565b612a3b565b6001905092915050565b6000611b33338484612bc8565b6001905092915050565b60086020528060005260406000206000915090508060000160009054906101000a900461ffff16905081565b600554600760003373ffffffffffffffffffffffffffffffffffffffff1673ffffffffffffffffffffffffffffffffffffffff1681526020019081526020016000206000015410158015611c095750600760003373ffffffffffffffffffffffffffffffffffffffff1673ffffffffffffffffffffffffffffffffffffffff16815260200190815260200160002060010160009054906101000a900460ff165b1515611c60576040517f08c379a000000000000000000000000000000000000000000000000000000000815260040180806020018281038252602581526020018061320e6025913960400191505060405180910390fd5b3373ffffffffffffffffffffffffffffffffffffffff168273ffffffffffffffffffffffffffffffffffffffff1614151515611ce7576040517f08c379a000000000000000000000000000000000000000000000000000000000815260040180806020018281038252604e81526020018061327a604e913960600191505060405180910390fd5b60008161ffff16111515611d63576040517f08c379a000000000000000000000000000000000000000000000000000000000815260040180806020018281038252601c8152602001807f496e646578206d7573742062652067726561746572207468616e20300000000081525060200191505060405180910390fd5b8061ffff16600760008473ffffffffffffffffffffffffffffffffffffffff1673ffffffffffffffffffffffffffffffffffffffff16815260200190815260200160002060010160019054906101000a900461ffff1661ffff16141515611e15576040517f08c379a00000000000000000000000000000000000000000000000000000000081526004018080602001828103825260268152602001806131e86026913960400191505060405180910390fd5b60008133604051602001808361ffff1661ffff1681526020018273ffffffffffffffffffffffffffffffffffffffff1673ffffffffffffffffffffffffffffffffffffffff1681526020019250505060405160208183030381529060405280519060200120905060001515600760008573ffffffffffffffffffffffffffffffffffffffff1673ffffffffffffffffffffffffffffffffffffffff168152602001908152602001600020600301600083815260200190815260200160002060009054906101000a900460ff161515141515611f58576040517f08c379a00000000000000000000000000000000000000000000000000000000081526004018080602001828103825260158152602001807f596f752063616e6e6f7420766f7465207477696365000000000000000000000081525060200191505060405180910390fd5b612008600760003373ffffffffffffffffffffffffffffffffffffffff1673ffffffffffffffffffffffffffffffffffffffff16815260200190815260200160002060000154600760008673ffffffffffffffffffffffffffffffffffffffff1673ffffffffffffffffffffffffffffffffffffffff16815260200190815260200160002060020160008561ffff1661ffff16815260200190815260200160002054612db690919063ffffffff16565b600760008573ffffffffffffffffffffffffffffffffffffffff1673ffffffffffffffffffffffffffffffffffffffff16815260200190815260200160002060020160008461ffff1661ffff168152602001908152602001600020819055506001600760008573ffffffffffffffffffffffffffffffffffffffff1673ffffffffffffffffffffffffffffffffffffffff168152602001908152602001600020600301600083815260200190815260200160002060006101000a81548160ff021916908315150217905550505050565b600554600760003373ffffffffffffffffffffffffffffffffffffffff1673ffffffffffffffffffffffffffffffffffffffff16815260200190815260200160002060000154101580156121785750600760003373ffffffffffffffffffffffffffffffffffffffff1673ffffffffffffffffffffffffffffffffffffffff16815260200190815260200160002060010160009054906101000a900460ff165b15156121cf576040517f08c379a000000000000000000000000000000000000000000000000000000000815260040180806020018281038252602581526020018061320e6025913960400191505060405180910390fd5b6121d761319f565b60a0604051908101604052808381526020016000151581526020013373ffffffffffffffffffffffffffffffffffffffff168152602001600760003373ffffffffffffffffffffffffffffffffffffffff1673ffffffffffffffffffffffffffffffffffffffff1681526020019081526020016000206000015481526020016201518042018152509050600981908060018154018082558091505090600182039060005260206000209060050201600090919290919091506000820151816000015560208201518160010160006101000a81548160ff02191690831515021790555060408201518160010160016101000a81548173ffffffffffffffffffffffffffffffffffffffff021916908373ffffffffffffffffffffffffffffffffffffffff16021790555060608201518160020155608082015181600401555050505050565b655af3107a400081565b60055481565b6000600160008473ffffffffffffffffffffffffffffffffffffffff1673ffffffffffffffffffffffffffffffffffffffff16815260200190815260200160002060008373ffffffffffffffffffffffffffffffffffffffff1673ffffffffffffffffffffffffffffffffffffffff16815260200190815260200160002054905092915050565b600554600760003373ffffffffffffffffffffffffffffffffffffffff1673ffffffffffffffffffffffffffffffffffffffff16815260200190815260200160002060000154101580156124525750600760003373ffffffffffffffffffffffffffffffffffffffff1673ffffffffffffffffffffffffffffffffffffffff16815260200190815260200160002060010160009054906101000a900460ff165b15156124a9576040517f08c379a000000000000000000000000000000000000000000000000000000000815260040180806020018281038252602581526020018061320e6025913960400191505060405180910390fd5b655af3107a4000816124b9610af9565b0110156124cb576124ca8282612f4f565b5b5050565b600554600760003373ffffffffffffffffffffffffffffffffffffffff1673ffffffffffffffffffffffffffffffffffffffff168152602001908152602001600020600001541015801561256f5750600760003373ffffffffffffffffffffffffffffffffffffffff1673ffffffffffffffffffffffffffffffffffffffff16815260200190815260200160002060010160009054906101000a900460ff165b15156125c6576040517f08c379a000000000000000000000000000000000000000000000000000000000815260040180806020018281038252602581526020018061320e6025913960400191505060405180910390fd5b8060098054905081101515612643576040517f08c379a00000000000000000000000000000000000000000000000000000000081526004018080602001828103825260148152602001807f496e64657820646f6573206e6f7420657869737400000000000000000000000081525060200191505060405180910390fd5b60098181548110151561265257fe5b90600052602060002090600502016004015442111515156126db576040517f08c379a00000000000000000000000000000000000000000000000000000000081526004018080602001828103825260178152602001807f54686520646561646c696e65206861732070617373656400000000000000000081525060200191505060405180910390fd5b600015156009828154811015156126ee57fe5b906000526020600020906005020160010160009054906101000a900460ff161515141515612767576040517f08c379a00000000000000000000000000000000000000000000000000000000081526004018080602001828103825260258152602001806132556025913960400191505060405180910390fd5b60098281548110151561277657fe5b906000526020600020906005020160030160003373ffffffffffffffffffffffffffffffffffffffff1673ffffffffffffffffffffffffffffffffffffffff16815260200190815260200160002060009054906101000a900460ff1615801561284b57506009828154811015156127e957fe5b906000526020600020906005020160010160019054906101000a900473ffffffffffffffffffffffffffffffffffffffff1673ffffffffffffffffffffffffffffffffffffffff163373ffffffffffffffffffffffffffffffffffffffff1614155b15156128bf576040517f08c379a00000000000000000000000000000000000000000000000000000000081526004018080602001828103825260158152602001807f596f752063616e6e6f7420766f7465207477696365000000000000000000000081525060200191505060405180910390fd5b60016009838154811015156128d057fe5b906000526020600020906005020160030160003373ffffffffffffffffffffffffffffffffffffffff1673ffffffffffffffffffffffffffffffffffffffff16815260200190815260200160002060006101000a81548160ff0219169083151502179055506129aa600760003373ffffffffffffffffffffffffffffffffffffffff1673ffffffffffffffffffffffffffffffffffffffff1681526020019081526020016000206000015460098481548110151561298a57fe5b906000526020600020906005020160020154612db690919063ffffffff16565b6009838154811015156129b957fe5b9060005260206000209060050201600201819055505050565b6129da611981565b15156129e557600080fd5b6129ee816130a3565b50565b6000600760003373ffffffffffffffffffffffffffffffffffffffff1673ffffffffffffffffffffffffffffffffffffffff16815260200190815260200160002060000154905090565b600073ffffffffffffffffffffffffffffffffffffffff168273ffffffffffffffffffffffffffffffffffffffff1614151515612a7757600080fd5b600073ffffffffffffffffffffffffffffffffffffffff168373ffffffffffffffffffffffffffffffffffffffff1614151515612ab357600080fd5b80600160008573ffffffffffffffffffffffffffffffffffffffff1673ffffffffffffffffffffffffffffffffffffffff16815260200190815260200160002060008473ffffffffffffffffffffffffffffffffffffffff1673ffffffffffffffffffffffffffffffffffffffff168152602001908152602001600020819055508173ffffffffffffffffffffffffffffffffffffffff168373ffffffffffffffffffffffffffffffffffffffff167f8c5be1e5ebec7d5bd14f71427d1e84f3dd0314c0f7b2291e5b200ac8c7c3b925836040518082815260200191505060405180910390a3505050565b60008082111515612bae57600080fd5b60008284811515612bbb57fe5b0490508091505092915050565b600073ffffffffffffffffffffffffffffffffffffffff168273ffffffffffffffffffffffffffffffffffffffff1614151515612c0457600080fd5b612c55816000808673ffffffffffffffffffffffffffffffffffffffff1673ffffffffffffffffffffffffffffffffffffffff16815260200190815260200160002054612d9490919063ffffffff16565b6000808573ffffffffffffffffffffffffffffffffffffffff1673ffffffffffffffffffffffffffffffffffffffff16815260200190815260200160002081905550612ce8816000808573ffffffffffffffffffffffffffffffffffffffff1673ffffffffffffffffffffffffffffffffffffffff16815260200190815260200160002054612db690919063ffffffff16565b6000808473ffffffffffffffffffffffffffffffffffffffff1673ffffffffffffffffffffffffffffffffffffffff168152602001908152602001600020819055508173ffffffffffffffffffffffffffffffffffffffff168373ffffffffffffffffffffffffffffffffffffffff167fddf252ad1be2c89b69c2b068fc378daa952ba7f163c4a11628f55a4df523b3ef836040518082815260200191505060405180910390a3505050565b6000828211151515612da557600080fd5b600082840390508091505092915050565b6000808284019050838110151515612dcd57600080fd5b8091505092915050565b6000600760008373ffffffffffffffffffffffffffffffffffffffff1673ffffffffffffffffffffffffffffffffffffffff1681526020019081526020016000206000015490506000600760008473ffffffffffffffffffffffffffffffffffffffff1673ffffffffffffffffffffffffffffffffffffffff1681526020019081526020016000206000018190555060003090508073ffffffffffffffffffffffffffffffffffffffff1663a9059cbb84846040518363ffffffff167c0100000000000000000000000000000000000000000000000000000000028152600401808373ffffffffffffffffffffffffffffffffffffffff1673ffffffffffffffffffffffffffffffffffffffff16815260200182815260200192505050602060405180830381600087803b158015612f0e57600080fd5b505af1158015612f22573d6000803e3d6000fd5b505050506040513d6020811015612f3857600080fd5b810190808051906020019092919050505050505050565b600073ffffffffffffffffffffffffffffffffffffffff168273ffffffffffffffffffffffffffffffffffffffff1614151515612f8b57600080fd5b612fa081600254612db690919063ffffffff16565b600281905550612ff7816000808573ffffffffffffffffffffffffffffffffffffffff1673ffffffffffffffffffffffffffffffffffffffff16815260200190815260200160002054612db690919063ffffffff16565b6000808473ffffffffffffffffffffffffffffffffffffffff1673ffffffffffffffffffffffffffffffffffffffff168152602001908152602001600020819055508173ffffffffffffffffffffffffffffffffffffffff16600073ffffffffffffffffffffffffffffffffffffffff167fddf252ad1be2c89b69c2b068fc378daa952ba7f163c4a11628f55a4df523b3ef836040518082815260200191505060405180910390a35050565b600073ffffffffffffffffffffffffffffffffffffffff168173ffffffffffffffffffffffffffffffffffffffff16141515156130df57600080fd5b8073ffffffffffffffffffffffffffffffffffffffff16600360009054906101000a900473ffffffffffffffffffffffffffffffffffffffff1673ffffffffffffffffffffffffffffffffffffffff167f8be0079c531659141344cd1fd0a4f28419497f9722a3daafe3b4186f6b6457e060405160405180910390a380600360006101000a81548173ffffffffffffffffffffffffffffffffffffffff021916908373ffffffffffffffffffffffffffffffffffffffff16021790555050565b60a06040519081016040528060008152602001600015158152602001600073ffffffffffffffffffffffffffffffffffffffff1681526020016000815260200160008152509056fe496e646578206d75737420626520657175616c20746f2063757272656e74207265717565737443616c6c6572206d7573742062652070617274206f66207468652066656465726174696f6e5468657265206973206e6f207374616b6520666f7220746869732061646472657373546869732062616c6c6f742068617320616c7265616479206265656e20617070726f766564596f757220766f7465732077696c6c206265206175746f6d61746963616c6c79206164646564207768656e20796f752063616c6c2066656465726174696f6e5374616b6557697468647261772829a165627a7a7230582083309d62ddca7dd4b4cc787c1412fd5eebcb4f961c4c5a27a2ebcd710fe198cd0029",
  "source": "pragma solidity ^0.5.2;\n\nimport \"openzeppelin-solidity/contracts/token/ERC20/ERC20.sol\";\nimport \"openzeppelin-solidity/contracts/token/ERC20/ERC20.sol\";\nimport \"openzeppelin-solidity/contracts/ownership/Ownable.sol\";\nimport \"./GeoDBClasses.sol\";\n\n/**\n* @title GeoDB ERC20 Token\n*/\ncontract GeoDB is GeoDBClasses, ERC20, Ownable{\n\n  // Contract constants\n\n  uint256 constant public maxSupply = 100000000000000;\n  uint32 constant public decimals = 5;\n  string constant public name = \"GeoDB Token\";\n  string public symbol = \"GEO\";\n\n\n  // Federation\n\n  uint256 public federationMinimumStake;\n  uint256 public totalStake;\n\n  mapping(address => FederationStake) public federationStakes;\n  mapping(address => FederationJoinBallot) public federationJoinBallots;\n  FederationStakingBallot[] public federationStakingBallots;\n\n  constructor() public {\n    _mint(msg.sender, 10000000000000); // Team allocation\n\n    federationMinimumStake = 100000; // Initial minimum stake: 1 GEO\n\n    // Initial stake given to the owner\n    _mint(address(this), federationMinimumStake);\n    federationStakes[msg.sender].approved = true;\n    totalStake = totalStake.add(federationMinimumStake);\n    federationStakes[msg.sender].stake = federationMinimumStake;\n\n  }\n\n  function getCurrentFederationStakeRequirement() public view returns (uint256){\n    return federationMinimumStake;\n  }\n\n  function federationStakeLock(uint256 amount) public returns (uint256){\n\n    federationStakes[msg.sender].approved = true; // Delete when voting to join federation is available\n\n    uint256 summedStakes = federationStakes[msg.sender].stake.add(amount);\n    require(summedStakes >= federationMinimumStake, \"Staked amount is not enough\");\n    transfer(address(this), amount);\n    totalStake = totalStake.add(amount);\n    federationStakes[msg.sender].stake = summedStakes;\n  }\n\n  function federationStakeWithdraw() public callerMustHaveStake {\n\n    if(federationStakes[msg.sender].approved == false){\n      withdrawStake(msg.sender);\n      return;\n    }\n\n    require(federationStakes[msg.sender].releaseRequestIndex > 0, \"Request stake withdrawal first\");\n    require(\n       federationStakes[msg.sender].withdrawApprovals[federationStakes[msg.sender].releaseRequestIndex]\n       + federationStakes[msg.sender].stake\n       >= totalStake.div(2), \"Voting stake is not enough\"\n     );\n\n    totalStake = totalStake.sub(federationStakes[msg.sender].stake);\n    withdrawStake(msg.sender);\n  }\n\n  function withdrawStake(address addr) internal {\n    uint256 stake = federationStakes[addr].stake;\n    federationStakes[addr].stake = 0;\n    GeoDB selfReference = GeoDB(address(this));\n    selfReference.transfer(addr, stake);\n  }\n\n  function getStake() public view returns(uint256){\n    return federationStakes[msg.sender].stake;\n  }\n\n  function requestStakeWithdrawal() public callerMustHaveStake {\n    require(federationStakes[msg.sender].releaseRequestIndex != 65535, \"Withdrawal request depleted\");\n    federationStakes[msg.sender].releaseRequestIndex = federationStakes[msg.sender].releaseRequestIndex + 1;\n  }\n\n  function voteStakeWithdrawalRequest(address addr, uint16 index) public callerMustBeFederated() {\n    require(addr != msg.sender, \"Your votes will be automatically added when you call federationStakeWithdraw()\");\n    require(index > 0, \"Index must be greater than 0\");\n    require(federationStakes[addr].releaseRequestIndex == index, \"Index must be equal to current request\");\n    bytes32 withdrawApprover = keccak256(abi.encode(index, msg.sender));\n    require(federationStakes[addr].withdrawApprovers[withdrawApprover] == false, \"You cannot vote twice\");\n\n    federationStakes[addr].withdrawApprovals[index] = federationStakes[addr].withdrawApprovals[index].add(federationStakes[msg.sender].stake);\n    federationStakes[addr].withdrawApprovers[withdrawApprover] = true;\n\n\n  }\n\n  function newStakingBallot(uint256 stake) public callerMustBeFederated() {\n\n    FederationStakingBallot memory ballot = FederationStakingBallot({\n      stake: stake,\n      approved: false,\n      proposer: msg.sender,\n      approvals: federationStakes[msg.sender].stake,\n      deadline: (block.timestamp + 1 days)\n    });\n\n    federationStakingBallots.push(ballot);\n  }\n\n  function voteStakingBallot(uint256 index) public callerMustBeFederated stakingBallotIsValid(index) {\n    require(!federationStakingBallots[index].approvers[msg.sender] && msg.sender != federationStakingBallots[index].proposer, \"You cannot vote twice\");\n    federationStakingBallots[index].approvers[msg.sender] = true;\n    federationStakingBallots[index].approvals = federationStakingBallots[index].approvals.add(federationStakes[msg.sender].stake);\n  }\n\n  function resolveStakingBallot(uint256 index) public callerMustBeFederated() stakingBallotIsValid(index){\n    require(federationStakingBallots[index].approvals >\n      totalStake.div(2),\n      \"Voting stake is not enough\"\n    );\n\n    federationStakingBallots[index].approved = true;\n    federationMinimumStake = federationStakingBallots[index].stake;\n\n  }\n\n  function getStakingBallotsCount() public view returns (uint256){\n    return federationStakingBallots.length;\n  }\n\n  function releaseRewards(address userAddress, uint256 reward) public callerMustBeFederated() {\n    if(totalSupply() + reward < maxSupply){\n      _mint(userAddress, reward);\n    }\n  }\n\n  modifier callerMustHaveStake() {\n    require(federationStakes[msg.sender].stake > 0, \"There is no stake for this address\");\n    _;\n  }\n\n  modifier callerMustBeFederated() {\n    require(federationStakes[msg.sender].stake >= federationMinimumStake\n      && federationStakes[msg.sender].approved,\n      \"Caller must be part of the federation\");\n    _;\n  }\n\n  modifier stakingBallotIsValid(uint256 index){\n    require(index < federationStakingBallots.length, \"Index does not exist\");\n    require(now <= federationStakingBallots[index].deadline, \"The deadline has passed\");\n    require(federationStakingBallots[index].approved == false, \"This ballot has already been approved\"); // Untested\n    _;\n  }\n\n}\n",
  "sourcePath": "/home/mad/geodb/fabric/ethereum/contracts/GeoDB.sol",
  "compiler": {
    "name": "solc",
    "version": "0.5.2+commit.1df8f40c.Emscripten.clang"
  },
  "schemaVersion": "3.0.9",
  "updatedAt": "2019-05-13T12:44:18.579Z",
  "devdoc": {
    "methods": {
      "allowance(address,address)": {
        "details": "Function to check the amount of tokens that an owner allowed to a spender.",
        "params": {
          "owner": "address The address which owns the funds.",
          "spender": "address The address which will spend the funds."
        },
        "return": "A uint256 specifying the amount of tokens still available for the spender."
      },
      "approve(address,uint256)": {
        "details": "Approve the passed address to spend the specified amount of tokens on behalf of msg.sender. Beware that changing an allowance with this method brings the risk that someone may use both the old and the new allowance by unfortunate transaction ordering. One possible solution to mitigate this race condition is to first reduce the spender's allowance to 0 and set the desired value afterwards: https://github.com/ethereum/EIPs/issues/20#issuecomment-263524729",
        "params": {
          "spender": "The address which will spend the funds.",
          "value": "The amount of tokens to be spent."
        }
      },
      "balanceOf(address)": {
        "details": "Gets the balance of the specified address.",
        "params": {
          "owner": "The address to query the balance of."
        },
        "return": "A uint256 representing the amount owned by the passed address."
      },
      "decreaseAllowance(address,uint256)": {
        "details": "Decrease the amount of tokens that an owner allowed to a spender. approve should be called when _allowed[msg.sender][spender] == 0. To decrement allowed value is better to use this function to avoid 2 calls (and wait until the first transaction is mined) From MonolithDAO Token.sol Emits an Approval event.",
        "params": {
          "spender": "The address which will spend the funds.",
          "subtractedValue": "The amount of tokens to decrease the allowance by."
        }
      },
      "increaseAllowance(address,uint256)": {
        "details": "Increase the amount of tokens that an owner allowed to a spender. approve should be called when _allowed[msg.sender][spender] == 0. To increment allowed value is better to use this function to avoid 2 calls (and wait until the first transaction is mined) From MonolithDAO Token.sol Emits an Approval event.",
        "params": {
          "addedValue": "The amount of tokens to increase the allowance by.",
          "spender": "The address which will spend the funds."
        }
      },
      "isOwner()": {
        "return": "true if `msg.sender` is the owner of the contract."
      },
      "owner()": {
        "return": "the address of the owner."
      },
      "renounceOwnership()": {
        "details": "Allows the current owner to relinquish control of the contract. It will not be possible to call the functions with the `onlyOwner` modifier anymore."
      },
      "totalSupply()": {
        "details": "Total number of tokens in existence"
      },
      "transfer(address,uint256)": {
        "details": "Transfer token to a specified address",
        "params": {
          "to": "The address to transfer to.",
          "value": "The amount to be transferred."
        }
      },
      "transferFrom(address,address,uint256)": {
        "details": "Transfer tokens from one address to another. Note that while this function emits an Approval event, this is not required as per the specification, and other compliant implementations may not emit the event.",
        "params": {
          "from": "address The address which you want to send tokens from",
          "to": "address The address which you want to transfer to",
          "value": "uint256 the amount of tokens to be transferred"
        }
      },
      "transferOwnership(address)": {
        "details": "Allows the current owner to transfer control of the contract to a newOwner.",
        "params": {
          "newOwner": "The address to transfer ownership to."
        }
      }
    },
    "title": "GeoDB ERC20 Token"
  },
  "userdoc": {
    "methods": {
      "renounceOwnership()": {
        "notice": "Renouncing ownership will leave the contract without an owner, thereby removing any functionality that is only available to the owner."
      }
    }
  }
}