{
  "contractName": "GeoDB",
  "abi": [
    {
      "constant": true,
      "inputs": [],
      "name": "name",
      "outputs": [
        {
          "name": "",
          "type": "string"
        }
      ],
      "payable": false,
      "stateMutability": "view",
      "type": "function"
    },
    {
      "constant": false,
      "inputs": [
        {
          "name": "spender",
          "type": "address"
        },
        {
          "name": "value",
          "type": "uint256"
        }
      ],
      "name": "approve",
      "outputs": [
        {
          "name": "",
          "type": "bool"
        }
      ],
      "payable": false,
      "stateMutability": "nonpayable",
      "type": "function"
    },
    {
      "constant": true,
      "inputs": [],
      "name": "totalSupply",
      "outputs": [
        {
          "name": "",
          "type": "uint256"
        }
      ],
      "payable": false,
      "stateMutability": "view",
      "type": "function"
    },
    {
      "constant": false,
      "inputs": [
        {
          "name": "from",
          "type": "address"
        },
        {
          "name": "to",
          "type": "address"
        },
        {
          "name": "value",
          "type": "uint256"
        }
      ],
      "name": "transferFrom",
      "outputs": [
        {
          "name": "",
          "type": "bool"
        }
      ],
      "payable": false,
      "stateMutability": "nonpayable",
      "type": "function"
    },
    {
      "constant": true,
      "inputs": [],
      "name": "decimals",
      "outputs": [
        {
          "name": "",
          "type": "uint32"
        }
      ],
      "payable": false,
      "stateMutability": "view",
      "type": "function"
    },
    {
      "constant": false,
      "inputs": [
        {
          "name": "spender",
          "type": "address"
        },
        {
          "name": "addedValue",
          "type": "uint256"
        }
      ],
      "name": "increaseAllowance",
      "outputs": [
        {
          "name": "",
          "type": "bool"
        }
      ],
      "payable": false,
      "stateMutability": "nonpayable",
      "type": "function"
    },
    {
      "constant": false,
      "inputs": [
        {
          "name": "value",
          "type": "uint256"
        }
      ],
      "name": "burn",
      "outputs": [],
      "payable": false,
      "stateMutability": "nonpayable",
      "type": "function"
    },
    {
      "constant": true,
      "inputs": [
        {
          "name": "",
          "type": "uint256"
        }
      ],
      "name": "federationStakingBallots",
      "outputs": [
        {
          "name": "stake",
          "type": "uint256"
        },
        {
          "name": "approved",
          "type": "bool"
        },
        {
          "name": "proposer",
          "type": "address"
        },
        {
          "name": "approvals",
          "type": "uint256"
        },
        {
          "name": "deadline",
          "type": "uint256"
        }
      ],
      "payable": false,
      "stateMutability": "view",
      "type": "function"
    },
    {
      "constant": true,
      "inputs": [
        {
          "name": "owner",
          "type": "address"
        }
      ],
      "name": "balanceOf",
      "outputs": [
        {
          "name": "",
          "type": "uint256"
        }
      ],
      "payable": false,
      "stateMutability": "view",
      "type": "function"
    },
    {
      "constant": false,
      "inputs": [],
      "name": "renounceOwnership",
      "outputs": [],
      "payable": false,
      "stateMutability": "nonpayable",
      "type": "function"
    },
    {
      "constant": false,
      "inputs": [
        {
          "name": "from",
          "type": "address"
        },
        {
          "name": "value",
          "type": "uint256"
        }
      ],
      "name": "burnFrom",
      "outputs": [],
      "payable": false,
      "stateMutability": "nonpayable",
      "type": "function"
    },
    {
      "constant": true,
      "inputs": [
        {
          "name": "",
          "type": "address"
        }
      ],
      "name": "federationStakes",
      "outputs": [
        {
          "name": "stake",
          "type": "uint256"
        },
        {
          "name": "approved",
          "type": "bool"
        },
        {
          "name": "releaseRequestIndex",
          "type": "uint256"
        }
      ],
      "payable": false,
      "stateMutability": "view",
      "type": "function"
    },
    {
      "constant": true,
      "inputs": [],
      "name": "totalStake",
      "outputs": [
        {
          "name": "",
          "type": "uint256"
        }
      ],
      "payable": false,
      "stateMutability": "view",
      "type": "function"
    },
    {
      "constant": true,
      "inputs": [],
      "name": "owner",
      "outputs": [
        {
          "name": "",
          "type": "address"
        }
      ],
      "payable": false,
      "stateMutability": "view",
      "type": "function"
    },
    {
      "constant": true,
      "inputs": [],
      "name": "isOwner",
      "outputs": [
        {
          "name": "",
          "type": "bool"
        }
      ],
      "payable": false,
      "stateMutability": "view",
      "type": "function"
    },
    {
      "constant": true,
      "inputs": [],
      "name": "symbol",
      "outputs": [
        {
          "name": "",
          "type": "string"
        }
      ],
      "payable": false,
      "stateMutability": "view",
      "type": "function"
    },
    {
      "constant": false,
      "inputs": [
        {
          "name": "spender",
          "type": "address"
        },
        {
          "name": "subtractedValue",
          "type": "uint256"
        }
      ],
      "name": "decreaseAllowance",
      "outputs": [
        {
          "name": "",
          "type": "bool"
        }
      ],
      "payable": false,
      "stateMutability": "nonpayable",
      "type": "function"
    },
    {
      "constant": false,
      "inputs": [
        {
          "name": "to",
          "type": "address"
        },
        {
          "name": "value",
          "type": "uint256"
        }
      ],
      "name": "transfer",
      "outputs": [
        {
          "name": "",
          "type": "bool"
        }
      ],
      "payable": false,
      "stateMutability": "nonpayable",
      "type": "function"
    },
    {
      "constant": true,
      "inputs": [
        {
          "name": "",
          "type": "address"
        }
      ],
      "name": "federationJoinBallots",
      "outputs": [
        {
          "name": "requestIndex",
          "type": "uint256"
        }
      ],
      "payable": false,
      "stateMutability": "view",
      "type": "function"
    },
    {
      "constant": true,
      "inputs": [],
      "name": "maxSupply",
      "outputs": [
        {
          "name": "",
          "type": "uint256"
        }
      ],
      "payable": false,
      "stateMutability": "view",
      "type": "function"
    },
    {
      "constant": true,
      "inputs": [],
      "name": "federationMinimumStake",
      "outputs": [
        {
          "name": "",
          "type": "uint256"
        }
      ],
      "payable": false,
      "stateMutability": "view",
      "type": "function"
    },
    {
      "constant": true,
      "inputs": [
        {
          "name": "owner",
          "type": "address"
        },
        {
          "name": "spender",
          "type": "address"
        }
      ],
      "name": "allowance",
      "outputs": [
        {
          "name": "",
          "type": "uint256"
        }
      ],
      "payable": false,
      "stateMutability": "view",
      "type": "function"
    },
    {
      "constant": false,
      "inputs": [
        {
          "name": "newOwner",
          "type": "address"
        }
      ],
      "name": "transferOwnership",
      "outputs": [],
      "payable": false,
      "stateMutability": "nonpayable",
      "type": "function"
    },
    {
      "inputs": [],
      "payable": false,
      "stateMutability": "nonpayable",
      "type": "constructor"
    },
    {
      "anonymous": false,
      "inputs": [
        {
          "indexed": true,
          "name": "previousOwner",
          "type": "address"
        },
        {
          "indexed": true,
          "name": "newOwner",
          "type": "address"
        }
      ],
      "name": "OwnershipTransferred",
      "type": "event"
    },
    {
      "anonymous": false,
      "inputs": [
        {
          "indexed": true,
          "name": "from",
          "type": "address"
        },
        {
          "indexed": true,
          "name": "to",
          "type": "address"
        },
        {
          "indexed": false,
          "name": "value",
          "type": "uint256"
        }
      ],
      "name": "Transfer",
      "type": "event"
    },
    {
      "anonymous": false,
      "inputs": [
        {
          "indexed": true,
          "name": "owner",
          "type": "address"
        },
        {
          "indexed": true,
          "name": "spender",
          "type": "address"
        },
        {
          "indexed": false,
          "name": "value",
          "type": "uint256"
        }
      ],
      "name": "Approval",
      "type": "event"
    },
    {
      "constant": true,
      "inputs": [],
      "name": "getStake",
      "outputs": [
        {
          "name": "",
          "type": "uint256"
        }
      ],
      "payable": false,
      "stateMutability": "view",
      "type": "function"
    },
    {
      "constant": false,
      "inputs": [
        {
          "name": "amount",
          "type": "uint256"
        }
      ],
      "name": "increaseStake",
      "outputs": [],
      "payable": false,
      "stateMutability": "nonpayable",
      "type": "function"
    },
    {
      "constant": false,
      "inputs": [],
      "name": "withdrawStake",
      "outputs": [],
      "payable": false,
      "stateMutability": "nonpayable",
      "type": "function"
    },
    {
      "constant": false,
      "inputs": [],
      "name": "requestStakeWithdrawal",
      "outputs": [],
      "payable": false,
      "stateMutability": "nonpayable",
      "type": "function"
    },
    {
      "constant": false,
      "inputs": [
        {
          "name": "addr",
          "type": "address"
        },
        {
          "name": "index",
          "type": "uint256"
        }
      ],
      "name": "voteStakeWithdrawalRequest",
      "outputs": [],
      "payable": false,
      "stateMutability": "nonpayable",
      "type": "function"
    },
    {
      "constant": false,
      "inputs": [
        {
          "name": "addr",
          "type": "address"
        }
      ],
      "name": "purgeMember",
      "outputs": [],
      "payable": false,
      "stateMutability": "nonpayable",
      "type": "function"
    },
    {
      "constant": false,
      "inputs": [],
      "name": "requestFederationJoin",
      "outputs": [],
      "payable": false,
      "stateMutability": "nonpayable",
      "type": "function"
    },
    {
      "constant": false,
      "inputs": [
        {
          "name": "addr",
          "type": "address"
        }
      ],
      "name": "voteFederationJoin",
      "outputs": [],
      "payable": false,
      "stateMutability": "nonpayable",
      "type": "function"
    },
    {
      "constant": false,
      "inputs": [
        {
          "name": "commit",
          "type": "bool"
        }
      ],
      "name": "resolveFederationJoin",
      "outputs": [],
      "payable": false,
      "stateMutability": "nonpayable",
      "type": "function"
    },
    {
      "constant": true,
      "inputs": [],
      "name": "getCurrentFederationStakeRequirement",
      "outputs": [
        {
          "name": "",
          "type": "uint256"
        }
      ],
      "payable": false,
      "stateMutability": "view",
      "type": "function"
    },
    {
      "constant": false,
      "inputs": [
        {
          "name": "stake",
          "type": "uint256"
        }
      ],
      "name": "newStakingBallot",
      "outputs": [],
      "payable": false,
      "stateMutability": "nonpayable",
      "type": "function"
    },
    {
      "constant": false,
      "inputs": [
        {
          "name": "index",
          "type": "uint256"
        }
      ],
      "name": "voteStakingBallot",
      "outputs": [],
      "payable": false,
      "stateMutability": "nonpayable",
      "type": "function"
    },
    {
      "constant": false,
      "inputs": [
        {
          "name": "index",
          "type": "uint256"
        }
      ],
      "name": "resolveStakingBallot",
      "outputs": [],
      "payable": false,
      "stateMutability": "nonpayable",
      "type": "function"
    },
    {
      "constant": true,
      "inputs": [],
      "name": "getStakingBallotsCount",
      "outputs": [
        {
          "name": "",
          "type": "uint256"
        }
      ],
      "payable": false,
      "stateMutability": "view",
      "type": "function"
    },
    {
      "constant": false,
      "inputs": [
        {
          "name": "userAddress",
          "type": "address"
        },
        {
          "name": "reward",
          "type": "uint256"
        }
      ],
      "name": "releaseRewards",
      "outputs": [],
      "payable": false,
      "stateMutability": "nonpayable",
      "type": "function"
    },
    {
      "constant": true,
      "inputs": [
        {
          "name": "addr",
          "type": "address"
        },
        {
          "name": "index",
          "type": "uint256"
        }
      ],
      "name": "getStatusForJoinFederationBallot",
      "outputs": [
        {
          "name": "",
          "type": "bool"
        }
      ],
      "payable": false,
      "stateMutability": "view",
      "type": "function"
    },
    {
      "constant": true,
      "inputs": [
        {
          "name": "addr",
          "type": "address"
        },
        {
          "name": "index",
          "type": "uint256"
        }
      ],
      "name": "getApprovalsForJoinFederationBallot",
      "outputs": [
        {
          "name": "",
          "type": "uint256"
        }
      ],
      "payable": false,
      "stateMutability": "view",
      "type": "function"
    },
    {
      "constant": true,
      "inputs": [
        {
          "name": "addr",
          "type": "address"
        },
        {
          "name": "approver",
          "type": "address"
        },
        {
          "name": "index",
          "type": "uint256"
        }
      ],
      "name": "getApproverForJoinFederationBallot",
      "outputs": [
        {
          "name": "",
          "type": "bool"
        }
      ],
      "payable": false,
      "stateMutability": "view",
      "type": "function"
    },
    {
      "constant": true,
      "inputs": [
        {
          "name": "addr",
          "type": "address"
        }
      ],
      "name": "isFederated",
      "outputs": [
        {
          "name": "",
          "type": "bool"
        }
      ],
      "payable": false,
      "stateMutability": "view",
      "type": "function"
    },
    {
      "constant": true,
      "inputs": [
        {
          "name": "addr",
          "type": "address"
        },
        {
          "name": "index",
          "type": "uint256"
        }
      ],
      "name": "getApprovalsWithdrawRquest",
      "outputs": [
        {
          "name": "",
          "type": "uint256"
        }
      ],
      "payable": false,
      "stateMutability": "view",
      "type": "function"
    },
    {
      "constant": true,
      "inputs": [
        {
          "name": "addr",
          "type": "address"
        },
        {
          "name": "approver",
          "type": "address"
        },
        {
          "name": "index",
          "type": "uint256"
        }
      ],
      "name": "getApproverWithdrawRequest",
      "outputs": [
        {
          "name": "",
          "type": "bool"
        }
      ],
      "payable": false,
      "stateMutability": "view",
      "type": "function"
    },
    {
      "constant": true,
      "inputs": [
        {
          "name": "approver",
          "type": "address"
        },
        {
          "name": "index",
          "type": "uint256"
        }
      ],
      "name": "getApproverForStakingBallot",
      "outputs": [
        {
          "name": "",
          "type": "bool"
        }
      ],
      "payable": false,
      "stateMutability": "view",
      "type": "function"
    }
  ],
  "bytecode": "0x60806040526040805190810160405280600381526020017f47454f00000000000000000000000000000000000000000000000000000000008152506004908051906020019062000051929190620004a6565b503480156200005f57600080fd5b5033600360006101000a81548173ffffffffffffffffffffffffffffffffffffffff021916908373ffffffffffffffffffffffffffffffffffffffff160217905550600360009054906101000a900473ffffffffffffffffffffffffffffffffffffffff1673ffffffffffffffffffffffffffffffffffffffff16600073ffffffffffffffffffffffffffffffffffffffff167f8be0079c531659141344cd1fd0a4f28419497f9722a3daafe3b4186f6b6457e060405160405180910390a36200013f336509184e72a0006200023d640100000000026401000000009004565b620186a060058190555062000166306005546200023d640100000000026401000000009004565b6001600760003373ffffffffffffffffffffffffffffffffffffffff1673ffffffffffffffffffffffffffffffffffffffff16815260200190815260200160002060010160006101000a81548160ff021916908315150217905550620001e86005546006546200041b640100000000026200432f179091906401000000009004565b600681905550600554600760003373ffffffffffffffffffffffffffffffffffffffff1673ffffffffffffffffffffffffffffffffffffffff1681526020019081526020016000206000018190555062000555565b600073ffffffffffffffffffffffffffffffffffffffff168273ffffffffffffffffffffffffffffffffffffffff1614151515620002e3576040517f08c379a000000000000000000000000000000000000000000000000000000000815260040180806020018281038252601f8152602001807f45524332303a206d696e7420746f20746865207a65726f20616464726573730081525060200191505060405180910390fd5b62000308816002546200041b640100000000026200432f179091906401000000009004565b6002819055506200036f816000808573ffffffffffffffffffffffffffffffffffffffff1673ffffffffffffffffffffffffffffffffffffffff168152602001908152602001600020546200041b640100000000026200432f179091906401000000009004565b6000808473ffffffffffffffffffffffffffffffffffffffff1673ffffffffffffffffffffffffffffffffffffffff168152602001908152602001600020819055508173ffffffffffffffffffffffffffffffffffffffff16600073ffffffffffffffffffffffffffffffffffffffff167fddf252ad1be2c89b69c2b068fc378daa952ba7f163c4a11628f55a4df523b3ef836040518082815260200191505060405180910390a35050565b60008082840190508381101515156200049c576040517f08c379a000000000000000000000000000000000000000000000000000000000815260040180806020018281038252601b8152602001807f536166654d6174683a206164646974696f6e206f766572666c6f77000000000081525060200191505060405180910390fd5b8091505092915050565b828054600181600116156101000203166002900490600052602060002090601f016020900481019282601f10620004e957805160ff19168380011785556200051a565b828001600101855582156200051a579182015b8281111562000519578251825591602001919060010190620004fc565b5b5090506200052991906200052d565b5090565b6200055291905b808211156200054e57600081600090555060010162000534565b5090565b90565b614d5c80620005656000396000f3fe608060405234801561001057600080fd5b506004361061029c576000357c0100000000000000000000000000000000000000000000000000000000900480638b0e9f3f11610179578063bed9d861116100eb578063dd62ed3e116100a4578063dd62ed3e14610db5578063ddbf885514610e2d578063e60eef0f14610e7b578063eedad66b14610ea9578063f2fde38b14610ed7578063fc0e3d9014610f1b5761029c565b8063bed9d86114610caf578063c5399cfb14610cb9578063c618174214610ce7578063d5abeb0114610d17578063d88fe25d14610d35578063d9d564d914610d975761029c565b806395d89b411161013d57806395d89b4114610a6457806396cf6d1014610ae7578063a05350eb14610b05578063a457c2d714610b8b578063a9059cbb14610bf1578063bd7383aa14610c575761029c565b80638b0e9f3f146109305780638da5cb5b1461094e5780638f32d59b14610998578063907599f8146109ba57806392fc689114610a165761029c565b806339509351116102125780636de6e598116101d65780636de6e598146107a657806370a08231146107b0578063715018a61461080857806379cc679014610812578063859f5e971461086057806389f63600146108c65761029c565b806339509351146105de5780634235cd671461064457806342966c68146106a657806354591867146106d457806360020bd4146107625761029c565b806318160ddd1161026457806318160ddd1461045257806318a950591461047057806323b872dd1461049e5780632f63d4bc14610524578063313ce5671461052e578063336a5dca146105585761029c565b806306fdde03146102a1578063095ea7b314610324578063111c49551461038a578063173f154f146103f05780631751be0d1461040e575b600080fd5b6102a9610f39565b6040518080602001828103825283818151815260200191508051906020019080838360005b838110156102e95780820151818401526020810190506102ce565b50505050905090810190601f1680156103165780820380516001836020036101000a031916815260200191505b509250505060405180910390f35b6103706004803603604081101561033a57600080fd5b81019080803573ffffffffffffffffffffffffffffffffffffffff16906020019092919080359060200190929190505050610f72565b604051808215151515815260200191505060405180910390f35b6103d6600480360360408110156103a057600080fd5b81019080803573ffffffffffffffffffffffffffffffffffffffff16906020019092919080359060200190929190505050610f89565b604051808215151515815260200191505060405180910390f35b6103f8610ff4565b6040518082815260200191505060405180910390f35b6104506004803603602081101561042457600080fd5b81019080803573ffffffffffffffffffffffffffffffffffffffff169060200190929190505050611001565b005b61045a61130a565b6040518082815260200191505060405180910390f35b61049c6004803603602081101561048657600080fd5b8101908080359060200190929190505050611314565b005b61050a600480360360608110156104b457600080fd5b81019080803573ffffffffffffffffffffffffffffffffffffffff169060200190929190803573ffffffffffffffffffffffffffffffffffffffff16906020019092919080359060200190929190505050611625565b604051808215151515815260200191505060405180910390f35b61052c6116d6565b005b61053661192c565b604051808263ffffffff1663ffffffff16815260200191505060405180910390f35b6105c46004803603606081101561056e57600080fd5b81019080803573ffffffffffffffffffffffffffffffffffffffff169060200190929190803573ffffffffffffffffffffffffffffffffffffffff16906020019092919080359060200190929190505050611931565b604051808215151515815260200191505060405180910390f35b61062a600480360360408110156105f457600080fd5b81019080803573ffffffffffffffffffffffffffffffffffffffff169060200190929190803590602001909291905050506119fc565b604051808215151515815260200191505060405180910390f35b6106906004803603604081101561065a57600080fd5b81019080803573ffffffffffffffffffffffffffffffffffffffff16906020019092919080359060200190929190505050611aa1565b6040518082815260200191505060405180910390f35b6106d2600480360360208110156106bc57600080fd5b8101908080359060200190929190505050611aff565b005b610700600480360360208110156106ea57600080fd5b8101908080359060200190929190505050611b0c565b60405180868152602001851515151581526020018473ffffffffffffffffffffffffffffffffffffffff1673ffffffffffffffffffffffffffffffffffffffff1681526020018381526020018281526020019550505050505060405180910390f35b6107a46004803603602081101561077857600080fd5b81019080803573ffffffffffffffffffffffffffffffffffffffff169060200190929190505050611b7e565b005b6107ae612049565b005b6107f2600480360360208110156107c657600080fd5b81019080803573ffffffffffffffffffffffffffffffffffffffff169060200190929190505050612147565b6040518082815260200191505060405180910390f35b61081061218f565b005b61085e6004803603604081101561082857600080fd5b81019080803573ffffffffffffffffffffffffffffffffffffffff169060200190929190803590602001909291905050506122cc565b005b6108ac6004803603604081101561087657600080fd5b81019080803573ffffffffffffffffffffffffffffffffffffffff169060200190929190803590602001909291905050506122da565b604051808215151515815260200191505060405180910390f35b610908600480360360208110156108dc57600080fd5b81019080803573ffffffffffffffffffffffffffffffffffffffff16906020019092919050505061234f565b6040518084815260200183151515158152602001828152602001935050505060405180910390f35b610938612386565b6040518082815260200191505060405180910390f35b61095661238c565b604051808273ffffffffffffffffffffffffffffffffffffffff1673ffffffffffffffffffffffffffffffffffffffff16815260200191505060405180910390f35b6109a06123b6565b604051808215151515815260200191505060405180910390f35b6109fc600480360360208110156109d057600080fd5b81019080803573ffffffffffffffffffffffffffffffffffffffff16906020019092919050505061240e565b604051808215151515815260200191505060405180910390f35b610a6260048036036040811015610a2c57600080fd5b81019080803573ffffffffffffffffffffffffffffffffffffffff169060200190929190803590602001909291905050506124b7565b005b610a6c61295d565b6040518080602001828103825283818151815260200191508051906020019080838360005b83811015610aac578082015181840152602081019050610a91565b50505050905090810190601f168015610ad95780820380516001836020036101000a031916815260200191505b509250505060405180910390f35b610aef6129fb565b6040518082815260200191505060405180910390f35b610b7160048036036060811015610b1b57600080fd5b81019080803573ffffffffffffffffffffffffffffffffffffffff169060200190929190803573ffffffffffffffffffffffffffffffffffffffff16906020019092919080359060200190929190505050612a05565b604051808215151515815260200191505060405180910390f35b610bd760048036036040811015610ba157600080fd5b81019080803573ffffffffffffffffffffffffffffffffffffffff16906020019092919080359060200190929190505050612ad0565b604051808215151515815260200191505060405180910390f35b610c3d60048036036040811015610c0757600080fd5b81019080803573ffffffffffffffffffffffffffffffffffffffff16906020019092919080359060200190929190505050612b75565b604051808215151515815260200191505060405180910390f35b610c9960048036036020811015610c6d57600080fd5b81019080803573ffffffffffffffffffffffffffffffffffffffff169060200190929190505050612b8c565b6040518082815260200191505060405180910390f35b610cb7612baa565b005b610ce560048036036020811015610ccf57600080fd5b8101908080359060200190929190505050612ecf565b005b610d1560048036036020811015610cfd57600080fd5b8101908080351515906020019092919050505061307b565b005b610d1f61355a565b6040518082815260200191505060405180910390f35b610d8160048036036040811015610d4b57600080fd5b81019080803573ffffffffffffffffffffffffffffffffffffffff16906020019092919080359060200190929190505050613564565b6040518082815260200191505060405180910390f35b610d9f6135c2565b6040518082815260200191505060405180910390f35b610e1760048036036040811015610dcb57600080fd5b81019080803573ffffffffffffffffffffffffffffffffffffffff169060200190929190803573ffffffffffffffffffffffffffffffffffffffff1690602001909291905050506135c8565b6040518082815260200191505060405180910390f35b610e7960048036036040811015610e4357600080fd5b81019080803573ffffffffffffffffffffffffffffffffffffffff1690602001909291908035906020019092919050505061364f565b005b610ea760048036036020811015610e9157600080fd5b81019080803590602001909291905050506136d5565b005b610ed560048036036020811015610ebf57600080fd5b8101908080359060200190929190505050613b41565b005b610f1960048036036020811015610eed57600080fd5b81019080803573ffffffffffffffffffffffffffffffffffffffff169060200190929190505050613d2c565b005b610f23613db4565b6040518082815260200191505060405180910390f35b6040805190810160405280600b81526020017f47656f444220546f6b656e00000000000000000000000000000000000000000081525081565b6000610f7f338484613dfe565b6001905092915050565b6000600860008473ffffffffffffffffffffffffffffffffffffffff1673ffffffffffffffffffffffffffffffffffffffff168152602001908152602001600020600101600083815260200190815260200160002060009054906101000a900460ff16905092915050565b6000600980549050905090565b61100a3361240e565b1515611061576040517f08c379a0000000000000000000000000000000000000000000000000000000008152600401808060200182810382526025815260200180614b6a6025913960400191505060405180910390fd5b600554600760008373ffffffffffffffffffffffffffffffffffffffff1673ffffffffffffffffffffffffffffffffffffffff168152602001908152602001600020600001541080156111005750600760008273ffffffffffffffffffffffffffffffffffffffff1673ffffffffffffffffffffffffffffffffffffffff16815260200190815260200160002060010160009054906101000a900460ff165b1515611174576040517f08c379a00000000000000000000000000000000000000000000000000000000081526004018080602001828103825260178152602001807f4d656d6265722063616e6e6f742062652070757267656400000000000000000081525060200191505060405180910390fd5b6000600760008373ffffffffffffffffffffffffffffffffffffffff1673ffffffffffffffffffffffffffffffffffffffff1681526020019081526020016000206000015490506000600760008473ffffffffffffffffffffffffffffffffffffffff1673ffffffffffffffffffffffffffffffffffffffff168152602001908152602001600020600001819055506000600760008473ffffffffffffffffffffffffffffffffffffffff1673ffffffffffffffffffffffffffffffffffffffff16815260200190815260200160002060010160006101000a81548160ff02191690831515021790555061127381600654613ff990919063ffffffff16565b60068190555060003090508073ffffffffffffffffffffffffffffffffffffffff166342966c68836040518263ffffffff167c010000000000000000000000000000000000000000000000000000000002815260040180828152602001915050600060405180830381600087803b1580156112ed57600080fd5b505af1158015611301573d6000803e3d6000fd5b50505050505050565b6000600254905090565b61131d3361240e565b1515611374576040517f08c379a0000000000000000000000000000000000000000000000000000000008152600401808060200182810382526025815260200180614b6a6025913960400191505060405180910390fd5b80600980549050811015156113f1576040517f08c379a00000000000000000000000000000000000000000000000000000000081526004018080602001828103825260148152602001807f496e64657820646f6573206e6f7420657869737400000000000000000000000081525060200191505060405180910390fd5b60098181548110151561140057fe5b9060005260206000209060050201600401544211151515611489576040517f08c379a00000000000000000000000000000000000000000000000000000000081526004018080602001828103825260178152602001807f54686520646561646c696e65206861732070617373656400000000000000000081525060200191505060405180910390fd5b6000151560098281548110151561149c57fe5b906000526020600020906005020160010160009054906101000a900460ff161515141515611515576040517f08c379a0000000000000000000000000000000000000000000000000000000008152600401808060200182810382526025815260200180614bf96025913960400191505060405180910390fd5b61152b600260065461408490919063ffffffff16565b60098381548110151561153a57fe5b9060005260206000209060050201600201541115156115c1576040517f08c379a000000000000000000000000000000000000000000000000000000000815260040180806020018281038252601a8152602001807f566f74696e67207374616b65206973206e6f7420656e6f75676800000000000081525060200191505060405180910390fd5b60016009838154811015156115d257fe5b906000526020600020906005020160010160006101000a81548160ff02191690831515021790555060098281548110151561160957fe5b9060005260206000209060050201600001546005819055505050565b6000611632848484614117565b6116cb84336116c685600160008a73ffffffffffffffffffffffffffffffffffffffff1673ffffffffffffffffffffffffffffffffffffffff16815260200190815260200160002060003373ffffffffffffffffffffffffffffffffffffffff1673ffffffffffffffffffffffffffffffffffffffff16815260200190815260200160002054613ff990919063ffffffff16565b613dfe565b600190509392505050565b600760003373ffffffffffffffffffffffffffffffffffffffff1673ffffffffffffffffffffffffffffffffffffffff16815260200190815260200160002060010160009054906101000a900460ff1615151561177e576040517f08c379a0000000000000000000000000000000000000000000000000000000008152600401808060200182810382526027815260200180614c1e6027913960400191505060405180910390fd5b6000600760003373ffffffffffffffffffffffffffffffffffffffff1673ffffffffffffffffffffffffffffffffffffffff16815260200190815260200160002060000154141515611838576040517f08c379a00000000000000000000000000000000000000000000000000000000081526004018080602001828103825260198152602001807f466972737420776974686472617720796f7572207374616b650000000000000081525060200191505060405180910390fd5b61184430600554612b75565b5061189b6001600860003373ffffffffffffffffffffffffffffffffffffffff1673ffffffffffffffffffffffffffffffffffffffff1681526020019081526020016000206000015461432f90919063ffffffff16565b600860003373ffffffffffffffffffffffffffffffffffffffff1673ffffffffffffffffffffffffffffffffffffffff16815260200190815260200160002060000181905550600554600760003373ffffffffffffffffffffffffffffffffffffffff1673ffffffffffffffffffffffffffffffffffffffff16815260200190815260200160002060000181905550565b600581565b6000808284604051602001808381526020018273ffffffffffffffffffffffffffffffffffffffff1673ffffffffffffffffffffffffffffffffffffffff16815260200192505050604051602081830303815290604052805190602001209050600860008673ffffffffffffffffffffffffffffffffffffffff1673ffffffffffffffffffffffffffffffffffffffff168152602001908152602001600020600301600082815260200190815260200160002060009054906101000a900460ff169150509392505050565b6000611a973384611a9285600160003373ffffffffffffffffffffffffffffffffffffffff1673ffffffffffffffffffffffffffffffffffffffff16815260200190815260200160002060008973ffffffffffffffffffffffffffffffffffffffff1673ffffffffffffffffffffffffffffffffffffffff1681526020019081526020016000205461432f90919063ffffffff16565b613dfe565b6001905092915050565b6000600860008473ffffffffffffffffffffffffffffffffffffffff1673ffffffffffffffffffffffffffffffffffffffff168152602001908152602001600020600201600083815260200190815260200160002054905092915050565b611b0933826143b9565b50565b600981815481101515611b1b57fe5b90600052602060002090600502016000915090508060000154908060010160009054906101000a900460ff16908060010160019054906101000a900473ffffffffffffffffffffffffffffffffffffffff16908060020154908060040154905085565b611b873361240e565b1515611bde576040517f08c379a0000000000000000000000000000000000000000000000000000000008152600401808060200182810382526025815260200180614b6a6025913960400191505060405180910390fd5b6000600860008373ffffffffffffffffffffffffffffffffffffffff1673ffffffffffffffffffffffffffffffffffffffff16815260200190815260200160002060000154111515611c98576040517f08c379a000000000000000000000000000000000000000000000000000000000815260040180806020018281038252601c8152602001807f496e646578206d7573742062652067726561746572207468616e20300000000081525060200191505060405180910390fd5b6000600860008373ffffffffffffffffffffffffffffffffffffffff1673ffffffffffffffffffffffffffffffffffffffff16815260200190815260200160002060000154905060001515600860008473ffffffffffffffffffffffffffffffffffffffff1673ffffffffffffffffffffffffffffffffffffffff168152602001908152602001600020600101600083815260200190815260200160002060009054906101000a900460ff161515141515611d9e576040517f08c379a000000000000000000000000000000000000000000000000000000000815260040180806020018281038252602b815260200180614cb4602b913960400191505060405180910390fd5b60008133604051602001808381526020018273ffffffffffffffffffffffffffffffffffffffff1673ffffffffffffffffffffffffffffffffffffffff1681526020019250505060405160208183030381529060405280519060200120905060001515600860008573ffffffffffffffffffffffffffffffffffffffff1673ffffffffffffffffffffffffffffffffffffffff168152602001908152602001600020600301600083815260200190815260200160002060009054906101000a900460ff161515141515611ed9576040517f08c379a00000000000000000000000000000000000000000000000000000000081526004018080602001828103825260158152602001807f596f752063616e6e6f7420766f7465207477696365000000000000000000000081525060200191505060405180910390fd5b6001600860008573ffffffffffffffffffffffffffffffffffffffff1673ffffffffffffffffffffffffffffffffffffffff168152602001908152602001600020600301600083815260200190815260200160002060006101000a81548160ff021916908315150217905550611fed600760003373ffffffffffffffffffffffffffffffffffffffff1673ffffffffffffffffffffffffffffffffffffffff16815260200190815260200160002060000154600860008673ffffffffffffffffffffffffffffffffffffffff1673ffffffffffffffffffffffffffffffffffffffff16815260200190815260200160002060020160008581526020019081526020016000205461432f90919063ffffffff16565b600860008573ffffffffffffffffffffffffffffffffffffffff1673ffffffffffffffffffffffffffffffffffffffff168152602001908152602001600020600201600084815260200190815260200160002081905550505050565b6120523361240e565b15156120a9576040517f08c379a0000000000000000000000000000000000000000000000000000000008152600401808060200182810382526025815260200180614b6a6025913960400191505060405180910390fd5b6120ff6001600760003373ffffffffffffffffffffffffffffffffffffffff1673ffffffffffffffffffffffffffffffffffffffff1681526020019081526020016000206002015461432f90919063ffffffff16565b600760003373ffffffffffffffffffffffffffffffffffffffff1673ffffffffffffffffffffffffffffffffffffffff16815260200190815260200160002060020181905550565b60008060008373ffffffffffffffffffffffffffffffffffffffff1673ffffffffffffffffffffffffffffffffffffffff168152602001908152602001600020549050919050565b6121976123b6565b151561220b576040517f08c379a00000000000000000000000000000000000000000000000000000000081526004018080602001828103825260208152602001807f4f776e61626c653a2063616c6c6572206973206e6f7420746865206f776e657281525060200191505060405180910390fd5b600073ffffffffffffffffffffffffffffffffffffffff16600360009054906101000a900473ffffffffffffffffffffffffffffffffffffffff1673ffffffffffffffffffffffffffffffffffffffff167f8be0079c531659141344cd1fd0a4f28419497f9722a3daafe3b4186f6b6457e060405160405180910390a36000600360006101000a81548173ffffffffffffffffffffffffffffffffffffffff021916908373ffffffffffffffffffffffffffffffffffffffff160217905550565b6122d68282614559565b5050565b60006009828154811015156122eb57fe5b906000526020600020906005020160030160008473ffffffffffffffffffffffffffffffffffffffff1673ffffffffffffffffffffffffffffffffffffffff16815260200190815260200160002060009054906101000a900460ff16905092915050565b60076020528060005260406000206000915090508060000154908060010160009054906101000a900460ff16908060020154905083565b60065481565b6000600360009054906101000a900473ffffffffffffffffffffffffffffffffffffffff16905090565b6000600360009054906101000a900473ffffffffffffffffffffffffffffffffffffffff1673ffffffffffffffffffffffffffffffffffffffff163373ffffffffffffffffffffffffffffffffffffffff1614905090565b6000600554600760008473ffffffffffffffffffffffffffffffffffffffff1673ffffffffffffffffffffffffffffffffffffffff16815260200190815260200160002060000154101580156124b05750600760008373ffffffffffffffffffffffffffffffffffffffff1673ffffffffffffffffffffffffffffffffffffffff16815260200190815260200160002060010160009054906101000a900460ff165b9050919050565b6124c03361240e565b1515612517576040517f08c379a0000000000000000000000000000000000000000000000000000000008152600401808060200182810382526025815260200180614b6a6025913960400191505060405180910390fd5b3373ffffffffffffffffffffffffffffffffffffffff168273ffffffffffffffffffffffffffffffffffffffff161415151561259e576040517f08c379a000000000000000000000000000000000000000000000000000000000815260040180806020018281038252604e815260200180614c66604e913960600191505060405180910390fd5b600081111515612616576040517f08c379a000000000000000000000000000000000000000000000000000000000815260040180806020018281038252601c8152602001807f496e646578206d7573742062652067726561746572207468616e20300000000081525060200191505060405180910390fd5b80600760008473ffffffffffffffffffffffffffffffffffffffff1673ffffffffffffffffffffffffffffffffffffffff168152602001908152602001600020600201541415156126b2576040517f08c379a0000000000000000000000000000000000000000000000000000000008152600401808060200182810382526026815260200180614b446026913960400191505060405180910390fd5b60008133604051602001808381526020018273ffffffffffffffffffffffffffffffffffffffff1673ffffffffffffffffffffffffffffffffffffffff1681526020019250505060405160208183030381529060405280519060200120905060001515600760008573ffffffffffffffffffffffffffffffffffffffff1673ffffffffffffffffffffffffffffffffffffffff168152602001908152602001600020600401600083815260200190815260200160002060009054906101000a900460ff1615151415156127ed576040517f08c379a00000000000000000000000000000000000000000000000000000000081526004018080602001828103825260158152602001807f596f752063616e6e6f7420766f7465207477696365000000000000000000000081525060200191505060405180910390fd5b612895600760003373ffffffffffffffffffffffffffffffffffffffff1673ffffffffffffffffffffffffffffffffffffffff16815260200190815260200160002060000154600760008673ffffffffffffffffffffffffffffffffffffffff1673ffffffffffffffffffffffffffffffffffffffff16815260200190815260200160002060030160008581526020019081526020016000205461432f90919063ffffffff16565b600760008573ffffffffffffffffffffffffffffffffffffffff1673ffffffffffffffffffffffffffffffffffffffff1681526020019081526020016000206003016000848152602001908152602001600020819055506001600760008573ffffffffffffffffffffffffffffffffffffffff1673ffffffffffffffffffffffffffffffffffffffff168152602001908152602001600020600401600083815260200190815260200160002060006101000a81548160ff021916908315150217905550505050565b60048054600181600116156101000203166002900480601f0160208091040260200160405190810160405280929190818152602001828054600181600116156101000203166002900480156129f35780601f106129c8576101008083540402835291602001916129f3565b820191906000526020600020905b8154815290600101906020018083116129d657829003601f168201915b505050505081565b6000600554905090565b6000808284604051602001808381526020018273ffffffffffffffffffffffffffffffffffffffff1673ffffffffffffffffffffffffffffffffffffffff16815260200192505050604051602081830303815290604052805190602001209050600760008673ffffffffffffffffffffffffffffffffffffffff1673ffffffffffffffffffffffffffffffffffffffff168152602001908152602001600020600401600082815260200190815260200160002060009054906101000a900460ff169150509392505050565b6000612b6b3384612b6685600160003373ffffffffffffffffffffffffffffffffffffffff1673ffffffffffffffffffffffffffffffffffffffff16815260200190815260200160002060008973ffffffffffffffffffffffffffffffffffffffff1673ffffffffffffffffffffffffffffffffffffffff16815260200190815260200160002054613ff990919063ffffffff16565b613dfe565b6001905092915050565b6000612b82338484614117565b6001905092915050565b60086020528060005260406000206000915090508060000154905081565b6000600760003373ffffffffffffffffffffffffffffffffffffffff1673ffffffffffffffffffffffffffffffffffffffff16815260200190815260200160002060000154111515612c47576040517f08c379a0000000000000000000000000000000000000000000000000000000008152600401808060200182810382526022815260200180614bd76022913960400191505060405180910390fd5b6000600760003373ffffffffffffffffffffffffffffffffffffffff1673ffffffffffffffffffffffffffffffffffffffff16815260200190815260200160002060020154111515612d01576040517f08c379a000000000000000000000000000000000000000000000000000000000815260040180806020018281038252601e8152602001807f52657175657374207374616b65207769746864726177616c206669727374000081525060200191505060405180910390fd5b612d17600260065461408490919063ffffffff16565b600760003373ffffffffffffffffffffffffffffffffffffffff1673ffffffffffffffffffffffffffffffffffffffff16815260200190815260200160002060000154600760003373ffffffffffffffffffffffffffffffffffffffff1673ffffffffffffffffffffffffffffffffffffffff1681526020019081526020016000206003016000600760003373ffffffffffffffffffffffffffffffffffffffff1673ffffffffffffffffffffffffffffffffffffffff168152602001908152602001600020600201548152602001908152602001600020540110151515612e67576040517f08c379a000000000000000000000000000000000000000000000000000000000815260040180806020018281038252601a8152602001807f566f74696e67207374616b65206973206e6f7420656e6f75676800000000000081525060200191505060405180910390fd5b612ebe600760003373ffffffffffffffffffffffffffffffffffffffff1673ffffffffffffffffffffffffffffffffffffffff16815260200190815260200160002060000154600654613ff990919063ffffffff16565b600681905550612ecd33614600565b565b612ed83361240e565b1515612f2f576040517f08c379a0000000000000000000000000000000000000000000000000000000008152600401808060200182810382526025815260200180614b6a6025913960400191505060405180910390fd5b612f37614ad8565b60a0604051908101604052808381526020016000151581526020013373ffffffffffffffffffffffffffffffffffffffff168152602001600760003373ffffffffffffffffffffffffffffffffffffffff1673ffffffffffffffffffffffffffffffffffffffff1681526020019081526020016000206000015481526020016201518042018152509050600981908060018154018082558091505090600182039060005260206000209060050201600090919290919091506000820151816000015560208201518160010160006101000a81548160ff02191690831515021790555060408201518160010160016101000a81548173ffffffffffffffffffffffffffffffffffffffff021916908373ffffffffffffffffffffffffffffffffffffffff16021790555060608201518160020155608082015181600401555050505050565b6000600760003373ffffffffffffffffffffffffffffffffffffffff1673ffffffffffffffffffffffffffffffffffffffff16815260200190815260200160002060000154111515613118576040517f08c379a0000000000000000000000000000000000000000000000000000000008152600401808060200182810382526022815260200180614bd76022913960400191505060405180910390fd5b600760003373ffffffffffffffffffffffffffffffffffffffff1673ffffffffffffffffffffffffffffffffffffffff16815260200190815260200160002060010160009054906101000a900460ff161515156131c0576040517f08c379a0000000000000000000000000000000000000000000000000000000008152600401808060200182810382526027815260200180614c1e6027913960400191505060405180910390fd5b6000600860003373ffffffffffffffffffffffffffffffffffffffff1673ffffffffffffffffffffffffffffffffffffffff16815260200190815260200160002060000154905060008111151561327f576040517f08c379a000000000000000000000000000000000000000000000000000000000815260040180806020018281038252601c8152602001807f496e646578206d7573742062652067726561746572207468616e20300000000081525060200191505060405180910390fd5b60001515600860003373ffffffffffffffffffffffffffffffffffffffff1673ffffffffffffffffffffffffffffffffffffffff168152602001908152602001600020600101600083815260200190815260200160002060009054906101000a900460ff16151514151561333e576040517f08c379a000000000000000000000000000000000000000000000000000000000815260040180806020018281038252602b815260200180614cb4602b913960400191505060405180910390fd5b6001600860003373ffffffffffffffffffffffffffffffffffffffff1673ffffffffffffffffffffffffffffffffffffffff168152602001908152602001600020600101600083815260200190815260200160002060006101000a81548160ff021916908315150217905550811561354c576133c6600260065461408490919063ffffffff16565b600860003373ffffffffffffffffffffffffffffffffffffffff1673ffffffffffffffffffffffffffffffffffffffff16815260200190815260200160002060020160008381526020019081526020016000205411151561348f576040517f08c379a000000000000000000000000000000000000000000000000000000000815260040180806020018281038252601a8152602001807f566f74696e67207374616b65206973206e6f7420656e6f75676800000000000081525060200191505060405180910390fd5b6001600760003373ffffffffffffffffffffffffffffffffffffffff1673ffffffffffffffffffffffffffffffffffffffff16815260200190815260200160002060010160006101000a81548160ff021916908315150217905550613541600760003373ffffffffffffffffffffffffffffffffffffffff1673ffffffffffffffffffffffffffffffffffffffff1681526020019081526020016000206000015460065461432f90919063ffffffff16565b600681905550613556565b61355533614600565b5b5050565b655af3107a400081565b6000600760008473ffffffffffffffffffffffffffffffffffffffff1673ffffffffffffffffffffffffffffffffffffffff168152602001908152602001600020600301600083815260200190815260200160002054905092915050565b60055481565b6000600160008473ffffffffffffffffffffffffffffffffffffffff1673ffffffffffffffffffffffffffffffffffffffff16815260200190815260200160002060008373ffffffffffffffffffffffffffffffffffffffff1673ffffffffffffffffffffffffffffffffffffffff16815260200190815260200160002054905092915050565b6136583361240e565b15156136af576040517f08c379a0000000000000000000000000000000000000000000000000000000008152600401808060200182810382526025815260200180614b6a6025913960400191505060405180910390fd5b655af3107a4000816136bf61130a565b0110156136d1576136d082826147d3565b5b5050565b6136de3361240e565b1515613735576040517f08c379a0000000000000000000000000000000000000000000000000000000008152600401808060200182810382526025815260200180614b6a6025913960400191505060405180910390fd5b80600980549050811015156137b2576040517f08c379a00000000000000000000000000000000000000000000000000000000081526004018080602001828103825260148152602001807f496e64657820646f6573206e6f7420657869737400000000000000000000000081525060200191505060405180910390fd5b6009818154811015156137c157fe5b906000526020600020906005020160040154421115151561384a576040517f08c379a00000000000000000000000000000000000000000000000000000000081526004018080602001828103825260178152602001807f54686520646561646c696e65206861732070617373656400000000000000000081525060200191505060405180910390fd5b6000151560098281548110151561385d57fe5b906000526020600020906005020160010160009054906101000a900460ff1615151415156138d6576040517f08c379a0000000000000000000000000000000000000000000000000000000008152600401808060200182810382526025815260200180614bf96025913960400191505060405180910390fd5b6009828154811015156138e557fe5b906000526020600020906005020160030160003373ffffffffffffffffffffffffffffffffffffffff1673ffffffffffffffffffffffffffffffffffffffff16815260200190815260200160002060009054906101000a900460ff161580156139ba575060098281548110151561395857fe5b906000526020600020906005020160010160019054906101000a900473ffffffffffffffffffffffffffffffffffffffff1673ffffffffffffffffffffffffffffffffffffffff163373ffffffffffffffffffffffffffffffffffffffff1614155b1515613a2e576040517f08c379a00000000000000000000000000000000000000000000000000000000081526004018080602001828103825260158152602001807f596f752063616e6e6f7420766f7465207477696365000000000000000000000081525060200191505060405180910390fd5b6001600983815481101515613a3f57fe5b906000526020600020906005020160030160003373ffffffffffffffffffffffffffffffffffffffff1673ffffffffffffffffffffffffffffffffffffffff16815260200190815260200160002060006101000a81548160ff021916908315150217905550613b19600760003373ffffffffffffffffffffffffffffffffffffffff1673ffffffffffffffffffffffffffffffffffffffff16815260200190815260200160002060000154600984815481101515613af957fe5b90600052602060002090600502016002015461432f90919063ffffffff16565b600983815481101515613b2857fe5b9060005260206000209060050201600201819055505050565b600760003373ffffffffffffffffffffffffffffffffffffffff1673ffffffffffffffffffffffffffffffffffffffff16815260200190815260200160002060010160009054906101000a900460ff161515613be8576040517f08c379a000000000000000000000000000000000000000000000000000000000815260040180806020018281038252602e815260200180614d03602e913960400191505060405180910390fd5b6000613c3f82600760003373ffffffffffffffffffffffffffffffffffffffff1673ffffffffffffffffffffffffffffffffffffffff1681526020019081526020016000206000015461432f90919063ffffffff16565b90506005548110151515613cbb576040517f08c379a000000000000000000000000000000000000000000000000000000000815260040180806020018281038252601b8152602001807f5374616b656420616d6f756e74206973206e6f7420656e6f756768000000000081525060200191505060405180910390fd5b613cc53083612b75565b50613cdb8260065461432f90919063ffffffff16565b60068190555080600760003373ffffffffffffffffffffffffffffffffffffffff1673ffffffffffffffffffffffffffffffffffffffff168152602001908152602001600020600001819055505050565b613d346123b6565b1515613da8576040517f08c379a00000000000000000000000000000000000000000000000000000000081526004018080602001828103825260208152602001807f4f776e61626c653a2063616c6c6572206973206e6f7420746865206f776e657281525060200191505060405180910390fd5b613db181614990565b50565b6000600760003373ffffffffffffffffffffffffffffffffffffffff1673ffffffffffffffffffffffffffffffffffffffff16815260200190815260200160002060000154905090565b600073ffffffffffffffffffffffffffffffffffffffff168373ffffffffffffffffffffffffffffffffffffffff1614151515613e86576040517f08c379a0000000000000000000000000000000000000000000000000000000008152600401808060200182810382526024815260200180614cdf6024913960400191505060405180910390fd5b600073ffffffffffffffffffffffffffffffffffffffff168273ffffffffffffffffffffffffffffffffffffffff1614151515613f0e576040517f08c379a0000000000000000000000000000000000000000000000000000000008152600401808060200182810382526022815260200180614bb56022913960400191505060405180910390fd5b80600160008573ffffffffffffffffffffffffffffffffffffffff1673ffffffffffffffffffffffffffffffffffffffff16815260200190815260200160002060008473ffffffffffffffffffffffffffffffffffffffff1673ffffffffffffffffffffffffffffffffffffffff168152602001908152602001600020819055508173ffffffffffffffffffffffffffffffffffffffff168373ffffffffffffffffffffffffffffffffffffffff167f8c5be1e5ebec7d5bd14f71427d1e84f3dd0314c0f7b2291e5b200ac8c7c3b925836040518082815260200191505060405180910390a3505050565b6000828211151515614073576040517f08c379a000000000000000000000000000000000000000000000000000000000815260040180806020018281038252601e8152602001807f536166654d6174683a207375627472616374696f6e206f766572666c6f77000081525060200191505060405180910390fd5b600082840390508091505092915050565b600080821115156140fd576040517f08c379a000000000000000000000000000000000000000000000000000000000815260040180806020018281038252601a8152602001807f536166654d6174683a206469766973696f6e206279207a65726f00000000000081525060200191505060405180910390fd5b6000828481151561410a57fe5b0490508091505092915050565b600073ffffffffffffffffffffffffffffffffffffffff168273ffffffffffffffffffffffffffffffffffffffff161415151561419f576040517f08c379a0000000000000000000000000000000000000000000000000000000008152600401808060200182810382526023815260200180614b216023913960400191505060405180910390fd5b6141f0816000808673ffffffffffffffffffffffffffffffffffffffff1673ffffffffffffffffffffffffffffffffffffffff16815260200190815260200160002054613ff990919063ffffffff16565b6000808573ffffffffffffffffffffffffffffffffffffffff1673ffffffffffffffffffffffffffffffffffffffff16815260200190815260200160002081905550614283816000808573ffffffffffffffffffffffffffffffffffffffff1673ffffffffffffffffffffffffffffffffffffffff1681526020019081526020016000205461432f90919063ffffffff16565b6000808473ffffffffffffffffffffffffffffffffffffffff1673ffffffffffffffffffffffffffffffffffffffff168152602001908152602001600020819055508173ffffffffffffffffffffffffffffffffffffffff168373ffffffffffffffffffffffffffffffffffffffff167fddf252ad1be2c89b69c2b068fc378daa952ba7f163c4a11628f55a4df523b3ef836040518082815260200191505060405180910390a3505050565b60008082840190508381101515156143af576040517f08c379a000000000000000000000000000000000000000000000000000000000815260040180806020018281038252601b8152602001807f536166654d6174683a206164646974696f6e206f766572666c6f77000000000081525060200191505060405180910390fd5b8091505092915050565b600073ffffffffffffffffffffffffffffffffffffffff168273ffffffffffffffffffffffffffffffffffffffff1614151515614441576040517f08c379a0000000000000000000000000000000000000000000000000000000008152600401808060200182810382526021815260200180614c456021913960400191505060405180910390fd5b61445681600254613ff990919063ffffffff16565b6002819055506144ad816000808573ffffffffffffffffffffffffffffffffffffffff1673ffffffffffffffffffffffffffffffffffffffff16815260200190815260200160002054613ff990919063ffffffff16565b6000808473ffffffffffffffffffffffffffffffffffffffff1673ffffffffffffffffffffffffffffffffffffffff16815260200190815260200160002081905550600073ffffffffffffffffffffffffffffffffffffffff168273ffffffffffffffffffffffffffffffffffffffff167fddf252ad1be2c89b69c2b068fc378daa952ba7f163c4a11628f55a4df523b3ef836040518082815260200191505060405180910390a35050565b61456382826143b9565b6145fc82336145f784600160008873ffffffffffffffffffffffffffffffffffffffff1673ffffffffffffffffffffffffffffffffffffffff16815260200190815260200160002060003373ffffffffffffffffffffffffffffffffffffffff1673ffffffffffffffffffffffffffffffffffffffff16815260200190815260200160002054613ff990919063ffffffff16565b613dfe565b5050565b6000600760008373ffffffffffffffffffffffffffffffffffffffff1673ffffffffffffffffffffffffffffffffffffffff1681526020019081526020016000206000015490506000600760008473ffffffffffffffffffffffffffffffffffffffff1673ffffffffffffffffffffffffffffffffffffffff168152602001908152602001600020600001819055506000600760008473ffffffffffffffffffffffffffffffffffffffff1673ffffffffffffffffffffffffffffffffffffffff16815260200190815260200160002060010160006101000a81548160ff02191690831515021790555060003090508073ffffffffffffffffffffffffffffffffffffffff1663a9059cbb84846040518363ffffffff167c0100000000000000000000000000000000000000000000000000000000028152600401808373ffffffffffffffffffffffffffffffffffffffff1673ffffffffffffffffffffffffffffffffffffffff16815260200182815260200192505050602060405180830381600087803b15801561479257600080fd5b505af11580156147a6573d6000803e3d6000fd5b505050506040513d60208110156147bc57600080fd5b810190808051906020019092919050505050505050565b600073ffffffffffffffffffffffffffffffffffffffff168273ffffffffffffffffffffffffffffffffffffffff1614151515614878576040517f08c379a000000000000000000000000000000000000000000000000000000000815260040180806020018281038252601f8152602001807f45524332303a206d696e7420746f20746865207a65726f20616464726573730081525060200191505060405180910390fd5b61488d8160025461432f90919063ffffffff16565b6002819055506148e4816000808573ffffffffffffffffffffffffffffffffffffffff1673ffffffffffffffffffffffffffffffffffffffff1681526020019081526020016000205461432f90919063ffffffff16565b6000808473ffffffffffffffffffffffffffffffffffffffff1673ffffffffffffffffffffffffffffffffffffffff168152602001908152602001600020819055508173ffffffffffffffffffffffffffffffffffffffff16600073ffffffffffffffffffffffffffffffffffffffff167fddf252ad1be2c89b69c2b068fc378daa952ba7f163c4a11628f55a4df523b3ef836040518082815260200191505060405180910390a35050565b600073ffffffffffffffffffffffffffffffffffffffff168173ffffffffffffffffffffffffffffffffffffffff1614151515614a18576040517f08c379a0000000000000000000000000000000000000000000000000000000008152600401808060200182810382526026815260200180614b8f6026913960400191505060405180910390fd5b8073ffffffffffffffffffffffffffffffffffffffff16600360009054906101000a900473ffffffffffffffffffffffffffffffffffffffff1673ffffffffffffffffffffffffffffffffffffffff167f8be0079c531659141344cd1fd0a4f28419497f9722a3daafe3b4186f6b6457e060405160405180910390a380600360006101000a81548173ffffffffffffffffffffffffffffffffffffffff021916908373ffffffffffffffffffffffffffffffffffffffff16021790555050565b60a06040519081016040528060008152602001600015158152602001600073ffffffffffffffffffffffffffffffffffffffff1681526020016000815260200160008152509056fe45524332303a207472616e7366657220746f20746865207a65726f2061646472657373496e646578206d75737420626520657175616c20746f2063757272656e74207265717565737443616c6c6572206d7573742062652070617274206f66207468652066656465726174696f6e4f776e61626c653a206e6577206f776e657220697320746865207a65726f206164647265737345524332303a20617070726f766520746f20746865207a65726f20616464726573735468657265206973206e6f207374616b6520666f7220746869732061646472657373546869732062616c6c6f742068617320616c7265616479206265656e20617070726f76656443616c6c65722063616e6e6f742062652070617274206f66207468652066656465726174696f6e45524332303a206275726e2066726f6d20746865207a65726f2061646472657373596f757220766f7465732077696c6c206265206175746f6d61746963616c6c79206164646564207768656e20796f752063616c6c2066656465726174696f6e5374616b655769746864726177282954686973206a6f696e20726571756573742068617320616c7265616479206265656e207265736f6c76656445524332303a20617070726f76652066726f6d20746865207a65726f206164647265737343616c6c6572206d75737420626520617070726f76656420746f206a6f696e207468652066656465726174696f6ea165627a7a723058209cf635af7930fa9d2d95e1ecd87debf5192f7bcc2e56fcb31a5211d7a8b0e9480029",
  "source": "pragma solidity ^0.5.2;\n\nimport \"../externals/openzeppelin-solidity/contracts/token/ERC20/ERC20Burnable.sol\";\nimport \"../externals/openzeppelin-solidity/contracts/ownership/Ownable.sol\";\n// Replace the two above for:\n// import \"openzeppelin-solidity/contracts/token/ERC20/ERC20Burnable.sol\";\n// import \"openzeppelin-solidity/contracts/ownership/Ownable.sol\";\n// in production\n\nimport \"./GeoDBClasses.sol\";\n\n/**\n* @title GeoDB ERC20 Token\n*/\ncontract GeoDB is GeoDBClasses, ERC20Burnable, Ownable{\n\n  // Contract constants\n\n  uint256 constant public maxSupply = 100000000000000;\n  uint32 constant public decimals = 5;\n  string constant public name = \"GeoDB Token\";\n  string public symbol = \"GEO\";\n\n\n  // Federation\n\n  uint256 public federationMinimumStake;\n  uint256 public totalStake;\n\n  mapping(address => FederationStake) public federationStakes;\n  mapping(address => FederationJoinBallot) public federationJoinBallots;\n  FederationStakingBallot[] public federationStakingBallots;\n\n  constructor() public {\n    _mint(msg.sender, 10000000000000); // Team allocation\n\n    federationMinimumStake = 100000; // Initial minimum stake: 1 GEO\n\n    // Initial stake given to the owner\n    _mint(address(this), federationMinimumStake);\n    federationStakes[msg.sender].approved = true;\n    totalStake = totalStake.add(federationMinimumStake);\n    federationStakes[msg.sender].stake = federationMinimumStake;\n  }\n\n  // Stake management\n\n  function getStake() public view returns(uint256){\n    return federationStakes[msg.sender].stake;\n  }\n\n  function increaseStake(uint256 amount) public callerMustBeApproved() {\n    uint256 summedStakes = federationStakes[msg.sender].stake.add(amount);\n    require(summedStakes >= federationMinimumStake, \"Staked amount is not enough\");\n    transfer(address(this), amount);\n    totalStake = totalStake.add(amount);\n    federationStakes[msg.sender].stake = summedStakes;\n  }\n\n  function withdrawStake() public callerMustHaveStake() {\n\n    // if(federationStakes[msg.sender].approved == false){\n    //   _withdrawStake(msg.sender);\n    //   return;\n    // }else if(federationStakes[msg.sender].approved && federationStakes[msg.sender].stake < federationMinimumStake){\n    //   totalStake = totalStake.sub(federationStakes[msg.sender].stake);\n    //   _withdrawStake(msg.sender);\n    //   return;\n    // }\n\n    require(federationStakes[msg.sender].releaseRequestIndex > 0, \"Request stake withdrawal first\");\n    require(\n       federationStakes[msg.sender].withdrawApprovals[federationStakes[msg.sender].releaseRequestIndex]\n       + federationStakes[msg.sender].stake\n       >= totalStake.div(2), \"Voting stake is not enough\"\n     );\n\n    totalStake = totalStake.sub(federationStakes[msg.sender].stake);\n    _withdrawStake(msg.sender);\n  }\n\n  // Internal helper function for withdrawkStake()\n  function _withdrawStake(address addr) internal {\n    uint256 stake = federationStakes[addr].stake;\n    federationStakes[addr].stake = 0;\n    federationStakes[addr].approved = false;\n    GeoDB selfReference = GeoDB(address(this));\n    selfReference.transfer(addr, stake);\n  }\n\n  function requestStakeWithdrawal() public callerMustBeFederated() {\n    federationStakes[msg.sender].releaseRequestIndex = federationStakes[msg.sender].releaseRequestIndex.add(1);\n  }\n\n  function voteStakeWithdrawalRequest(address addr, uint256 index) public callerMustBeFederated() {\n    require(addr != msg.sender, \"Your votes will be automatically added when you call federationStakeWithdraw()\");\n    require(index > 0, \"Index must be greater than 0\");\n    require(federationStakes[addr].releaseRequestIndex == index, \"Index must be equal to current request\");\n    bytes32 withdrawApprover = keccak256(abi.encode(index, msg.sender));\n    require(federationStakes[addr].withdrawApprovers[withdrawApprover] == false, \"You cannot vote twice\");\n\n    federationStakes[addr].withdrawApprovals[index] = federationStakes[addr].withdrawApprovals[index].add(federationStakes[msg.sender].stake);\n    federationStakes[addr].withdrawApprovers[withdrawApprover] = true;\n  }\n\n  function purgeMember(address addr) public callerMustBeFederated(){\n    require(federationStakes[addr].stake < federationMinimumStake && federationStakes[addr].approved, \"Member cannot be purged\");\n    uint256 stake = federationStakes[addr].stake;\n    federationStakes[addr].stake = 0;\n    federationStakes[addr].approved = false;\n    totalStake = totalStake.sub(stake);\n    GeoDB selfReference = GeoDB(address(this));\n    selfReference.burn(stake);\n  }\n\n  // Federation join / approve member process\n\n  function requestFederationJoin() public callerCannotBeFederated() callerCannotHaveStake() {\n    transfer(address(this), federationMinimumStake);\n    federationJoinBallots[msg.sender].requestIndex = federationJoinBallots[msg.sender].requestIndex.add(1);\n    federationStakes[msg.sender].stake = federationMinimumStake;\n  }\n\n  function voteFederationJoin(address addr) public callerMustBeFederated(){\n    require(federationJoinBallots[addr].requestIndex > 0, \"Index must be greater than 0\");\n    uint256 index = federationJoinBallots[addr].requestIndex;\n    require(federationJoinBallots[addr].used[index] == false, \"This join request has already been resolved\");\n    bytes32 approver = keccak256(abi.encode(index, msg.sender));\n    require(federationJoinBallots[addr].approvers[approver] == false, \"You cannot vote twice\");\n\n    federationJoinBallots[addr].approvers[approver] = true;\n    federationJoinBallots[addr].approvals[index] = federationJoinBallots[addr].approvals[index].add(federationStakes[msg.sender].stake);\n  }\n\n  function resolveFederationJoin(bool commit) public callerMustHaveStake() callerCannotBeFederated() {\n    uint256 index = federationJoinBallots[msg.sender].requestIndex;\n    require(index > 0, \"Index must be greater than 0\");\n    require(federationJoinBallots[msg.sender].used[index] == false, \"This join request has already been resolved\");\n\n    federationJoinBallots[msg.sender].used[index] = true;\n    if(commit){\n      require(federationJoinBallots[msg.sender].approvals[index] > totalStake.div(2), \"Voting stake is not enough\"); // Untested\n      federationStakes[msg.sender].approved = true;\n      totalStake = totalStake.add(federationStakes[msg.sender].stake);\n    }else{\n      _withdrawStake(msg.sender);\n    }\n  }\n\n  // Federation minimum stake modification process\n\n  function getCurrentFederationStakeRequirement() public view returns (uint256){\n    return federationMinimumStake;\n  }\n\n  function newStakingBallot(uint256 stake) public callerMustBeFederated() {\n\n    FederationStakingBallot memory ballot = FederationStakingBallot({\n      stake: stake,\n      approved: false,\n      proposer: msg.sender,\n      approvals: federationStakes[msg.sender].stake,\n      deadline: (block.timestamp + 1 days)\n    });\n\n    federationStakingBallots.push(ballot);\n  }\n\n  function voteStakingBallot(uint256 index) public callerMustBeFederated stakingBallotIsValid(index) {\n    require(!federationStakingBallots[index].approvers[msg.sender] && msg.sender != federationStakingBallots[index].proposer, \"You cannot vote twice\");\n    federationStakingBallots[index].approvers[msg.sender] = true;\n    federationStakingBallots[index].approvals = federationStakingBallots[index].approvals.add(federationStakes[msg.sender].stake);\n  }\n\n  function resolveStakingBallot(uint256 index) public callerMustBeFederated() stakingBallotIsValid(index){\n    require(federationStakingBallots[index].approvals >\n      totalStake.div(2),\n      \"Voting stake is not enough\"\n    );\n\n    federationStakingBallots[index].approved = true;\n    federationMinimumStake = federationStakingBallots[index].stake;\n\n  }\n\n  function getStakingBallotsCount() public view returns (uint256){\n    return federationStakingBallots.length;\n  }\n\n  // Rewards\n\n  function releaseRewards(address userAddress, uint256 reward) public callerMustBeFederated() {\n    if(totalSupply() + reward < maxSupply){\n      _mint(userAddress, reward);\n    }\n  }\n\n  // Getters\n\n  function getStatusForJoinFederationBallot(address addr, uint index) public view returns (bool) {\n    return federationJoinBallots[addr].used[index];\n  }\n\n  function getApprovalsForJoinFederationBallot(address addr, uint index) public view returns (uint) {\n    return federationJoinBallots[addr].approvals[index];\n  }\n\n  function getApproverForJoinFederationBallot(address addr, address approver, uint index) public view returns (bool) {\n    bytes32 approver = keccak256(abi.encode(index, approver));\n    return federationJoinBallots[addr].approvers[approver];\n  }\n\n  function isFederated(address addr) public view returns (bool) {\n    return federationStakes[addr].stake >= federationMinimumStake\n      && federationStakes[addr].approved;\n  }\n\n  function getApprovalsWithdrawRquest(address addr, uint index) public view returns (uint) {\n    return federationStakes[addr].withdrawApprovals[index];\n  }\n\n  function getApproverWithdrawRequest(address addr, address approver, uint index) public view returns (bool) {\n    bytes32 approver = keccak256(abi.encode(index, approver));\n    return federationStakes[addr].withdrawApprovers[approver];\n  }\n\n  function getApproverForStakingBallot(address approver, uint index) public view returns (bool) {\n    return federationStakingBallots[index].approvers[approver];\n  }\n\n  // Modifiers\n\n  modifier callerMustHaveStake() {\n    require(federationStakes[msg.sender].stake > 0, \"There is no stake for this address\");\n    _;\n  }\n\n  modifier callerCannotHaveStake() {\n    require(federationStakes[msg.sender].stake == 0, \"First withdraw your stake\");\n    _;\n  }\n\n  modifier callerMustBeApproved() {\n    require(federationStakes[msg.sender].approved, \"Caller must be approved to join the federation\");\n    _;\n  }\n\n  modifier callerMustBeFederated() {\n    require(isFederated(msg.sender),\n      \"Caller must be part of the federation\");\n    _;\n  }\n\n  modifier callerCannotBeFederated() {\n    require(!federationStakes[msg.sender].approved,\n      \"Caller cannot be part of the federation\");\n    _;\n  }\n\n  modifier stakingBallotIsValid(uint256 index){\n    require(index < federationStakingBallots.length, \"Index does not exist\");\n    require(now <= federationStakingBallots[index].deadline, \"The deadline has passed\");\n    require(federationStakingBallots[index].approved == false, \"This ballot has already been approved\"); // Untested\n    _;\n  }\n\n}\n",
  "sourcePath": "/home/mad/geodb/fabric/ethereum/contracts/GeoDB.sol",
  "compiler": {
    "name": "solc",
    "version": "0.5.2+commit.1df8f40c.Emscripten.clang"
  },
  "schemaVersion": "3.0.9",
  "updatedAt": "2019-05-20T13:44:04.722Z",
  "devdoc": {
    "methods": {
      "allowance(address,address)": {
        "details": "Function to check the amount of tokens that an owner allowed to a spender.",
        "params": {
          "owner": "address The address which owns the funds.",
          "spender": "address The address which will spend the funds."
        },
        "return": "A uint256 specifying the amount of tokens still available for the spender."
      },
      "approve(address,uint256)": {
        "details": "Approve the passed address to spend the specified amount of tokens on behalf of msg.sender. Beware that changing an allowance with this method brings the risk that someone may use both the old and the new allowance by unfortunate transaction ordering. One possible solution to mitigate this race condition is to first reduce the spender's allowance to 0 and set the desired value afterwards: https://github.com/ethereum/EIPs/issues/20#issuecomment-263524729",
        "params": {
          "spender": "The address which will spend the funds.",
          "value": "The amount of tokens to be spent."
        }
      },
      "balanceOf(address)": {
        "details": "Gets the balance of the specified address.",
        "params": {
          "owner": "The address to query the balance of."
        },
        "return": "A uint256 representing the amount owned by the passed address."
      },
      "burn(uint256)": {
        "details": "Burns a specific amount of tokens.",
        "params": {
          "value": "The amount of token to be burned."
        }
      },
      "burnFrom(address,uint256)": {
        "details": "Burns a specific amount of tokens from the target address and decrements allowance.",
        "params": {
          "from": "address The account whose tokens will be burned.",
          "value": "uint256 The amount of token to be burned."
        }
      },
      "decreaseAllowance(address,uint256)": {
        "details": "Decrease the amount of tokens that an owner allowed to a spender. approve should be called when _allowed[msg.sender][spender] == 0. To decrement allowed value is better to use this function to avoid 2 calls (and wait until the first transaction is mined) From MonolithDAO Token.sol Emits an Approval event.",
        "params": {
          "spender": "The address which will spend the funds.",
          "subtractedValue": "The amount of tokens to decrease the allowance by."
        }
      },
      "increaseAllowance(address,uint256)": {
        "details": "Increase the amount of tokens that an owner allowed to a spender. approve should be called when _allowed[msg.sender][spender] == 0. To increment allowed value is better to use this function to avoid 2 calls (and wait until the first transaction is mined) From MonolithDAO Token.sol Emits an Approval event.",
        "params": {
          "addedValue": "The amount of tokens to increase the allowance by.",
          "spender": "The address which will spend the funds."
        }
      },
      "isOwner()": {
        "return": "true if `msg.sender` is the owner of the contract."
      },
      "owner()": {
        "return": "the address of the owner."
      },
      "renounceOwnership()": {
        "details": "Allows the current owner to relinquish control of the contract. It will not be possible to call the functions with the `onlyOwner` modifier anymore."
      },
      "totalSupply()": {
        "details": "Total number of tokens in existence."
      },
      "transfer(address,uint256)": {
        "details": "Transfer token to a specified address.",
        "params": {
          "to": "The address to transfer to.",
          "value": "The amount to be transferred."
        }
      },
      "transferFrom(address,address,uint256)": {
        "details": "Transfer tokens from one address to another. Note that while this function emits an Approval event, this is not required as per the specification, and other compliant implementations may not emit the event.",
        "params": {
          "from": "address The address which you want to send tokens from",
          "to": "address The address which you want to transfer to",
          "value": "uint256 the amount of tokens to be transferred"
        }
      },
      "transferOwnership(address)": {
        "details": "Allows the current owner to transfer control of the contract to a newOwner.",
        "params": {
          "newOwner": "The address to transfer ownership to."
        }
      }
    },
    "title": "GeoDB ERC20 Token"
  },
  "userdoc": {
    "methods": {
      "renounceOwnership()": {
        "notice": "Renouncing ownership will leave the contract without an owner, thereby removing any functionality that is only available to the owner."
      }
    }
  }
}