{
  "contractName": "GeoDB",
  "abi": [
    {
      "constant": true,
      "inputs": [],
      "name": "name",
      "outputs": [
        {
          "name": "",
          "type": "string"
        }
      ],
      "payable": false,
      "stateMutability": "view",
      "type": "function"
    },
    {
      "constant": false,
      "inputs": [
        {
          "name": "spender",
          "type": "address"
        },
        {
          "name": "value",
          "type": "uint256"
        }
      ],
      "name": "approve",
      "outputs": [
        {
          "name": "",
          "type": "bool"
        }
      ],
      "payable": false,
      "stateMutability": "nonpayable",
      "type": "function"
    },
    {
      "constant": true,
      "inputs": [],
      "name": "totalSupply",
      "outputs": [
        {
          "name": "",
          "type": "uint256"
        }
      ],
      "payable": false,
      "stateMutability": "view",
      "type": "function"
    },
    {
      "constant": false,
      "inputs": [
        {
          "name": "from",
          "type": "address"
        },
        {
          "name": "to",
          "type": "address"
        },
        {
          "name": "value",
          "type": "uint256"
        }
      ],
      "name": "transferFrom",
      "outputs": [
        {
          "name": "",
          "type": "bool"
        }
      ],
      "payable": false,
      "stateMutability": "nonpayable",
      "type": "function"
    },
    {
      "constant": true,
      "inputs": [
        {
          "name": "",
          "type": "uint256"
        }
      ],
      "name": "federationStakeProposals",
      "outputs": [
        {
          "name": "",
          "type": "uint256"
        }
      ],
      "payable": false,
      "stateMutability": "view",
      "type": "function"
    },
    {
      "constant": true,
      "inputs": [],
      "name": "decimals",
      "outputs": [
        {
          "name": "",
          "type": "uint32"
        }
      ],
      "payable": false,
      "stateMutability": "view",
      "type": "function"
    },
    {
      "constant": true,
      "inputs": [],
      "name": "initialStakeRequirement",
      "outputs": [
        {
          "name": "",
          "type": "uint256"
        }
      ],
      "payable": false,
      "stateMutability": "view",
      "type": "function"
    },
    {
      "constant": false,
      "inputs": [
        {
          "name": "spender",
          "type": "address"
        },
        {
          "name": "addedValue",
          "type": "uint256"
        }
      ],
      "name": "increaseAllowance",
      "outputs": [
        {
          "name": "",
          "type": "bool"
        }
      ],
      "payable": false,
      "stateMutability": "nonpayable",
      "type": "function"
    },
    {
      "constant": true,
      "inputs": [
        {
          "name": "",
          "type": "uint256"
        }
      ],
      "name": "federationStakingBallots",
      "outputs": [
        {
          "name": "stake",
          "type": "uint256"
        },
        {
          "name": "approved",
          "type": "bool"
        },
        {
          "name": "block",
          "type": "uint256"
        }
      ],
      "payable": false,
      "stateMutability": "view",
      "type": "function"
    },
    {
      "constant": true,
      "inputs": [
        {
          "name": "owner",
          "type": "address"
        }
      ],
      "name": "balanceOf",
      "outputs": [
        {
          "name": "",
          "type": "uint256"
        }
      ],
      "payable": false,
      "stateMutability": "view",
      "type": "function"
    },
    {
      "constant": false,
      "inputs": [],
      "name": "renounceOwnership",
      "outputs": [],
      "payable": false,
      "stateMutability": "nonpayable",
      "type": "function"
    },
    {
      "constant": true,
      "inputs": [
        {
          "name": "",
          "type": "address"
        }
      ],
      "name": "federationStakes",
      "outputs": [
        {
          "name": "stake",
          "type": "uint256"
        },
        {
          "name": "approved",
          "type": "bool"
        },
        {
          "name": "releaseRequestIndex",
          "type": "uint16"
        }
      ],
      "payable": false,
      "stateMutability": "view",
      "type": "function"
    },
    {
      "constant": true,
      "inputs": [],
      "name": "totalStake",
      "outputs": [
        {
          "name": "",
          "type": "uint256"
        }
      ],
      "payable": false,
      "stateMutability": "view",
      "type": "function"
    },
    {
      "constant": true,
      "inputs": [],
      "name": "owner",
      "outputs": [
        {
          "name": "",
          "type": "address"
        }
      ],
      "payable": false,
      "stateMutability": "view",
      "type": "function"
    },
    {
      "constant": true,
      "inputs": [],
      "name": "isOwner",
      "outputs": [
        {
          "name": "",
          "type": "bool"
        }
      ],
      "payable": false,
      "stateMutability": "view",
      "type": "function"
    },
    {
      "constant": true,
      "inputs": [],
      "name": "symbol",
      "outputs": [
        {
          "name": "",
          "type": "string"
        }
      ],
      "payable": false,
      "stateMutability": "view",
      "type": "function"
    },
    {
      "constant": true,
      "inputs": [],
      "name": "currentFederationStakeProposal",
      "outputs": [
        {
          "name": "",
          "type": "uint256"
        }
      ],
      "payable": false,
      "stateMutability": "view",
      "type": "function"
    },
    {
      "constant": false,
      "inputs": [
        {
          "name": "spender",
          "type": "address"
        },
        {
          "name": "subtractedValue",
          "type": "uint256"
        }
      ],
      "name": "decreaseAllowance",
      "outputs": [
        {
          "name": "",
          "type": "bool"
        }
      ],
      "payable": false,
      "stateMutability": "nonpayable",
      "type": "function"
    },
    {
      "constant": false,
      "inputs": [
        {
          "name": "to",
          "type": "address"
        },
        {
          "name": "value",
          "type": "uint256"
        }
      ],
      "name": "transfer",
      "outputs": [
        {
          "name": "",
          "type": "bool"
        }
      ],
      "payable": false,
      "stateMutability": "nonpayable",
      "type": "function"
    },
    {
      "constant": true,
      "inputs": [],
      "name": "maxSupply",
      "outputs": [
        {
          "name": "",
          "type": "uint256"
        }
      ],
      "payable": false,
      "stateMutability": "view",
      "type": "function"
    },
    {
      "constant": true,
      "inputs": [
        {
          "name": "owner",
          "type": "address"
        },
        {
          "name": "spender",
          "type": "address"
        }
      ],
      "name": "allowance",
      "outputs": [
        {
          "name": "",
          "type": "uint256"
        }
      ],
      "payable": false,
      "stateMutability": "view",
      "type": "function"
    },
    {
      "constant": false,
      "inputs": [
        {
          "name": "newOwner",
          "type": "address"
        }
      ],
      "name": "transferOwnership",
      "outputs": [],
      "payable": false,
      "stateMutability": "nonpayable",
      "type": "function"
    },
    {
      "inputs": [],
      "payable": false,
      "stateMutability": "nonpayable",
      "type": "constructor"
    },
    {
      "anonymous": false,
      "inputs": [
        {
          "indexed": true,
          "name": "previousOwner",
          "type": "address"
        },
        {
          "indexed": true,
          "name": "newOwner",
          "type": "address"
        }
      ],
      "name": "OwnershipTransferred",
      "type": "event"
    },
    {
      "anonymous": false,
      "inputs": [
        {
          "indexed": true,
          "name": "from",
          "type": "address"
        },
        {
          "indexed": true,
          "name": "to",
          "type": "address"
        },
        {
          "indexed": false,
          "name": "value",
          "type": "uint256"
        }
      ],
      "name": "Transfer",
      "type": "event"
    },
    {
      "anonymous": false,
      "inputs": [
        {
          "indexed": true,
          "name": "owner",
          "type": "address"
        },
        {
          "indexed": true,
          "name": "spender",
          "type": "address"
        },
        {
          "indexed": false,
          "name": "value",
          "type": "uint256"
        }
      ],
      "name": "Approval",
      "type": "event"
    },
    {
      "constant": true,
      "inputs": [],
      "name": "getCurrentFederationStakeRequirement",
      "outputs": [
        {
          "name": "",
          "type": "uint256"
        }
      ],
      "payable": false,
      "stateMutability": "view",
      "type": "function"
    },
    {
      "constant": false,
      "inputs": [
        {
          "name": "amount",
          "type": "uint256"
        }
      ],
      "name": "federationStakeLock",
      "outputs": [
        {
          "name": "",
          "type": "uint256"
        }
      ],
      "payable": false,
      "stateMutability": "nonpayable",
      "type": "function"
    },
    {
      "constant": false,
      "inputs": [],
      "name": "federationStakeWithdraw",
      "outputs": [],
      "payable": false,
      "stateMutability": "nonpayable",
      "type": "function"
    },
    {
      "constant": true,
      "inputs": [],
      "name": "getStake",
      "outputs": [
        {
          "name": "",
          "type": "uint256"
        }
      ],
      "payable": false,
      "stateMutability": "view",
      "type": "function"
    },
    {
      "constant": false,
      "inputs": [],
      "name": "requestStakeWithdrawal",
      "outputs": [],
      "payable": false,
      "stateMutability": "nonpayable",
      "type": "function"
    },
    {
      "constant": false,
      "inputs": [
        {
          "name": "addr",
          "type": "address"
        },
        {
          "name": "index",
          "type": "uint16"
        }
      ],
      "name": "voteStakeWithdrawalRequest",
      "outputs": [],
      "payable": false,
      "stateMutability": "nonpayable",
      "type": "function"
    },
    {
      "constant": false,
      "inputs": [
        {
          "name": "stake",
          "type": "uint256"
        }
      ],
      "name": "newStakingBallot",
      "outputs": [],
      "payable": false,
      "stateMutability": "nonpayable",
      "type": "function"
    },
    {
      "constant": false,
      "inputs": [
        {
          "name": "userAddress",
          "type": "address"
        },
        {
          "name": "reward",
          "type": "uint256"
        }
      ],
      "name": "releaseRewards",
      "outputs": [],
      "payable": false,
      "stateMutability": "nonpayable",
      "type": "function"
    }
  ],
  "bytecode": "0x60806040526040805190810160405280600381526020017f47454f000000000000000000000000000000000000000000000000000000000081525060049080519060200190620000519291906200044c565b503480156200005f57600080fd5b5033600360006101000a81548173ffffffffffffffffffffffffffffffffffffffff021916908373ffffffffffffffffffffffffffffffffffffffff160217905550600360009054906101000a900473ffffffffffffffffffffffffffffffffffffffff1673ffffffffffffffffffffffffffffffffffffffff16600073ffffffffffffffffffffffffffffffffffffffff167f8be0079c531659141344cd1fd0a4f28419497f9722a3daafe3b4186f6b6457e060405160405180910390a36200013f336509184e72a000620002b5640100000000026401000000009004565b60006006819055506005620186a09080600181540180825580915050906001820390600052602060002001600090919290919091505550620001ac30600560008154811015156200018c57fe5b9060005260206000200154620002b5640100000000026401000000009004565b6001600860003373ffffffffffffffffffffffffffffffffffffffff1673ffffffffffffffffffffffffffffffffffffffff16815260200190815260200160002060010160006101000a81548160ff02191690831515021790555062000247600560008154811015156200021c57fe5b90600052602060002001546007546200042a64010000000002620022a8179091906401000000009004565b600781905550600560008154811015156200025e57fe5b9060005260206000200154600860003373ffffffffffffffffffffffffffffffffffffffff1673ffffffffffffffffffffffffffffffffffffffff16815260200190815260200160002060000181905550620004fb565b600073ffffffffffffffffffffffffffffffffffffffff168273ffffffffffffffffffffffffffffffffffffffff1614151515620002f257600080fd5b62000317816002546200042a64010000000002620022a8179091906401000000009004565b6002819055506200037e816000808573ffffffffffffffffffffffffffffffffffffffff1673ffffffffffffffffffffffffffffffffffffffff168152602001908152602001600020546200042a64010000000002620022a8179091906401000000009004565b6000808473ffffffffffffffffffffffffffffffffffffffff1673ffffffffffffffffffffffffffffffffffffffff168152602001908152602001600020819055508173ffffffffffffffffffffffffffffffffffffffff16600073ffffffffffffffffffffffffffffffffffffffff167fddf252ad1be2c89b69c2b068fc378daa952ba7f163c4a11628f55a4df523b3ef836040518082815260200191505060405180910390a35050565b60008082840190508381101515156200044257600080fd5b8091505092915050565b828054600181600116156101000203166002900490600052602060002090601f016020900481019282601f106200048f57805160ff1916838001178555620004c0565b82800160010185558215620004c0579182015b82811115620004bf578251825591602001919060010190620004a2565b5b509050620004cf9190620004d3565b5090565b620004f891905b80821115620004f4576000816000905550600101620004da565b5090565b90565b61286f806200050b6000396000f3fe608060405234801561001057600080fd5b50600436106101f7576000357c0100000000000000000000000000000000000000000000000000000000900480638b0e9f3f11610121578063a9059cbb116100bf578063dd62ed3e1161008e578063dd62ed3e146108aa578063ddbf885514610922578063f2fde38b14610970578063fc0e3d90146109b4576101f7565b8063a9059cbb146107a6578063c0de2fb31461080c578063c5399cfb1461085e578063d5abeb011461088c576101f7565b806395d89b41116100fb57806395d89b411461068157806396cf6d10146107045780639caedcbd14610722578063a457c2d714610740576101f7565b80638b0e9f3f146105f75780638da5cb5b146106155780638f32d59b1461065f576101f7565b806339509351116101995780636de6e598116101685780636de6e5981461051957806370a0823114610523578063715018a61461057b57806389f6360014610585576101f7565b806339509351146104135780633d8f2eb41461047957806354591867146104bb5780635eaab7b51461050f576101f7565b806323b872dd116101d557806323b872dd1461030357806326568ae714610389578063313ce567146103cb57806338a58d4d146103f5576101f7565b806306fdde03146101fc578063095ea7b31461027f57806318160ddd146102e5575b600080fd5b6102046109d2565b6040518080602001828103825283818151815260200191508051906020019080838360005b83811015610244578082015181840152602081019050610229565b50505050905090810190601f1680156102715780820380516001836020036101000a031916815260200191505b509250505060405180910390f35b6102cb6004803603604081101561029557600080fd5b81019080803573ffffffffffffffffffffffffffffffffffffffff16906020019092919080359060200190929190505050610a0b565b604051808215151515815260200191505060405180910390f35b6102ed610a22565b6040518082815260200191505060405180910390f35b61036f6004803603606081101561031957600080fd5b81019080803573ffffffffffffffffffffffffffffffffffffffff169060200190929190803573ffffffffffffffffffffffffffffffffffffffff16906020019092919080359060200190929190505050610a2c565b604051808215151515815260200191505060405180910390f35b6103b56004803603602081101561039f57600080fd5b8101908080359060200190929190505050610add565b6040518082815260200191505060405180910390f35b6103d3610b00565b604051808263ffffffff1663ffffffff16815260200191505060405180910390f35b6103fd610b05565b6040518082815260200191505060405180910390f35b61045f6004803603604081101561042957600080fd5b81019080803573ffffffffffffffffffffffffffffffffffffffff16906020019092919080359060200190929190505050610b0c565b604051808215151515815260200191505060405180910390f35b6104a56004803603602081101561048f57600080fd5b8101908080359060200190929190505050610bb1565b6040518082815260200191505060405180910390f35b6104e7600480360360208110156104d157600080fd5b8101908080359060200190929190505050610d6d565b6040518084815260200183151515158152602001828152602001935050505060405180910390f35b610517610db3565b005b61052161116b565b005b6105656004803603602081101561053957600080fd5b81019080803573ffffffffffffffffffffffffffffffffffffffff169060200190929190505050611388565b6040518082815260200191505060405180910390f35b6105836113d0565b005b6105c76004803603602081101561059b57600080fd5b81019080803573ffffffffffffffffffffffffffffffffffffffff1690602001909291905050506114a4565b60405180848152602001831515151581526020018261ffff1661ffff168152602001935050505060405180910390f35b6105ff6114e9565b6040518082815260200191505060405180910390f35b61061d6114ef565b604051808273ffffffffffffffffffffffffffffffffffffffff1673ffffffffffffffffffffffffffffffffffffffff16815260200191505060405180910390f35b610667611519565b604051808215151515815260200191505060405180910390f35b610689611571565b6040518080602001828103825283818151815260200191508051906020019080838360005b838110156106c95780820151818401526020810190506106ae565b50505050905090810190601f1680156106f65780820380516001836020036101000a031916815260200191505b509250505060405180910390f35b61070c61160f565b6040518082815260200191505060405180910390f35b61072a611632565b6040518082815260200191505060405180910390f35b61078c6004803603604081101561075657600080fd5b81019080803573ffffffffffffffffffffffffffffffffffffffff16906020019092919080359060200190929190505050611638565b604051808215151515815260200191505060405180910390f35b6107f2600480360360408110156107bc57600080fd5b81019080803573ffffffffffffffffffffffffffffffffffffffff169060200190929190803590602001909291905050506116dd565b604051808215151515815260200191505060405180910390f35b61085c6004803603604081101561082257600080fd5b81019080803573ffffffffffffffffffffffffffffffffffffffff169060200190929190803561ffff1690602001909291905050506116f4565b005b61088a6004803603602081101561087457600080fd5b8101908080359060200190929190505050611c24565b005b610894611d4f565b6040518082815260200191505060405180910390f35b61090c600480360360408110156108c057600080fd5b81019080803573ffffffffffffffffffffffffffffffffffffffff169060200190929190803573ffffffffffffffffffffffffffffffffffffffff169060200190929190505050611d59565b6040518082815260200191505060405180910390f35b61096e6004803603604081101561093857600080fd5b81019080803573ffffffffffffffffffffffffffffffffffffffff16906020019092919080359060200190929190505050611de0565b005b6109b26004803603602081101561098657600080fd5b81019080803573ffffffffffffffffffffffffffffffffffffffff169060200190929190505050611eee565b005b6109bc611f0d565b6040518082815260200191505060405180910390f35b6040805190810160405280600b81526020017f47656f444220546f6b656e00000000000000000000000000000000000000000081525081565b6000610a18338484611f57565b6001905092915050565b6000600254905090565b6000610a398484846120ba565b610ad28433610acd85600160008a73ffffffffffffffffffffffffffffffffffffffff1673ffffffffffffffffffffffffffffffffffffffff16815260200190815260200160002060003373ffffffffffffffffffffffffffffffffffffffff1673ffffffffffffffffffffffffffffffffffffffff1681526020019081526020016000205461228690919063ffffffff16565b611f57565b600190509392505050565b600581815481101515610aec57fe5b906000526020600020016000915090505481565b600581565b620186a081565b6000610ba73384610ba285600160003373ffffffffffffffffffffffffffffffffffffffff1673ffffffffffffffffffffffffffffffffffffffff16815260200190815260200160002060008973ffffffffffffffffffffffffffffffffffffffff1673ffffffffffffffffffffffffffffffffffffffff168152602001908152602001600020546122a890919063ffffffff16565b611f57565b6001905092915050565b60006001600860003373ffffffffffffffffffffffffffffffffffffffff1673ffffffffffffffffffffffffffffffffffffffff16815260200190815260200160002060010160006101000a81548160ff0219169083151502179055506000610c6583600860003373ffffffffffffffffffffffffffffffffffffffff1673ffffffffffffffffffffffffffffffffffffffff168152602001908152602001600020600001546122a890919063ffffffff16565b90506005600654815481101515610c7857fe5b90600052602060002001548110151515610cfa576040517f08c379a000000000000000000000000000000000000000000000000000000000815260040180806020018281038252601b8152602001807f5374616b656420616d6f756e74206973206e6f7420656e6f756768000000000081525060200191505060405180910390fd5b610d0430846116dd565b50610d1a836007546122a890919063ffffffff16565b60078190555080600860003373ffffffffffffffffffffffffffffffffffffffff1673ffffffffffffffffffffffffffffffffffffffff1681526020019081526020016000206000018190555050919050565b600981815481101515610d7c57fe5b90600052602060002090600402016000915090508060000154908060010160009054906101000a900460ff16908060030154905083565b6000600860003373ffffffffffffffffffffffffffffffffffffffff1673ffffffffffffffffffffffffffffffffffffffff16815260200190815260200160002060000154111515610e50576040517f08c379a00000000000000000000000000000000000000000000000000000000081526004018080602001828103825260228152602001806127d46022913960400191505060405180910390fd5b60001515600860003373ffffffffffffffffffffffffffffffffffffffff1673ffffffffffffffffffffffffffffffffffffffff16815260200190815260200160002060010160009054906101000a900460ff1615151415610eba57610eb5336122c9565b611169565b6000600860003373ffffffffffffffffffffffffffffffffffffffff1673ffffffffffffffffffffffffffffffffffffffff16815260200190815260200160002060040160009054906101000a900461ffff1661ffff16111515610f86576040517f08c379a000000000000000000000000000000000000000000000000000000000815260040180806020018281038252601e8152602001807f52657175657374207374616b65207769746864726177616c206669727374000081525060200191505060405180910390fd5b610f9c600260075461244190919063ffffffff16565b600860003373ffffffffffffffffffffffffffffffffffffffff1673ffffffffffffffffffffffffffffffffffffffff16815260200190815260200160002060000154600860003373ffffffffffffffffffffffffffffffffffffffff1673ffffffffffffffffffffffffffffffffffffffff1681526020019081526020016000206002016000600860003373ffffffffffffffffffffffffffffffffffffffff1673ffffffffffffffffffffffffffffffffffffffff16815260200190815260200160002060040160009054906101000a900461ffff1661ffff1661ffff168152602001908152602001600020540110151515611102576040517f08c379a000000000000000000000000000000000000000000000000000000000815260040180806020018281038252601a8152602001807f566f74696e67207374616b65206973206e6f7420656e6f75676800000000000081525060200191505060405180910390fd5b611159600860003373ffffffffffffffffffffffffffffffffffffffff1673ffffffffffffffffffffffffffffffffffffffff1681526020019081526020016000206000015460075461228690919063ffffffff16565b600781905550611168336122c9565b5b565b6000600860003373ffffffffffffffffffffffffffffffffffffffff1673ffffffffffffffffffffffffffffffffffffffff16815260200190815260200160002060000154111515611208576040517f08c379a00000000000000000000000000000000000000000000000000000000081526004018080602001828103825260228152602001806127d46022913960400191505060405180910390fd5b61ffff600860003373ffffffffffffffffffffffffffffffffffffffff1673ffffffffffffffffffffffffffffffffffffffff16815260200190815260200160002060040160009054906101000a900461ffff1661ffff16141515156112d6576040517f08c379a000000000000000000000000000000000000000000000000000000000815260040180806020018281038252601b8152602001807f5769746864726177616c2072657175657374206465706c65746564000000000081525060200191505060405180910390fd5b6001600860003373ffffffffffffffffffffffffffffffffffffffff1673ffffffffffffffffffffffffffffffffffffffff16815260200190815260200160002060040160009054906101000a900461ffff1601600860003373ffffffffffffffffffffffffffffffffffffffff1673ffffffffffffffffffffffffffffffffffffffff16815260200190815260200160002060040160006101000a81548161ffff021916908361ffff160217905550565b60008060008373ffffffffffffffffffffffffffffffffffffffff1673ffffffffffffffffffffffffffffffffffffffff168152602001908152602001600020549050919050565b6113d8611519565b15156113e357600080fd5b600073ffffffffffffffffffffffffffffffffffffffff16600360009054906101000a900473ffffffffffffffffffffffffffffffffffffffff1673ffffffffffffffffffffffffffffffffffffffff167f8be0079c531659141344cd1fd0a4f28419497f9722a3daafe3b4186f6b6457e060405160405180910390a36000600360006101000a81548173ffffffffffffffffffffffffffffffffffffffff021916908373ffffffffffffffffffffffffffffffffffffffff160217905550565b60086020528060005260406000206000915090508060000154908060010160009054906101000a900460ff16908060040160009054906101000a900461ffff16905083565b60075481565b6000600360009054906101000a900473ffffffffffffffffffffffffffffffffffffffff16905090565b6000600360009054906101000a900473ffffffffffffffffffffffffffffffffffffffff1673ffffffffffffffffffffffffffffffffffffffff163373ffffffffffffffffffffffffffffffffffffffff1614905090565b60048054600181600116156101000203166002900480601f0160208091040260200160405190810160405280929190818152602001828054600181600116156101000203166002900480156116075780601f106115dc57610100808354040283529160200191611607565b820191906000526020600020905b8154815290600101906020018083116115ea57829003601f168201915b505050505081565b6000600560065481548110151561162257fe5b9060005260206000200154905090565b60065481565b60006116d333846116ce85600160003373ffffffffffffffffffffffffffffffffffffffff1673ffffffffffffffffffffffffffffffffffffffff16815260200190815260200160002060008973ffffffffffffffffffffffffffffffffffffffff1673ffffffffffffffffffffffffffffffffffffffff1681526020019081526020016000205461228690919063ffffffff16565b611f57565b6001905092915050565b60006116ea3384846120ba565b6001905092915050565b600560065481548110151561170557fe5b9060005260206000200154600860003373ffffffffffffffffffffffffffffffffffffffff1673ffffffffffffffffffffffffffffffffffffffff16815260200190815260200160002060000154101515156117ac576040517f08c379a00000000000000000000000000000000000000000000000000000000081526004018080602001828103825260258152602001806127af6025913960400191505060405180910390fd5b3373ffffffffffffffffffffffffffffffffffffffff168273ffffffffffffffffffffffffffffffffffffffff1614151515611833576040517f08c379a000000000000000000000000000000000000000000000000000000000815260040180806020018281038252604e8152602001806127f6604e913960600191505060405180910390fd5b60008161ffff161115156118af576040517f08c379a000000000000000000000000000000000000000000000000000000000815260040180806020018281038252601c8152602001807f496e646578206d7573742062652067726561746572207468616e20300000000081525060200191505060405180910390fd5b8061ffff16600860008473ffffffffffffffffffffffffffffffffffffffff1673ffffffffffffffffffffffffffffffffffffffff16815260200190815260200160002060040160009054906101000a900461ffff1661ffff16141515611961576040517f08c379a00000000000000000000000000000000000000000000000000000000081526004018080602001828103825260268152602001806127896026913960400191505060405180910390fd5b60008133604051602001808361ffff1661ffff1681526020018273ffffffffffffffffffffffffffffffffffffffff1673ffffffffffffffffffffffffffffffffffffffff1681526020019250505060405160208183030381529060405280519060200120905060001515600860008573ffffffffffffffffffffffffffffffffffffffff1673ffffffffffffffffffffffffffffffffffffffff168152602001908152602001600020600301600083815260200190815260200160002060009054906101000a900460ff161515141515611aa4576040517f08c379a00000000000000000000000000000000000000000000000000000000081526004018080602001828103825260158152602001807f596f752063616e6e6f7420766f7465207477696365000000000000000000000081525060200191505060405180910390fd5b611b54600860003373ffffffffffffffffffffffffffffffffffffffff1673ffffffffffffffffffffffffffffffffffffffff16815260200190815260200160002060000154600860008673ffffffffffffffffffffffffffffffffffffffff1673ffffffffffffffffffffffffffffffffffffffff16815260200190815260200160002060020160008561ffff1661ffff168152602001908152602001600020546122a890919063ffffffff16565b600860008573ffffffffffffffffffffffffffffffffffffffff1673ffffffffffffffffffffffffffffffffffffffff16815260200190815260200160002060020160008461ffff1661ffff168152602001908152602001600020819055506001600860008573ffffffffffffffffffffffffffffffffffffffff1673ffffffffffffffffffffffffffffffffffffffff168152602001908152602001600020600301600083815260200190815260200160002060006101000a81548160ff021916908315150217905550505050565b60606000604051908082528060200260200182016040528015611c565781602001602082028038833980820191505090505b50905033816000815181101515611c6957fe5b9060200190602002019073ffffffffffffffffffffffffffffffffffffffff16908173ffffffffffffffffffffffffffffffffffffffff1681525050600960806040519081016040528084815260200160001515815260200183815260200143815250908060018154018082558091505090600182039060005260206000209060040201600090919290919091506000820151816000015560208201518160010160006101000a81548160ff0219169083151502179055506040820151816002019080519060200190611d3d9291906126bb565b50606082015181600301555050505050565b655af3107a400081565b6000600160008473ffffffffffffffffffffffffffffffffffffffff1673ffffffffffffffffffffffffffffffffffffffff16815260200190815260200160002060008373ffffffffffffffffffffffffffffffffffffffff1673ffffffffffffffffffffffffffffffffffffffff16815260200190815260200160002054905092915050565b611de8611519565b1515611df357600080fd5b6005600654815481101515611e0457fe5b9060005260206000200154600860003373ffffffffffffffffffffffffffffffffffffffff1673ffffffffffffffffffffffffffffffffffffffff1681526020019081526020016000206000015410151515611ec8576040517f08c379a000000000000000000000000000000000000000000000000000000000815260040180806020018281038252601b8152602001807f5374616b656420616d6f756e74206973206e6f7420656e6f756768000000000081525060200191505060405180910390fd5b655af3107a400081611ed8610a22565b011015611eea57611ee9828261246b565b5b5050565b611ef6611519565b1515611f0157600080fd5b611f0a816125bf565b50565b6000600860003373ffffffffffffffffffffffffffffffffffffffff1673ffffffffffffffffffffffffffffffffffffffff16815260200190815260200160002060000154905090565b600073ffffffffffffffffffffffffffffffffffffffff168273ffffffffffffffffffffffffffffffffffffffff1614151515611f9357600080fd5b600073ffffffffffffffffffffffffffffffffffffffff168373ffffffffffffffffffffffffffffffffffffffff1614151515611fcf57600080fd5b80600160008573ffffffffffffffffffffffffffffffffffffffff1673ffffffffffffffffffffffffffffffffffffffff16815260200190815260200160002060008473ffffffffffffffffffffffffffffffffffffffff1673ffffffffffffffffffffffffffffffffffffffff168152602001908152602001600020819055508173ffffffffffffffffffffffffffffffffffffffff168373ffffffffffffffffffffffffffffffffffffffff167f8c5be1e5ebec7d5bd14f71427d1e84f3dd0314c0f7b2291e5b200ac8c7c3b925836040518082815260200191505060405180910390a3505050565b600073ffffffffffffffffffffffffffffffffffffffff168273ffffffffffffffffffffffffffffffffffffffff16141515156120f657600080fd5b612147816000808673ffffffffffffffffffffffffffffffffffffffff1673ffffffffffffffffffffffffffffffffffffffff1681526020019081526020016000205461228690919063ffffffff16565b6000808573ffffffffffffffffffffffffffffffffffffffff1673ffffffffffffffffffffffffffffffffffffffff168152602001908152602001600020819055506121da816000808573ffffffffffffffffffffffffffffffffffffffff1673ffffffffffffffffffffffffffffffffffffffff168152602001908152602001600020546122a890919063ffffffff16565b6000808473ffffffffffffffffffffffffffffffffffffffff1673ffffffffffffffffffffffffffffffffffffffff168152602001908152602001600020819055508173ffffffffffffffffffffffffffffffffffffffff168373ffffffffffffffffffffffffffffffffffffffff167fddf252ad1be2c89b69c2b068fc378daa952ba7f163c4a11628f55a4df523b3ef836040518082815260200191505060405180910390a3505050565b600082821115151561229757600080fd5b600082840390508091505092915050565b60008082840190508381101515156122bf57600080fd5b8091505092915050565b6000600860008373ffffffffffffffffffffffffffffffffffffffff1673ffffffffffffffffffffffffffffffffffffffff1681526020019081526020016000206000015490506000600860008473ffffffffffffffffffffffffffffffffffffffff1673ffffffffffffffffffffffffffffffffffffffff1681526020019081526020016000206000018190555060003090508073ffffffffffffffffffffffffffffffffffffffff1663a9059cbb84846040518363ffffffff167c0100000000000000000000000000000000000000000000000000000000028152600401808373ffffffffffffffffffffffffffffffffffffffff1673ffffffffffffffffffffffffffffffffffffffff16815260200182815260200192505050602060405180830381600087803b15801561240057600080fd5b505af1158015612414573d6000803e3d6000fd5b505050506040513d602081101561242a57600080fd5b810190808051906020019092919050505050505050565b6000808211151561245157600080fd5b6000828481151561245e57fe5b0490508091505092915050565b600073ffffffffffffffffffffffffffffffffffffffff168273ffffffffffffffffffffffffffffffffffffffff16141515156124a757600080fd5b6124bc816002546122a890919063ffffffff16565b600281905550612513816000808573ffffffffffffffffffffffffffffffffffffffff1673ffffffffffffffffffffffffffffffffffffffff168152602001908152602001600020546122a890919063ffffffff16565b6000808473ffffffffffffffffffffffffffffffffffffffff1673ffffffffffffffffffffffffffffffffffffffff168152602001908152602001600020819055508173ffffffffffffffffffffffffffffffffffffffff16600073ffffffffffffffffffffffffffffffffffffffff167fddf252ad1be2c89b69c2b068fc378daa952ba7f163c4a11628f55a4df523b3ef836040518082815260200191505060405180910390a35050565b600073ffffffffffffffffffffffffffffffffffffffff168173ffffffffffffffffffffffffffffffffffffffff16141515156125fb57600080fd5b8073ffffffffffffffffffffffffffffffffffffffff16600360009054906101000a900473ffffffffffffffffffffffffffffffffffffffff1673ffffffffffffffffffffffffffffffffffffffff167f8be0079c531659141344cd1fd0a4f28419497f9722a3daafe3b4186f6b6457e060405160405180910390a380600360006101000a81548173ffffffffffffffffffffffffffffffffffffffff021916908373ffffffffffffffffffffffffffffffffffffffff16021790555050565b828054828255906000526020600020908101928215612734579160200282015b828111156127335782518260006101000a81548173ffffffffffffffffffffffffffffffffffffffff021916908373ffffffffffffffffffffffffffffffffffffffff160217905550916020019190600101906126db565b5b5090506127419190612745565b5090565b61278591905b8082111561278157600081816101000a81549073ffffffffffffffffffffffffffffffffffffffff02191690555060010161274b565b5090565b9056fe496e646578206d75737420626520657175616c20746f2063757272656e74207265717565737443616c6c6572206d7573742062652070617274206f66207468652066656465726174696f6e5468657265206973206e6f207374616b6520666f7220746869732061646472657373596f757220766f7465732077696c6c206265206175746f6d61746963616c6c79206164646564207768656e20796f752063616c6c2066656465726174696f6e5374616b6557697468647261772829a165627a7a72305820f26ce465200db7db053430fca7eb0536813254d625fc54e33f21892c1b370d6e0029",
  "source": "pragma solidity ^0.5.2;\n\nimport \"openzeppelin-solidity/contracts/token/ERC20/ERC20.sol\";\nimport \"openzeppelin-solidity/contracts/token/ERC20/ERC20.sol\";\nimport \"openzeppelin-solidity/contracts/ownership/Ownable.sol\";\nimport \"./GeoDBClasses.sol\";\n\n/**\n* @title GeoDB ERC20 Token\n*/\ncontract GeoDB is GeoDBClasses, ERC20, Ownable{\n\n  // Contract constants\n\n  uint256 constant public maxSupply = 100000000000000;\n  uint32 constant public decimals = 5;\n  uint256 constant public initialStakeRequirement = 100000; // 1 GEO\n  string constant public name = \"GeoDB Token\";\n  string public symbol = \"GEO\";\n\n\n  // Federation\n\n  uint256[] public federationStakeProposals;\n  uint256 public currentFederationStakeProposal;\n  uint256 public totalStake;\n\n  mapping(address => FederationStake) public federationStakes;\n  FederationStakingBallot[] public federationStakingBallots;\n\n  constructor() public {\n    _mint(msg.sender, 10000000000000); // Team allocation\n    currentFederationStakeProposal = 0;\n    federationStakeProposals.push(initialStakeRequirement);\n\n    // Initial stake given to the owner\n    _mint(address(this), federationStakeProposals[0]);\n    federationStakes[msg.sender].approved = true;\n    totalStake = totalStake.add(federationStakeProposals[0]);\n    federationStakes[msg.sender].stake = federationStakeProposals[0];\n\n  }\n\n  function getCurrentFederationStakeRequirement() public view returns (uint256){\n    return federationStakeProposals[currentFederationStakeProposal];\n  }\n\n  function federationStakeLock(uint256 amount) public returns (uint256){\n\n    federationStakes[msg.sender].approved = true;\n\n    uint256 summedStakes = federationStakes[msg.sender].stake.add(amount);\n    require(summedStakes >= federationStakeProposals[currentFederationStakeProposal], \"Staked amount is not enough\");\n    transfer(address(this), amount);\n    totalStake = totalStake.add(amount);\n    federationStakes[msg.sender].stake = summedStakes;\n  }\n\n  function federationStakeWithdraw() public callerMustHaveStake {\n\n    if(federationStakes[msg.sender].approved == false){\n      withdrawStake(msg.sender);\n      return;\n    }\n\n    require(federationStakes[msg.sender].releaseRequestIndex > 0, \"Request stake withdrawal first\");\n    require(\n       federationStakes[msg.sender].withdrawApprovals[federationStakes[msg.sender].releaseRequestIndex]\n       + federationStakes[msg.sender].stake\n       >= totalStake.div(2), \"Voting stake is not enough\"\n     );\n\n    totalStake = totalStake.sub(federationStakes[msg.sender].stake);\n    withdrawStake(msg.sender);\n  }\n\n  function withdrawStake(address addr) internal {\n    uint256 stake = federationStakes[addr].stake;\n    federationStakes[addr].stake = 0;\n    GeoDB selfReference = GeoDB(address(this));\n    selfReference.transfer(addr, stake);\n  }\n\n  function getStake() public view returns(uint256){\n    return federationStakes[msg.sender].stake;\n  }\n\n  function requestStakeWithdrawal() public callerMustHaveStake {\n    require(federationStakes[msg.sender].releaseRequestIndex != 65535, \"Withdrawal request depleted\");\n    federationStakes[msg.sender].releaseRequestIndex = federationStakes[msg.sender].releaseRequestIndex + 1;\n  }\n\n  function voteStakeWithdrawalRequest(address addr, uint16 index) public callerMustBeFederated {\n    require(addr != msg.sender, \"Your votes will be automatically added when you call federationStakeWithdraw()\");\n    require(index > 0, \"Index must be greater than 0\");\n    require(federationStakes[addr].releaseRequestIndex == index, \"Index must be equal to current request\");\n    bytes32 withdrawApprover = keccak256(abi.encode(index, msg.sender));\n    require(federationStakes[addr].withdrawApprovers[withdrawApprover] == false, \"You cannot vote twice\");\n\n    federationStakes[addr].withdrawApprovals[index] = federationStakes[addr].withdrawApprovals[index].add(federationStakes[msg.sender].stake);\n    federationStakes[addr].withdrawApprovers[withdrawApprover] = true;\n\n\n  }\n\n  function newStakingBallot(uint256 stake) public {\n\n    address[] memory approvers = new address[](0);\n\n    approvers[0] = msg.sender;\n\n    federationStakingBallots.push(FederationStakingBallot({\n      stake: stake,\n      approved: false,\n      approvers: approvers,\n      block: block.number\n    }));\n  }\n\n\n\n  function releaseRewards(address userAddress, uint256 reward) public onlyOwner {\n    require(federationStakes[msg.sender].stake >= federationStakeProposals[currentFederationStakeProposal], \"Staked amount is not enough\");\n\n    if(totalSupply() + reward < maxSupply){\n      _mint(userAddress, reward);\n    }\n  }\n\n  modifier callerMustHaveStake() {\n    require(federationStakes[msg.sender].stake > 0, \"There is no stake for this address\");\n    _;\n  }\n\n  modifier callerMustBeFederated() {\n      require(federationStakes[msg.sender].stake >= federationStakeProposals[currentFederationStakeProposal], \"Caller must be part of the federation\");\n      _;\n  }\n\n}\n",
  "sourcePath": "/home/mad/geodb/fabric/ethereum/contracts/GeoDB.sol",
  "compiler": {
    "name": "solc",
    "version": "0.5.2+commit.1df8f40c.Emscripten.clang"
  },
  "schemaVersion": "3.0.9",
  "updatedAt": "2019-05-08T16:57:28.975Z",
  "devdoc": {
    "methods": {
      "allowance(address,address)": {
        "details": "Function to check the amount of tokens that an owner allowed to a spender.",
        "params": {
          "owner": "address The address which owns the funds.",
          "spender": "address The address which will spend the funds."
        },
        "return": "A uint256 specifying the amount of tokens still available for the spender."
      },
      "approve(address,uint256)": {
        "details": "Approve the passed address to spend the specified amount of tokens on behalf of msg.sender. Beware that changing an allowance with this method brings the risk that someone may use both the old and the new allowance by unfortunate transaction ordering. One possible solution to mitigate this race condition is to first reduce the spender's allowance to 0 and set the desired value afterwards: https://github.com/ethereum/EIPs/issues/20#issuecomment-263524729",
        "params": {
          "spender": "The address which will spend the funds.",
          "value": "The amount of tokens to be spent."
        }
      },
      "balanceOf(address)": {
        "details": "Gets the balance of the specified address.",
        "params": {
          "owner": "The address to query the balance of."
        },
        "return": "A uint256 representing the amount owned by the passed address."
      },
      "decreaseAllowance(address,uint256)": {
        "details": "Decrease the amount of tokens that an owner allowed to a spender. approve should be called when _allowed[msg.sender][spender] == 0. To decrement allowed value is better to use this function to avoid 2 calls (and wait until the first transaction is mined) From MonolithDAO Token.sol Emits an Approval event.",
        "params": {
          "spender": "The address which will spend the funds.",
          "subtractedValue": "The amount of tokens to decrease the allowance by."
        }
      },
      "increaseAllowance(address,uint256)": {
        "details": "Increase the amount of tokens that an owner allowed to a spender. approve should be called when _allowed[msg.sender][spender] == 0. To increment allowed value is better to use this function to avoid 2 calls (and wait until the first transaction is mined) From MonolithDAO Token.sol Emits an Approval event.",
        "params": {
          "addedValue": "The amount of tokens to increase the allowance by.",
          "spender": "The address which will spend the funds."
        }
      },
      "isOwner()": {
        "return": "true if `msg.sender` is the owner of the contract."
      },
      "owner()": {
        "return": "the address of the owner."
      },
      "renounceOwnership()": {
        "details": "Allows the current owner to relinquish control of the contract. It will not be possible to call the functions with the `onlyOwner` modifier anymore."
      },
      "totalSupply()": {
        "details": "Total number of tokens in existence"
      },
      "transfer(address,uint256)": {
        "details": "Transfer token to a specified address",
        "params": {
          "to": "The address to transfer to.",
          "value": "The amount to be transferred."
        }
      },
      "transferFrom(address,address,uint256)": {
        "details": "Transfer tokens from one address to another. Note that while this function emits an Approval event, this is not required as per the specification, and other compliant implementations may not emit the event.",
        "params": {
          "from": "address The address which you want to send tokens from",
          "to": "address The address which you want to transfer to",
          "value": "uint256 the amount of tokens to be transferred"
        }
      },
      "transferOwnership(address)": {
        "details": "Allows the current owner to transfer control of the contract to a newOwner.",
        "params": {
          "newOwner": "The address to transfer ownership to."
        }
      }
    },
    "title": "GeoDB ERC20 Token"
  },
  "userdoc": {
    "methods": {
      "renounceOwnership()": {
        "notice": "Renouncing ownership will leave the contract without an owner, thereby removing any functionality that is only available to the owner."
      }
    }
  }
}