{
  "contractName": "GeoFederation",
  "abi": [
    {
      "constant": true,
      "inputs": [
        {
          "name": "",
          "type": "address"
        }
      ],
      "name": "stakeRequirementBallots",
      "outputs": [
        {
          "name": "approvals",
          "type": "uint256"
        },
        {
          "name": "deadline",
          "type": "uint256"
        },
        {
          "name": "resolved",
          "type": "bool"
        }
      ],
      "payable": false,
      "stateMutability": "view",
      "type": "function"
    },
    {
      "constant": true,
      "inputs": [
        {
          "name": "",
          "type": "address"
        }
      ],
      "name": "federationExitBallots",
      "outputs": [
        {
          "name": "approvals",
          "type": "uint256"
        },
        {
          "name": "deadline",
          "type": "uint256"
        },
        {
          "name": "resolved",
          "type": "bool"
        }
      ],
      "payable": false,
      "stateMutability": "view",
      "type": "function"
    },
    {
      "constant": false,
      "inputs": [],
      "name": "renounceOwnership",
      "outputs": [],
      "payable": false,
      "stateMutability": "nonpayable",
      "type": "function"
    },
    {
      "constant": true,
      "inputs": [
        {
          "name": "",
          "type": "address"
        }
      ],
      "name": "federationStakes",
      "outputs": [
        {
          "name": "stake",
          "type": "uint256"
        },
        {
          "name": "approved",
          "type": "bool"
        }
      ],
      "payable": false,
      "stateMutability": "view",
      "type": "function"
    },
    {
      "constant": true,
      "inputs": [],
      "name": "totalStake",
      "outputs": [
        {
          "name": "",
          "type": "uint256"
        }
      ],
      "payable": false,
      "stateMutability": "view",
      "type": "function"
    },
    {
      "constant": true,
      "inputs": [],
      "name": "owner",
      "outputs": [
        {
          "name": "",
          "type": "address"
        }
      ],
      "payable": false,
      "stateMutability": "view",
      "type": "function"
    },
    {
      "constant": true,
      "inputs": [],
      "name": "isOwner",
      "outputs": [
        {
          "name": "",
          "type": "bool"
        }
      ],
      "payable": false,
      "stateMutability": "view",
      "type": "function"
    },
    {
      "constant": true,
      "inputs": [
        {
          "name": "",
          "type": "address"
        }
      ],
      "name": "federationJoinBallots",
      "outputs": [
        {
          "name": "approvals",
          "type": "uint256"
        },
        {
          "name": "deadline",
          "type": "uint256"
        },
        {
          "name": "resolved",
          "type": "bool"
        }
      ],
      "payable": false,
      "stateMutability": "view",
      "type": "function"
    },
    {
      "constant": true,
      "inputs": [
        {
          "name": "",
          "type": "address"
        }
      ],
      "name": "stakeProposals",
      "outputs": [
        {
          "name": "",
          "type": "uint256"
        }
      ],
      "payable": false,
      "stateMutability": "view",
      "type": "function"
    },
    {
      "constant": true,
      "inputs": [],
      "name": "federationMinimumStake",
      "outputs": [
        {
          "name": "",
          "type": "uint256"
        }
      ],
      "payable": false,
      "stateMutability": "view",
      "type": "function"
    },
    {
      "constant": false,
      "inputs": [
        {
          "name": "newOwner",
          "type": "address"
        }
      ],
      "name": "transferOwnership",
      "outputs": [],
      "payable": false,
      "stateMutability": "nonpayable",
      "type": "function"
    },
    {
      "inputs": [
        {
          "name": "tokenContract",
          "type": "address"
        }
      ],
      "payable": false,
      "stateMutability": "nonpayable",
      "type": "constructor"
    },
    {
      "anonymous": false,
      "inputs": [
        {
          "indexed": true,
          "name": "sender",
          "type": "address"
        },
        {
          "indexed": false,
          "name": "amount",
          "type": "uint256"
        },
        {
          "indexed": false,
          "name": "total",
          "type": "uint256"
        }
      ],
      "name": "LogIncreaseStake",
      "type": "event"
    },
    {
      "anonymous": false,
      "inputs": [
        {
          "indexed": true,
          "name": "sender",
          "type": "address"
        },
        {
          "indexed": false,
          "name": "stake",
          "type": "uint256"
        },
        {
          "indexed": false,
          "name": "deadline",
          "type": "uint256"
        }
      ],
      "name": "LogNewJoinBallot",
      "type": "event"
    },
    {
      "anonymous": false,
      "inputs": [
        {
          "indexed": true,
          "name": "sender",
          "type": "address"
        },
        {
          "indexed": true,
          "name": "ballot",
          "type": "address"
        },
        {
          "indexed": false,
          "name": "voteWeight",
          "type": "uint256"
        },
        {
          "indexed": false,
          "name": "approvals",
          "type": "uint256"
        }
      ],
      "name": "LogVoteJoinBallot",
      "type": "event"
    },
    {
      "anonymous": false,
      "inputs": [
        {
          "indexed": true,
          "name": "sender",
          "type": "address"
        },
        {
          "indexed": false,
          "name": "result",
          "type": "bool"
        }
      ],
      "name": "LogResolveJoinBallot",
      "type": "event"
    },
    {
      "anonymous": false,
      "inputs": [
        {
          "indexed": true,
          "name": "sender",
          "type": "address"
        },
        {
          "indexed": false,
          "name": "stake",
          "type": "uint256"
        }
      ],
      "name": "LogNewMember",
      "type": "event"
    },
    {
      "anonymous": false,
      "inputs": [
        {
          "indexed": true,
          "name": "sender",
          "type": "address"
        },
        {
          "indexed": false,
          "name": "deadline",
          "type": "uint256"
        }
      ],
      "name": "LogNewExitBallot",
      "type": "event"
    },
    {
      "anonymous": false,
      "inputs": [
        {
          "indexed": true,
          "name": "sender",
          "type": "address"
        },
        {
          "indexed": true,
          "name": "ballot",
          "type": "address"
        },
        {
          "indexed": false,
          "name": "voteWeight",
          "type": "uint256"
        },
        {
          "indexed": false,
          "name": "approvals",
          "type": "uint256"
        }
      ],
      "name": "LogVoteExitBallot",
      "type": "event"
    },
    {
      "anonymous": false,
      "inputs": [
        {
          "indexed": true,
          "name": "sender",
          "type": "address"
        },
        {
          "indexed": false,
          "name": "result",
          "type": "bool"
        }
      ],
      "name": "LogResolveExitBallot",
      "type": "event"
    },
    {
      "anonymous": false,
      "inputs": [
        {
          "indexed": true,
          "name": "sender",
          "type": "address"
        },
        {
          "indexed": false,
          "name": "stake",
          "type": "uint256"
        }
      ],
      "name": "LogMemberExit",
      "type": "event"
    },
    {
      "anonymous": false,
      "inputs": [
        {
          "indexed": true,
          "name": "sender",
          "type": "address"
        },
        {
          "indexed": true,
          "name": "stakeProposal",
          "type": "uint256"
        },
        {
          "indexed": false,
          "name": "deadline",
          "type": "uint256"
        }
      ],
      "name": "LogNewStakeRequirementBallot",
      "type": "event"
    },
    {
      "anonymous": false,
      "inputs": [
        {
          "indexed": true,
          "name": "sender",
          "type": "address"
        },
        {
          "indexed": true,
          "name": "ballot",
          "type": "address"
        },
        {
          "indexed": false,
          "name": "voteWeight",
          "type": "uint256"
        },
        {
          "indexed": false,
          "name": "approvals",
          "type": "uint256"
        }
      ],
      "name": "LogVoteStakeRequirementBallot",
      "type": "event"
    },
    {
      "anonymous": false,
      "inputs": [
        {
          "indexed": true,
          "name": "sender",
          "type": "address"
        },
        {
          "indexed": false,
          "name": "result",
          "type": "bool"
        }
      ],
      "name": "LogResolveStakeRequirementBallot",
      "type": "event"
    },
    {
      "anonymous": false,
      "inputs": [
        {
          "indexed": true,
          "name": "sender",
          "type": "address"
        },
        {
          "indexed": false,
          "name": "newStakeRequirement",
          "type": "uint256"
        }
      ],
      "name": "LogFederationStakeRequirementChange",
      "type": "event"
    },
    {
      "anonymous": false,
      "inputs": [
        {
          "indexed": true,
          "name": "previousOwner",
          "type": "address"
        },
        {
          "indexed": true,
          "name": "newOwner",
          "type": "address"
        }
      ],
      "name": "OwnershipTransferred",
      "type": "event"
    },
    {
      "constant": false,
      "inputs": [
        {
          "name": "amount",
          "type": "uint256"
        }
      ],
      "name": "increaseStake",
      "outputs": [],
      "payable": false,
      "stateMutability": "nonpayable",
      "type": "function"
    },
    {
      "constant": false,
      "inputs": [
        {
          "name": "amount",
          "type": "uint256"
        }
      ],
      "name": "newJoinBallot",
      "outputs": [],
      "payable": false,
      "stateMutability": "nonpayable",
      "type": "function"
    },
    {
      "constant": false,
      "inputs": [
        {
          "name": "newMember",
          "type": "address"
        }
      ],
      "name": "voteJoinBallot",
      "outputs": [],
      "payable": false,
      "stateMutability": "nonpayable",
      "type": "function"
    },
    {
      "constant": false,
      "inputs": [],
      "name": "resolveJoinBallot",
      "outputs": [],
      "payable": false,
      "stateMutability": "nonpayable",
      "type": "function"
    },
    {
      "constant": false,
      "inputs": [],
      "name": "newExitBallot",
      "outputs": [],
      "payable": false,
      "stateMutability": "nonpayable",
      "type": "function"
    },
    {
      "constant": false,
      "inputs": [
        {
          "name": "member",
          "type": "address"
        }
      ],
      "name": "voteExitBallot",
      "outputs": [],
      "payable": false,
      "stateMutability": "nonpayable",
      "type": "function"
    },
    {
      "constant": false,
      "inputs": [],
      "name": "resolveExitBallot",
      "outputs": [],
      "payable": false,
      "stateMutability": "nonpayable",
      "type": "function"
    },
    {
      "constant": false,
      "inputs": [
        {
          "name": "stakeProposal",
          "type": "uint256"
        }
      ],
      "name": "newStakeRequirementBallot",
      "outputs": [],
      "payable": false,
      "stateMutability": "nonpayable",
      "type": "function"
    },
    {
      "constant": false,
      "inputs": [
        {
          "name": "member",
          "type": "address"
        }
      ],
      "name": "voteStakeRequirementBallot",
      "outputs": [],
      "payable": false,
      "stateMutability": "nonpayable",
      "type": "function"
    },
    {
      "constant": false,
      "inputs": [],
      "name": "resolveStakeRequirementBallot",
      "outputs": [],
      "payable": false,
      "stateMutability": "nonpayable",
      "type": "function"
    },
    {
      "constant": false,
      "inputs": [
        {
          "name": "to",
          "type": "address"
        },
        {
          "name": "reward",
          "type": "uint256"
        }
      ],
      "name": "releaseReward",
      "outputs": [],
      "payable": false,
      "stateMutability": "nonpayable",
      "type": "function"
    },
    {
      "constant": true,
      "inputs": [
        {
          "name": "addr",
          "type": "address"
        }
      ],
      "name": "isApproved",
      "outputs": [
        {
          "name": "",
          "type": "bool"
        }
      ],
      "payable": false,
      "stateMutability": "view",
      "type": "function"
    },
    {
      "constant": true,
      "inputs": [
        {
          "name": "addr",
          "type": "address"
        }
      ],
      "name": "isFederated",
      "outputs": [
        {
          "name": "",
          "type": "bool"
        }
      ],
      "payable": false,
      "stateMutability": "view",
      "type": "function"
    },
    {
      "constant": true,
      "inputs": [],
      "name": "getStake",
      "outputs": [
        {
          "name": "",
          "type": "uint256"
        }
      ],
      "payable": false,
      "stateMutability": "view",
      "type": "function"
    }
  ],
  "bytecode": "0x608060405234801561001057600080fd5b50604051602080613b698339810180604052602081101561003057600080fd5b8101908080519060200190929190505050336000806101000a81548173ffffffffffffffffffffffffffffffffffffffff021916908373ffffffffffffffffffffffffffffffffffffffff1602179055506000809054906101000a900473ffffffffffffffffffffffffffffffffffffffff1673ffffffffffffffffffffffffffffffffffffffff16600073ffffffffffffffffffffffffffffffffffffffff167f8be0079c531659141344cd1fd0a4f28419497f9722a3daafe3b4186f6b6457e060405160405180910390a3620186a060028190555080600160006101000a81548173ffffffffffffffffffffffffffffffffffffffff021916908373ffffffffffffffffffffffffffffffffffffffff16021790555060405180604001604052806000815260200160011515815250600460003373ffffffffffffffffffffffffffffffffffffffff1673ffffffffffffffffffffffffffffffffffffffff1681526020019081526020016000206000820151816000015560208201518160010160006101000a81548160ff0219169083151502179055509050505061398c806101dd6000396000f3fe608060405234801561001057600080fd5b50600436106101735760003560e01c8063907599f8116100de578063d9d564d911610097578063f2fde38b11610071578063f2fde38b1461064f578063f541c81214610693578063f8a9ef3d146106e1578063fc0e3d90146106eb57610173565b8063d9d564d9146105d5578063eedad66b146105f3578063ef95eaa61461062157610173565b8063907599f81461042557806391cb39cd14610481578063bd7383aa146104c5578063bf618ade1461052f578063c383864914610587578063c66db07e1461059157610173565b8063673448dd11610130578063673448dd146102d2578063715018a61461032e57806389f63600146103385780638b0e9f3f1461039b5780638da5cb5b146103b95780638f32d59b1461040357610173565b80631eaaca201461017857806329db902d1461018257806329f05e7c146101c65780633997fe91146102305780634b754fea1461023a57806358f751e0146102a4575b600080fd5b610180610709565b005b6101c46004803603602081101561019857600080fd5b81019080803573ffffffffffffffffffffffffffffffffffffffff169060200190929190505050610989565b005b610208600480360360208110156101dc57600080fd5b81019080803573ffffffffffffffffffffffffffffffffffffffff169060200190929190505050610e65565b6040518084815260200183815260200182151515158152602001935050505060405180910390f35b610238610e9c565b005b61027c6004803603602081101561025057600080fd5b81019080803573ffffffffffffffffffffffffffffffffffffffff16906020019092919050505061142a565b6040518084815260200183815260200182151515158152602001935050505060405180910390f35b6102d0600480360360208110156102ba57600080fd5b8101908080359060200190929190505050611461565b005b610314600480360360208110156102e857600080fd5b81019080803573ffffffffffffffffffffffffffffffffffffffff169060200190929190505050611875565b604051808215151515815260200191505060405180910390f35b6103366118ce565b005b61037a6004803603602081101561034e57600080fd5b81019080803573ffffffffffffffffffffffffffffffffffffffff16906020019092919050505061199e565b60405180838152602001821515151581526020019250505060405180910390f35b6103a36119cf565b6040518082815260200191505060405180910390f35b6103c16119d5565b604051808273ffffffffffffffffffffffffffffffffffffffff1673ffffffffffffffffffffffffffffffffffffffff16815260200191505060405180910390f35b61040b6119fe565b604051808215151515815260200191505060405180910390f35b6104676004803603602081101561043b57600080fd5b81019080803573ffffffffffffffffffffffffffffffffffffffff169060200190929190505050611a55565b604051808215151515815260200191505060405180910390f35b6104c36004803603602081101561049757600080fd5b81019080803573ffffffffffffffffffffffffffffffffffffffff169060200190929190505050611afe565b005b610507600480360360208110156104db57600080fd5b81019080803573ffffffffffffffffffffffffffffffffffffffff169060200190929190505050611fda565b6040518084815260200183815260200182151515158152602001935050505060405180910390f35b6105716004803603602081101561054557600080fd5b81019080803573ffffffffffffffffffffffffffffffffffffffff169060200190929190505050612011565b6040518082815260200191505060405180910390f35b61058f612029565b005b6105d3600480360360208110156105a757600080fd5b81019080803573ffffffffffffffffffffffffffffffffffffffff1690602001909291905050506123b8565b005b6105dd612894565b6040518082815260200191505060405180910390f35b61061f6004803603602081101561060957600080fd5b810190808035906020019092919050505061289a565b005b61064d6004803603602081101561063757600080fd5b8101908080359060200190929190505050612bc5565b005b6106916004803603602081101561066557600080fd5b81019080803573ffffffffffffffffffffffffffffffffffffffff169060200190929190505050612ec4565b005b6106df600480360360408110156106a957600080fd5b81019080803573ffffffffffffffffffffffffffffffffffffffff16906020019092919080359060200190929190505050612ee1565b005b6106e96130b6565b005b6106f3613659565b6040518082815260200191505060405180910390f35b61071233611a55565b610784576040517f08c379a00000000000000000000000000000000000000000000000000000000081526004018080602001828103825260188152602001807f43616c6c6572206d75737420626520666564657261746564000000000000000081525060200191505060405180910390fd5b6040518060600160405280600460003373ffffffffffffffffffffffffffffffffffffffff1673ffffffffffffffffffffffffffffffffffffffff168152602001908152602001600020600001548152602001620151804201815260200160001515815250600660003373ffffffffffffffffffffffffffffffffffffffff1673ffffffffffffffffffffffffffffffffffffffff168152602001908152602001600020600082015181600001556020820151816001015560408201518160030160006101000a81548160ff0219169083151502179055509050506001600660003373ffffffffffffffffffffffffffffffffffffffff1673ffffffffffffffffffffffffffffffffffffffff16815260200190815260200160002060020160003373ffffffffffffffffffffffffffffffffffffffff1673ffffffffffffffffffffffffffffffffffffffff16815260200190815260200160002060006101000a81548160ff0219169083151502179055503373ffffffffffffffffffffffffffffffffffffffff167f857e80e47b52d87ba8b975caf7153dea8d220509f3318d04e8efd27cf773d754600660003373ffffffffffffffffffffffffffffffffffffffff1673ffffffffffffffffffffffffffffffffffffffff168152602001908152602001600020600101546040518082815260200191505060405180910390a2565b61099233611a55565b610a04576040517f08c379a00000000000000000000000000000000000000000000000000000000081526004018080602001828103825260188152602001807f43616c6c6572206d75737420626520666564657261746564000000000000000081525060200191505060405180910390fd5b600560008273ffffffffffffffffffffffffffffffffffffffff1673ffffffffffffffffffffffffffffffffffffffff1681526020019081526020016000208060010154421115610abd576040517f08c379a00000000000000000000000000000000000000000000000000000000081526004018080602001828103825260178152602001807f54686520646561646c696e65206861732070617373656400000000000000000081525060200191505060405180910390fd5b600560008373ffffffffffffffffffffffffffffffffffffffff1673ffffffffffffffffffffffffffffffffffffffff168152602001908152602001600020600015158160030160009054906101000a900460ff16151514610b6a576040517f08c379a000000000000000000000000000000000000000000000000000000000815260040180806020018281038252602581526020018061393c6025913960400191505060405180910390fd5b60001515600560008573ffffffffffffffffffffffffffffffffffffffff1673ffffffffffffffffffffffffffffffffffffffff16815260200190815260200160002060020160003373ffffffffffffffffffffffffffffffffffffffff1673ffffffffffffffffffffffffffffffffffffffff16815260200190815260200160002060009054906101000a900460ff16151514610c70576040517f08c379a00000000000000000000000000000000000000000000000000000000081526004018080602001828103825260118152602001807f43616e6e6f7420766f746520747769636500000000000000000000000000000081525060200191505060405180910390fd5b610ccc610c7b613659565b600560008673ffffffffffffffffffffffffffffffffffffffff1673ffffffffffffffffffffffffffffffffffffffff168152602001908152602001600020600001546136a390919063ffffffff16565b600560008573ffffffffffffffffffffffffffffffffffffffff1673ffffffffffffffffffffffffffffffffffffffff168152602001908152602001600020600001819055506001600560008573ffffffffffffffffffffffffffffffffffffffff1673ffffffffffffffffffffffffffffffffffffffff16815260200190815260200160002060020160003373ffffffffffffffffffffffffffffffffffffffff1673ffffffffffffffffffffffffffffffffffffffff16815260200190815260200160002060006101000a81548160ff0219169083151502179055508273ffffffffffffffffffffffffffffffffffffffff163373ffffffffffffffffffffffffffffffffffffffff167f73aedd0745aeec93a8e650f218d683712b1e6eb30c0746da9a5c4ce37f9e6456610e01613659565b600560008873ffffffffffffffffffffffffffffffffffffffff1673ffffffffffffffffffffffffffffffffffffffff16815260200190815260200160002060000154604051808381526020018281526020019250505060405180910390a3505050565b60076020528060005260406000206000915090508060000154908060010154908060030160009054906101000a900460ff16905083565b600560003373ffffffffffffffffffffffffffffffffffffffff1673ffffffffffffffffffffffffffffffffffffffff168152602001908152602001600020600015158160030160009054906101000a900460ff16151514610f49576040517f08c379a000000000000000000000000000000000000000000000000000000000815260040180806020018281038252602581526020018061393c6025913960400191505060405180910390fd5b6001600560003373ffffffffffffffffffffffffffffffffffffffff1673ffffffffffffffffffffffffffffffffffffffff16815260200190815260200160002060030160006101000a81548160ff021916908315150217905550610fba600260035461372b90919063ffffffff16565b600560003373ffffffffffffffffffffffffffffffffffffffff1673ffffffffffffffffffffffffffffffffffffffff168152602001908152602001600020600001541015600460003373ffffffffffffffffffffffffffffffffffffffff1673ffffffffffffffffffffffffffffffffffffffff16815260200190815260200160002060010160006101000a81548160ff0219169083151502179055503373ffffffffffffffffffffffffffffffffffffffff167f1588d9897dd8aff76642596e7e5a79595d9447c35c771d46b6cb05ec8941f893600460003373ffffffffffffffffffffffffffffffffffffffff1673ffffffffffffffffffffffffffffffffffffffff16815260200190815260200160002060010160009054906101000a900460ff16604051808215151515815260200191505060405180910390a2600460003373ffffffffffffffffffffffffffffffffffffffff1673ffffffffffffffffffffffffffffffffffffffff16815260200190815260200160002060010160009054906101000a900460ff1615611240576111a5600460003373ffffffffffffffffffffffffffffffffffffffff1673ffffffffffffffffffffffffffffffffffffffff168152602001908152602001600020600001546003546136a390919063ffffffff16565b6003819055503373ffffffffffffffffffffffffffffffffffffffff167f1ef43893317a76d45230d7af22401b4e17cde43304a9521bcf59422ab863c296600460003373ffffffffffffffffffffffffffffffffffffffff1673ffffffffffffffffffffffffffffffffffffffff168152602001908152602001600020600001546040518082815260200191505060405180910390a2611427565b6000600460003373ffffffffffffffffffffffffffffffffffffffff1673ffffffffffffffffffffffffffffffffffffffff1681526020019081526020016000206000015490506000600460003373ffffffffffffffffffffffffffffffffffffffff1673ffffffffffffffffffffffffffffffffffffffff16815260200190815260200160002060000181905550600160009054906101000a900473ffffffffffffffffffffffffffffffffffffffff1673ffffffffffffffffffffffffffffffffffffffff1663a9059cbb33836040518363ffffffff1660e01b8152600401808373ffffffffffffffffffffffffffffffffffffffff1673ffffffffffffffffffffffffffffffffffffffff16815260200182815260200192505050602060405180830381600087803b15801561137857600080fd5b505af115801561138c573d6000803e3d6000fd5b505050506040513d60208110156113a257600080fd5b8101908080519060200190929190505050611425576040517f08c379a000000000000000000000000000000000000000000000000000000000815260040180806020018281038252601b8152602001807f436f756c64206e6f742072657475726e206261636b207374616b65000000000081525060200191505060405180910390fd5b505b50565b60066020528060005260406000206000915090508060000154908060010154908060030160009054906101000a900460ff16905083565b6000151561146e33611875565b1515146114e3576040517f08c379a00000000000000000000000000000000000000000000000000000000081526004018080602001828103825260198152602001807f43616c6c65722063616e6e6f7420626520617070726f7665640000000000000081525060200191505060405180910390fd5b60006114ed613659565b14611560576040517f08c379a00000000000000000000000000000000000000000000000000000000081526004018080602001828103825260188152602001807f43616c6c65722063616e6e6f742068617665207374616b65000000000000000081525060200191505060405180910390fd5b6002548110156115d8576040517f08c379a00000000000000000000000000000000000000000000000000000000081526004018080602001828103825260108152602001807f4e6f7420656e6f756768207374616b650000000000000000000000000000000081525060200191505060405180910390fd5b604051806060016040528060008152602001620151804201815260200160001515815250600560003373ffffffffffffffffffffffffffffffffffffffff1673ffffffffffffffffffffffffffffffffffffffff168152602001908152602001600020600082015181600001556020820151816001015560408201518160030160006101000a81548160ff02191690831515021790555090505080600460003373ffffffffffffffffffffffffffffffffffffffff1673ffffffffffffffffffffffffffffffffffffffff168152602001908152602001600020600001819055503373ffffffffffffffffffffffffffffffffffffffff167f6d4d916b896ec549ba943d0efb7af5d428ded84187b49962ba88c61e1ddff4a382600560003373ffffffffffffffffffffffffffffffffffffffff1673ffffffffffffffffffffffffffffffffffffffff16815260200190815260200160002060010154604051808381526020018281526020019250505060405180910390a2600160009054906101000a900473ffffffffffffffffffffffffffffffffffffffff1673ffffffffffffffffffffffffffffffffffffffff166323b872dd3330846040518463ffffffff1660e01b8152600401808473ffffffffffffffffffffffffffffffffffffffff1673ffffffffffffffffffffffffffffffffffffffff1681526020018373ffffffffffffffffffffffffffffffffffffffff1673ffffffffffffffffffffffffffffffffffffffff1681526020018281526020019350505050602060405180830381600087803b15801561182e57600080fd5b505af1158015611842573d6000803e3d6000fd5b505050506040513d602081101561185857600080fd5b810190808051906020019092919050505061187257600080fd5b50565b6000600460008373ffffffffffffffffffffffffffffffffffffffff1673ffffffffffffffffffffffffffffffffffffffff16815260200190815260200160002060010160009054906101000a900460ff169050919050565b6118d66119fe565b6118df57600080fd5b600073ffffffffffffffffffffffffffffffffffffffff166000809054906101000a900473ffffffffffffffffffffffffffffffffffffffff1673ffffffffffffffffffffffffffffffffffffffff167f8be0079c531659141344cd1fd0a4f28419497f9722a3daafe3b4186f6b6457e060405160405180910390a360008060006101000a81548173ffffffffffffffffffffffffffffffffffffffff021916908373ffffffffffffffffffffffffffffffffffffffff160217905550565b60046020528060005260406000206000915090508060000154908060010160009054906101000a900460ff16905082565b60035481565b60008060009054906101000a900473ffffffffffffffffffffffffffffffffffffffff16905090565b60008060009054906101000a900473ffffffffffffffffffffffffffffffffffffffff1673ffffffffffffffffffffffffffffffffffffffff163373ffffffffffffffffffffffffffffffffffffffff1614905090565b6000600460008373ffffffffffffffffffffffffffffffffffffffff1673ffffffffffffffffffffffffffffffffffffffff16815260200190815260200160002060010160009054906101000a900460ff168015611af75750600254600460008473ffffffffffffffffffffffffffffffffffffffff1673ffffffffffffffffffffffffffffffffffffffff1681526020019081526020016000206000015410155b9050919050565b611b0733611a55565b611b79576040517f08c379a00000000000000000000000000000000000000000000000000000000081526004018080602001828103825260188152602001807f43616c6c6572206d75737420626520666564657261746564000000000000000081525060200191505060405180910390fd5b600660008273ffffffffffffffffffffffffffffffffffffffff1673ffffffffffffffffffffffffffffffffffffffff168152602001908152602001600020600015158160030160009054906101000a900460ff16151514611c26576040517f08c379a000000000000000000000000000000000000000000000000000000000815260040180806020018281038252602581526020018061393c6025913960400191505060405180910390fd5b600660008373ffffffffffffffffffffffffffffffffffffffff1673ffffffffffffffffffffffffffffffffffffffff1681526020019081526020016000208060010154421115611cdf576040517f08c379a00000000000000000000000000000000000000000000000000000000081526004018080602001828103825260178152602001807f54686520646561646c696e65206861732070617373656400000000000000000081525060200191505060405180910390fd5b60001515600660008573ffffffffffffffffffffffffffffffffffffffff1673ffffffffffffffffffffffffffffffffffffffff16815260200190815260200160002060020160003373ffffffffffffffffffffffffffffffffffffffff1673ffffffffffffffffffffffffffffffffffffffff16815260200190815260200160002060009054906101000a900460ff16151514611de5576040517f08c379a00000000000000000000000000000000000000000000000000000000081526004018080602001828103825260118152602001807f43616e6e6f7420766f746520747769636500000000000000000000000000000081525060200191505060405180910390fd5b611e41611df0613659565b600660008673ffffffffffffffffffffffffffffffffffffffff1673ffffffffffffffffffffffffffffffffffffffff168152602001908152602001600020600001546136a390919063ffffffff16565b600660008573ffffffffffffffffffffffffffffffffffffffff1673ffffffffffffffffffffffffffffffffffffffff168152602001908152602001600020600001819055506001600660008573ffffffffffffffffffffffffffffffffffffffff1673ffffffffffffffffffffffffffffffffffffffff16815260200190815260200160002060020160003373ffffffffffffffffffffffffffffffffffffffff1673ffffffffffffffffffffffffffffffffffffffff16815260200190815260200160002060006101000a81548160ff0219169083151502179055508273ffffffffffffffffffffffffffffffffffffffff163373ffffffffffffffffffffffffffffffffffffffff167f93268c904c4037bb0939665be6163255251d40c68f6c207af51ca11b749fae3a611f76613659565b600660008873ffffffffffffffffffffffffffffffffffffffff1673ffffffffffffffffffffffffffffffffffffffff16815260200190815260200160002060000154604051808381526020018281526020019250505060405180910390a3505050565b60056020528060005260406000206000915090508060000154908060010154908060030160009054906101000a900460ff16905083565b60086020528060005260406000206000915090505481565b61203233611a55565b6120a4576040517f08c379a00000000000000000000000000000000000000000000000000000000081526004018080602001828103825260188152602001807f43616c6c6572206d75737420626520666564657261746564000000000000000081525060200191505060405180910390fd5b600760003373ffffffffffffffffffffffffffffffffffffffff1673ffffffffffffffffffffffffffffffffffffffff168152602001908152602001600020600015158160030160009054906101000a900460ff16151514612151576040517f08c379a000000000000000000000000000000000000000000000000000000000815260040180806020018281038252602581526020018061393c6025913960400191505060405180910390fd5b600760003373ffffffffffffffffffffffffffffffffffffffff1673ffffffffffffffffffffffffffffffffffffffff168152602001908152602001600020806001015442111561220a576040517f08c379a00000000000000000000000000000000000000000000000000000000081526004018080602001828103825260178152602001807f54686520646561646c696e65206861732070617373656400000000000000000081525060200191505060405180910390fd5b6001600760003373ffffffffffffffffffffffffffffffffffffffff1673ffffffffffffffffffffffffffffffffffffffff16815260200190815260200160002060030160006101000a81548160ff021916908315150217905550600061227d600260035461372b90919063ffffffff16565b600760003373ffffffffffffffffffffffffffffffffffffffff1673ffffffffffffffffffffffffffffffffffffffff16815260200190815260200160002060000154101590503373ffffffffffffffffffffffffffffffffffffffff167f0be861f3cee5977257c0689175de5a12d1f3d75e623d526d72097cb5d48eb99182604051808215151515815260200191505060405180910390a280156123b357600860003373ffffffffffffffffffffffffffffffffffffffff1673ffffffffffffffffffffffffffffffffffffffff168152602001908152602001600020546002819055503373ffffffffffffffffffffffffffffffffffffffff167f5ad5c12fb18df64da7ca2db7fa59f2037a60429515bbd18f718698f13d1648d56002546040518082815260200191505060405180910390a25b505050565b6123c133611a55565b612433576040517f08c379a00000000000000000000000000000000000000000000000000000000081526004018080602001828103825260188152602001807f43616c6c6572206d75737420626520666564657261746564000000000000000081525060200191505060405180910390fd5b600760008273ffffffffffffffffffffffffffffffffffffffff1673ffffffffffffffffffffffffffffffffffffffff168152602001908152602001600020600015158160030160009054906101000a900460ff161515146124e0576040517f08c379a000000000000000000000000000000000000000000000000000000000815260040180806020018281038252602581526020018061393c6025913960400191505060405180910390fd5b600760008373ffffffffffffffffffffffffffffffffffffffff1673ffffffffffffffffffffffffffffffffffffffff1681526020019081526020016000208060010154421115612599576040517f08c379a00000000000000000000000000000000000000000000000000000000081526004018080602001828103825260178152602001807f54686520646561646c696e65206861732070617373656400000000000000000081525060200191505060405180910390fd5b60001515600760008573ffffffffffffffffffffffffffffffffffffffff1673ffffffffffffffffffffffffffffffffffffffff16815260200190815260200160002060020160003373ffffffffffffffffffffffffffffffffffffffff1673ffffffffffffffffffffffffffffffffffffffff16815260200190815260200160002060009054906101000a900460ff1615151461269f576040517f08c379a00000000000000000000000000000000000000000000000000000000081526004018080602001828103825260118152602001807f43616e6e6f7420766f746520747769636500000000000000000000000000000081525060200191505060405180910390fd5b6126fb6126aa613659565b600760008673ffffffffffffffffffffffffffffffffffffffff1673ffffffffffffffffffffffffffffffffffffffff168152602001908152602001600020600001546136a390919063ffffffff16565b600760008573ffffffffffffffffffffffffffffffffffffffff1673ffffffffffffffffffffffffffffffffffffffff168152602001908152602001600020600001819055506001600760008573ffffffffffffffffffffffffffffffffffffffff1673ffffffffffffffffffffffffffffffffffffffff16815260200190815260200160002060020160003373ffffffffffffffffffffffffffffffffffffffff1673ffffffffffffffffffffffffffffffffffffffff16815260200190815260200160002060006101000a81548160ff0219169083151502179055508273ffffffffffffffffffffffffffffffffffffffff163373ffffffffffffffffffffffffffffffffffffffff167f9a7edfaa76a3792e2ed603f9ae40c2807928666c8ef221b88c189236f00d26ab612830613659565b600760008873ffffffffffffffffffffffffffffffffffffffff1673ffffffffffffffffffffffffffffffffffffffff16815260200190815260200160002060000154604051808381526020018281526020019250505060405180910390a3505050565b60025481565b6128a333611875565b612915576040517f08c379a00000000000000000000000000000000000000000000000000000000081526004018080602001828103825260178152602001807f43616c6c6572206d75737420626520617070726f76656400000000000000000081525060200191505060405180910390fd5b600061296c82600460003373ffffffffffffffffffffffffffffffffffffffff1673ffffffffffffffffffffffffffffffffffffffff168152602001908152602001600020600001546136a390919063ffffffff16565b90506002548110156129e6576040517f08c379a000000000000000000000000000000000000000000000000000000000815260040180806020018281038252601b8152602001807f5374616b656420616d6f756e74206973206e6f7420656e6f756768000000000081525060200191505060405180910390fd5b6129fb826003546136a390919063ffffffff16565b60038190555080600460003373ffffffffffffffffffffffffffffffffffffffff1673ffffffffffffffffffffffffffffffffffffffff168152602001908152602001600020600001819055503373ffffffffffffffffffffffffffffffffffffffff167f4f9e9f630fb42227cc07ae6e6f027ce5f4d00323e7220647ad078ca565e186f583600354604051808381526020018281526020019250505060405180910390a2600160009054906101000a900473ffffffffffffffffffffffffffffffffffffffff1673ffffffffffffffffffffffffffffffffffffffff166323b872dd3330856040518463ffffffff1660e01b8152600401808473ffffffffffffffffffffffffffffffffffffffff1673ffffffffffffffffffffffffffffffffffffffff1681526020018373ffffffffffffffffffffffffffffffffffffffff1673ffffffffffffffffffffffffffffffffffffffff1681526020018281526020019350505050602060405180830381600087803b158015612b7d57600080fd5b505af1158015612b91573d6000803e3d6000fd5b505050506040513d6020811015612ba757600080fd5b8101908080519060200190929190505050612bc157600080fd5b5050565b612bce33611a55565b612c40576040517f08c379a00000000000000000000000000000000000000000000000000000000081526004018080602001828103825260188152602001807f43616c6c6572206d75737420626520666564657261746564000000000000000081525060200191505060405180910390fd5b60008111612cb6576040517f08c379a000000000000000000000000000000000000000000000000000000000815260040180806020018281038252601a8152602001807f5374616b652070726f706f73616c2063616e6e6f74206265203000000000000081525060200191505060405180910390fd5b6040518060600160405280600460003373ffffffffffffffffffffffffffffffffffffffff1673ffffffffffffffffffffffffffffffffffffffff168152602001908152602001600020600001548152602001620151804201815260200160001515815250600760003373ffffffffffffffffffffffffffffffffffffffff1673ffffffffffffffffffffffffffffffffffffffff168152602001908152602001600020600082015181600001556020820151816001015560408201518160030160006101000a81548160ff0219169083151502179055509050506001600760003373ffffffffffffffffffffffffffffffffffffffff1673ffffffffffffffffffffffffffffffffffffffff16815260200190815260200160002060020160003373ffffffffffffffffffffffffffffffffffffffff1673ffffffffffffffffffffffffffffffffffffffff16815260200190815260200160002060006101000a81548160ff02191690831515021790555080600860003373ffffffffffffffffffffffffffffffffffffffff1673ffffffffffffffffffffffffffffffffffffffff16815260200190815260200160002081905550803373ffffffffffffffffffffffffffffffffffffffff167f1866b90fc00e4e74d13eaca8eb749830f4977f4c3783e8922d4134acf52822c56201518042016040518082815260200191505060405180910390a350565b612ecc6119fe565b612ed557600080fd5b612ede816137ba565b50565b612eea33611a55565b612f5c576040517f08c379a00000000000000000000000000000000000000000000000000000000081526004018080602001828103825260188152602001807f43616c6c6572206d75737420626520666564657261746564000000000000000081525060200191505060405180910390fd5b600160009054906101000a900473ffffffffffffffffffffffffffffffffffffffff1673ffffffffffffffffffffffffffffffffffffffff1663f541c81283836040518363ffffffff1660e01b8152600401808373ffffffffffffffffffffffffffffffffffffffff1673ffffffffffffffffffffffffffffffffffffffff16815260200182815260200192505050602060405180830381600087803b15801561300557600080fd5b505af1158015613019573d6000803e3d6000fd5b505050506040513d602081101561302f57600080fd5b81019080805190602001909291905050506130b2576040517f08c379a00000000000000000000000000000000000000000000000000000000081526004018080602001828103825260188152602001807f436f756c64206e6f742072656c6561736520726577617264000000000000000081525060200191505060405180910390fd5b5050565b6130bf33611a55565b613131576040517f08c379a00000000000000000000000000000000000000000000000000000000081526004018080602001828103825260188152602001807f43616c6c6572206d75737420626520666564657261746564000000000000000081525060200191505060405180910390fd5b600660003373ffffffffffffffffffffffffffffffffffffffff1673ffffffffffffffffffffffffffffffffffffffff168152602001908152602001600020600015158160030160009054906101000a900460ff161515146131de576040517f08c379a000000000000000000000000000000000000000000000000000000000815260040180806020018281038252602581526020018061393c6025913960400191505060405180910390fd5b600660003373ffffffffffffffffffffffffffffffffffffffff1673ffffffffffffffffffffffffffffffffffffffff1681526020019081526020016000208060010154421115613297576040517f08c379a00000000000000000000000000000000000000000000000000000000081526004018080602001828103825260178152602001807f54686520646561646c696e65206861732070617373656400000000000000000081525060200191505060405180910390fd5b6001600660003373ffffffffffffffffffffffffffffffffffffffff1673ffffffffffffffffffffffffffffffffffffffff16815260200190815260200160002060030160006101000a81548160ff021916908315150217905550600061330a600260035461372b90919063ffffffff16565b600660003373ffffffffffffffffffffffffffffffffffffffff1673ffffffffffffffffffffffffffffffffffffffff16815260200190815260200160002060000154101590503373ffffffffffffffffffffffffffffffffffffffff167f7415b4dd98d517bb694fc18692cd67918d279e4470558a4fa05964e8d62bfa0e82604051808215151515815260200191505060405180910390a28015613654576000600460003373ffffffffffffffffffffffffffffffffffffffff1673ffffffffffffffffffffffffffffffffffffffff1681526020019081526020016000206000015490506000600460003373ffffffffffffffffffffffffffffffffffffffff1673ffffffffffffffffffffffffffffffffffffffff16815260200190815260200160002060010160006101000a81548160ff0219169083151502179055506000600460003373ffffffffffffffffffffffffffffffffffffffff1673ffffffffffffffffffffffffffffffffffffffff168152602001908152602001600020600001819055506134a8816003546138b290919063ffffffff16565b6003819055503373ffffffffffffffffffffffffffffffffffffffff167f47ff00fd06290aa6d0e3a52387c9f20f79e6aa8edb14f7f01179d43c77df6483826040518082815260200191505060405180910390a2600160009054906101000a900473ffffffffffffffffffffffffffffffffffffffff1673ffffffffffffffffffffffffffffffffffffffff1663a9059cbb33836040518363ffffffff1660e01b8152600401808373ffffffffffffffffffffffffffffffffffffffff1673ffffffffffffffffffffffffffffffffffffffff16815260200182815260200192505050602060405180830381600087803b1580156135a557600080fd5b505af11580156135b9573d6000803e3d6000fd5b505050506040513d60208110156135cf57600080fd5b8101908080519060200190929190505050613652576040517f08c379a000000000000000000000000000000000000000000000000000000000815260040180806020018281038252601b8152602001807f436f756c64206e6f742072657475726e206261636b207374616b65000000000081525060200191505060405180910390fd5b505b505050565b6000600460003373ffffffffffffffffffffffffffffffffffffffff1673ffffffffffffffffffffffffffffffffffffffff16815260200190815260200160002060000154905090565b600080828401905083811015613721576040517f08c379a000000000000000000000000000000000000000000000000000000000815260040180806020018281038252601b8152602001807f536166654d6174683a206164646974696f6e206f766572666c6f77000000000081525060200191505060405180910390fd5b8091505092915050565b60008082116137a2576040517f08c379a000000000000000000000000000000000000000000000000000000000815260040180806020018281038252601a8152602001807f536166654d6174683a206469766973696f6e206279207a65726f00000000000081525060200191505060405180910390fd5b60008284816137ad57fe5b0490508091505092915050565b600073ffffffffffffffffffffffffffffffffffffffff168173ffffffffffffffffffffffffffffffffffffffff1614156137f457600080fd5b8073ffffffffffffffffffffffffffffffffffffffff166000809054906101000a900473ffffffffffffffffffffffffffffffffffffffff1673ffffffffffffffffffffffffffffffffffffffff167f8be0079c531659141344cd1fd0a4f28419497f9722a3daafe3b4186f6b6457e060405160405180910390a3806000806101000a81548173ffffffffffffffffffffffffffffffffffffffff021916908373ffffffffffffffffffffffffffffffffffffffff16021790555050565b60008282111561392a576040517f08c379a000000000000000000000000000000000000000000000000000000000815260040180806020018281038252601e8152602001807f536166654d6174683a207375627472616374696f6e206f766572666c6f77000081525060200191505060405180910390fd5b60008284039050809150509291505056fe546869732062616c6c6f742068617320616c7265616479206265656e207265736f6c766564a165627a7a72305820671c22a7069aa9f37d238374548350e64b3b759db4e3fc2bce0bafa2a2e615600029",
  "source": "pragma solidity >= 0.5.0 <6.0.0;\n\nimport \"../externals/openzeppelin-solidity/contracts/token/ERC20/ERC20Burnable.sol\";\n// Replace the two above for:\n// import \"openzeppelin-solidity/contracts/token/ERC20/ERC20Burnable.sol\";\n// import \"openzeppelin-solidity/contracts/ownership/Ownable.sol\";\n// in production\n\nimport \"./GeoToken.sol\";\nimport \"./GeoDBClasses.sol\";\n\n/**\n* @title GeoDB ERC20 Token\n*/\ncontract GeoFederation is GeoDBClasses, Ownable {\n  using SafeMath for uint256;\n  // Token\n\n  GeoToken token;\n\n  // Federation\n\n  uint256 public federationMinimumStake;\n  uint256 public totalStake;\n\n  mapping(address => FederationStake) public federationStakes;\n\n  mapping(address => Ballot) public federationJoinBallots;\n  mapping(address => Ballot) public federationExitBallots;\n  mapping(address => Ballot) public stakeRequirementBallots;\n  mapping(address => uint256) public stakeProposals;\n\n  // FederationStakingBallot[] public federationStakingBallots;\n\n  constructor(address tokenContract) public {\n    federationMinimumStake = 100000; // Initial minimum stake: 1 GEO\n    token = GeoToken(tokenContract);\n    federationStakes[msg.sender] = FederationStake(0, true);\n  }\n\n  event LogIncreaseStake(\n    address indexed sender,\n    uint256 amount,\n    uint256 total\n  );\n\n  event LogNewJoinBallot(\n    address indexed sender,\n    uint256 stake,\n    uint256 deadline\n  );\n\n  event LogVoteJoinBallot(\n    address indexed sender,\n    address indexed ballot,\n    uint256 voteWeight,\n    uint256 approvals\n  );\n\n  event LogResolveJoinBallot(\n    address indexed sender,\n    bool result\n  );\n\n  event LogNewMember(\n    address indexed sender,\n    uint256 stake\n  );\n\n  event LogNewExitBallot(\n    address indexed sender,\n    uint256 deadline\n  );\n\n  event LogVoteExitBallot(\n    address indexed sender,\n    address indexed ballot,\n    uint256 voteWeight,\n    uint256 approvals\n  );\n\n  event LogResolveExitBallot(\n    address indexed sender,\n    bool result\n  );\n\n  event LogMemberExit(\n    address indexed sender,\n    uint256 stake\n  );\n\n  event LogNewStakeRequirementBallot(\n    address indexed sender,\n    uint256 indexed stakeProposal,\n    uint256 deadline\n  );\n\n  event LogVoteStakeRequirementBallot(\n    address indexed sender,\n    address indexed ballot,\n    uint256 voteWeight,\n    uint256 approvals\n  );\n\n  event LogResolveStakeRequirementBallot(\n    address indexed sender,\n    bool result\n  );\n\n  event LogFederationStakeRequirementChange(\n    address indexed sender,\n    uint256 newStakeRequirement\n  );\n\n  modifier callerMustBeApproved(){\n    require(isApproved(msg.sender), \"Caller must be approved\");\n    _;\n  }\n\n  modifier callerMustBeFederated() {\n    require(isFederated(msg.sender), \"Caller must be federated\");\n    _;\n  }\n\n  modifier ballotMustBeWithinDeadline(Ballot storage ballot) {\n    require(now <= ballot.deadline, \"The deadline has passed\");\n    _;\n  }\n\n  modifier ballotCannotBeResolved(Ballot storage ballot){\n    require(ballot.resolved == false, \"This ballot has already been resolved\");\n    _;\n  }\n\n  modifier callerCannotBeApproved(){\n    require(isApproved(msg.sender) == false, \"Caller cannot be approved\");\n    _;\n  }\n\n  modifier callerCannotHaveStake() {\n    require(getStake() == 0, \"Caller cannot have stake\");\n    _;\n  }\n\n  function increaseStake(uint256 amount) public callerMustBeApproved() {\n      uint256 summedStakes = federationStakes[msg.sender].stake.add(amount);\n      require(summedStakes >= federationMinimumStake, \"Staked amount is not enough\");\n      totalStake = totalStake.add(amount);\n      federationStakes[msg.sender].stake = summedStakes;\n      emit LogIncreaseStake(msg.sender, amount, totalStake);\n      require(token.transferFrom(msg.sender, address(this), amount));\n  }\n\n  function newJoinBallot(uint256 amount) public callerCannotBeApproved() callerCannotHaveStake() {\n    require(amount >= federationMinimumStake, \"Not enough stake\");\n    federationJoinBallots[msg.sender] = Ballot({\n      approvals: 0,\n      deadline: (block.timestamp + 1 days),\n      resolved: false\n    });\n    federationStakes[msg.sender].stake = amount;\n    emit LogNewJoinBallot(msg.sender, amount, federationJoinBallots[msg.sender].deadline);\n    require(token.transferFrom(msg.sender, address(this), amount));\n  }\n\n  function voteJoinBallot(address newMember) public\n    callerMustBeFederated()\n    ballotMustBeWithinDeadline(federationJoinBallots[newMember])\n    ballotCannotBeResolved(federationJoinBallots[newMember]) {\n\n      require(federationJoinBallots[newMember].approvers[msg.sender] == false, \"Cannot vote twice\");\n      federationJoinBallots[newMember].approvals = federationJoinBallots[newMember].approvals.add(getStake());\n      federationJoinBallots[newMember].approvers[msg.sender] = true;\n      emit LogVoteJoinBallot(msg.sender, newMember, getStake(), federationJoinBallots[newMember].approvals);\n\n  }\n\n  function resolveJoinBallot() public ballotCannotBeResolved(federationJoinBallots[msg.sender]){\n    federationJoinBallots[msg.sender].resolved = true;\n    federationStakes[msg.sender].approved = federationJoinBallots[msg.sender].approvals >= totalStake.div(2);\n    emit LogResolveJoinBallot(msg.sender, federationStakes[msg.sender].approved);\n\n    if(federationStakes[msg.sender].approved){\n      totalStake = totalStake.add(federationStakes[msg.sender].stake);\n      emit LogNewMember(msg.sender, federationStakes[msg.sender].stake);\n    }else{\n      uint256 stake = federationStakes[msg.sender].stake;\n      federationStakes[msg.sender].stake = 0;\n      require(token.transfer(msg.sender, stake), \"Could not return back stake\");\n    }\n  }\n\n  function newExitBallot() public callerMustBeFederated() {\n    federationExitBallots[msg.sender] = Ballot({\n      approvals: federationStakes[msg.sender].stake,\n      deadline: (block.timestamp + 1 days),\n      resolved: false\n    });\n    federationExitBallots[msg.sender].approvers[msg.sender] = true;\n    emit LogNewExitBallot(msg.sender, federationExitBallots[msg.sender].deadline);\n  }\n\n  function voteExitBallot(address member) public\n    callerMustBeFederated()\n    ballotCannotBeResolved(federationExitBallots[member])\n    ballotMustBeWithinDeadline(federationExitBallots[member]) {\n\n      require(federationExitBallots[member].approvers[msg.sender] == false, \"Cannot vote twice\");\n      federationExitBallots[member].approvals = federationExitBallots[member].approvals.add(getStake());\n      federationExitBallots[member].approvers[msg.sender] = true;\n      emit LogVoteExitBallot(msg.sender, member, getStake(), federationExitBallots[member].approvals);\n\n  }\n\n  function resolveExitBallot() public\n    callerMustBeFederated()\n    ballotCannotBeResolved(federationExitBallots[msg.sender])\n    ballotMustBeWithinDeadline(federationExitBallots[msg.sender]) {\n\n    federationExitBallots[msg.sender].resolved = true;\n\n    bool result = federationExitBallots[msg.sender].approvals >= totalStake.div(2);\n    emit LogResolveExitBallot(msg.sender, result);\n\n    if(result){\n      uint256 stake = federationStakes[msg.sender].stake;\n      federationStakes[msg.sender].approved = false;\n      federationStakes[msg.sender].stake = 0;\n      totalStake = totalStake.sub(stake);\n      emit LogMemberExit(msg.sender, stake);\n      require(token.transfer(msg.sender, stake), \"Could not return back stake\");\n    }\n  }\n\n  function newStakeRequirementBallot(uint256 stakeProposal) public callerMustBeFederated() {\n    require(stakeProposal > 0, \"Stake proposal cannot be 0\");\n    stakeRequirementBallots[msg.sender] = Ballot({\n      approvals: federationStakes[msg.sender].stake,\n      deadline: (block.timestamp + 1 days),\n      resolved: false\n    });\n    stakeRequirementBallots[msg.sender].approvers[msg.sender] = true;\n    stakeProposals[msg.sender] = stakeProposal;\n    emit LogNewStakeRequirementBallot(msg.sender, stakeProposal, (block.timestamp + 1 days));\n\n  }\n\n  function voteStakeRequirementBallot(address member) public\n    callerMustBeFederated()\n    ballotCannotBeResolved(stakeRequirementBallots[member])\n    ballotMustBeWithinDeadline(stakeRequirementBallots[member]) {\n\n      require(stakeRequirementBallots[member].approvers[msg.sender] == false, \"Cannot vote twice\");\n      stakeRequirementBallots[member].approvals = stakeRequirementBallots[member].approvals.add(getStake());\n      stakeRequirementBallots[member].approvers[msg.sender] = true;\n      emit LogVoteStakeRequirementBallot(msg.sender, member, getStake(), stakeRequirementBallots[member].approvals);\n\n  }\n\n  function resolveStakeRequirementBallot() public\n      callerMustBeFederated()\n      ballotCannotBeResolved(stakeRequirementBallots[msg.sender])\n      ballotMustBeWithinDeadline(stakeRequirementBallots[msg.sender]) {\n\n      stakeRequirementBallots[msg.sender].resolved = true;\n\n      bool result = stakeRequirementBallots[msg.sender].approvals >= totalStake.div(2);\n      emit LogResolveStakeRequirementBallot(msg.sender, result);\n\n      if(result){\n        federationMinimumStake = stakeProposals[msg.sender];\n        emit LogFederationStakeRequirementChange(msg.sender, federationMinimumStake);\n      }\n  }\n\n  function releaseReward(address to, uint256 reward) public callerMustBeFederated() {\n    require(token.releaseReward(to, reward), \"Could not release reward\");\n  }\n\n  // Getters\n  function isApproved(address addr) public view returns(bool) {\n    return federationStakes[addr].approved;\n  }\n\n  function isFederated(address addr) public view returns (bool) {\n    return federationStakes[addr].approved && federationStakes[addr].stake >= federationMinimumStake;\n  }\n\n  function getStake() public view returns(uint256){\n    return federationStakes[msg.sender].stake;\n  }\n\n}\n",
  "sourcePath": "/home/mad/geodb/fabric/ethereum/contracts/GeoFederation.sol",
  "compiler": {
    "name": "solc",
    "version": "0.5.7+commit.6da8b019.Emscripten.clang"
  },
  "schemaVersion": "3.0.10",
  "updatedAt": "2019-07-26T11:11:37.123Z",
  "devdoc": {
    "methods": {
      "isOwner()": {
        "return": "true if `msg.sender` is the owner of the contract."
      },
      "owner()": {
        "return": "the address of the owner."
      },
      "renounceOwnership()": {
        "details": "Allows the current owner to relinquish control of the contract. It will not be possible to call the functions with the `onlyOwner` modifier anymore."
      },
      "transferOwnership(address)": {
        "details": "Allows the current owner to transfer control of the contract to a newOwner.",
        "params": {
          "newOwner": "The address to transfer ownership to."
        }
      }
    },
    "title": "GeoDB ERC20 Token"
  },
  "userdoc": {
    "methods": {
      "renounceOwnership()": {
        "notice": "Renouncing ownership will leave the contract without an owner, thereby removing any functionality that is only available to the owner."
      }
    }
  }
}