{
  "contractName": "GeoTokenLockUnitary",
  "abi": [
    {
      "constant": false,
      "inputs": [],
      "name": "unpause",
      "outputs": [],
      "payable": false,
      "stateMutability": "nonpayable",
      "type": "function"
    },
    {
      "constant": true,
      "inputs": [],
      "name": "paused",
      "outputs": [
        {
          "name": "",
          "type": "bool"
        }
      ],
      "payable": false,
      "stateMutability": "view",
      "type": "function"
    },
    {
      "constant": true,
      "inputs": [
        {
          "name": "",
          "type": "address"
        }
      ],
      "name": "locks",
      "outputs": [
        {
          "name": "balance",
          "type": "uint256"
        },
        {
          "name": "withdrawn",
          "type": "uint256"
        },
        {
          "name": "lockTimestamp",
          "type": "uint256"
        },
        {
          "name": "unlockTimestamp",
          "type": "uint256"
        }
      ],
      "payable": false,
      "stateMutability": "view",
      "type": "function"
    },
    {
      "constant": false,
      "inputs": [],
      "name": "renounceOwnership",
      "outputs": [],
      "payable": false,
      "stateMutability": "nonpayable",
      "type": "function"
    },
    {
      "constant": false,
      "inputs": [],
      "name": "pause",
      "outputs": [],
      "payable": false,
      "stateMutability": "nonpayable",
      "type": "function"
    },
    {
      "constant": true,
      "inputs": [],
      "name": "owner",
      "outputs": [
        {
          "name": "",
          "type": "address"
        }
      ],
      "payable": false,
      "stateMutability": "view",
      "type": "function"
    },
    {
      "constant": true,
      "inputs": [],
      "name": "isOwner",
      "outputs": [
        {
          "name": "",
          "type": "bool"
        }
      ],
      "payable": false,
      "stateMutability": "view",
      "type": "function"
    },
    {
      "constant": false,
      "inputs": [
        {
          "name": "newOwner",
          "type": "address"
        }
      ],
      "name": "transferOwnership",
      "outputs": [],
      "payable": false,
      "stateMutability": "nonpayable",
      "type": "function"
    },
    {
      "constant": true,
      "inputs": [],
      "name": "token",
      "outputs": [
        {
          "name": "",
          "type": "address"
        }
      ],
      "payable": false,
      "stateMutability": "view",
      "type": "function"
    },
    {
      "inputs": [
        {
          "name": "_token",
          "type": "address"
        }
      ],
      "payable": false,
      "stateMutability": "nonpayable",
      "type": "constructor"
    },
    {
      "payable": false,
      "stateMutability": "nonpayable",
      "type": "fallback"
    },
    {
      "anonymous": false,
      "inputs": [
        {
          "indexed": true,
          "name": "operator",
          "type": "address"
        },
        {
          "indexed": true,
          "name": "from",
          "type": "address"
        },
        {
          "indexed": false,
          "name": "amount",
          "type": "uint256"
        }
      ],
      "name": "LogTokensReceived",
      "type": "event"
    },
    {
      "anonymous": false,
      "inputs": [
        {
          "indexed": true,
          "name": "operator",
          "type": "address"
        },
        {
          "indexed": true,
          "name": "from",
          "type": "address"
        },
        {
          "indexed": true,
          "name": "to",
          "type": "address"
        },
        {
          "indexed": false,
          "name": "amount",
          "type": "uint256"
        }
      ],
      "name": "LogTokensSent",
      "type": "event"
    },
    {
      "anonymous": false,
      "inputs": [
        {
          "indexed": true,
          "name": "to",
          "type": "address"
        },
        {
          "indexed": false,
          "name": "amount",
          "type": "uint256"
        },
        {
          "indexed": false,
          "name": "unlockTimestamp",
          "type": "uint256"
        }
      ],
      "name": "LogTokensLocked",
      "type": "event"
    },
    {
      "anonymous": false,
      "inputs": [
        {
          "indexed": false,
          "name": "account",
          "type": "address"
        }
      ],
      "name": "Paused",
      "type": "event"
    },
    {
      "anonymous": false,
      "inputs": [
        {
          "indexed": false,
          "name": "account",
          "type": "address"
        }
      ],
      "name": "Unpaused",
      "type": "event"
    },
    {
      "anonymous": false,
      "inputs": [
        {
          "indexed": true,
          "name": "previousOwner",
          "type": "address"
        },
        {
          "indexed": true,
          "name": "newOwner",
          "type": "address"
        }
      ],
      "name": "OwnershipTransferred",
      "type": "event"
    },
    {
      "constant": false,
      "inputs": [
        {
          "name": "operator",
          "type": "address"
        },
        {
          "name": "from",
          "type": "address"
        },
        {
          "name": "to",
          "type": "address"
        },
        {
          "name": "amount",
          "type": "uint256"
        },
        {
          "name": "userData",
          "type": "bytes"
        },
        {
          "name": "",
          "type": "bytes"
        }
      ],
      "name": "tokensToSend",
      "outputs": [],
      "payable": false,
      "stateMutability": "nonpayable",
      "type": "function"
    },
    {
      "constant": false,
      "inputs": [
        {
          "name": "operator",
          "type": "address"
        },
        {
          "name": "from",
          "type": "address"
        },
        {
          "name": "",
          "type": "address"
        },
        {
          "name": "amount",
          "type": "uint256"
        },
        {
          "name": "",
          "type": "bytes"
        },
        {
          "name": "",
          "type": "bytes"
        }
      ],
      "name": "tokensReceived",
      "outputs": [],
      "payable": false,
      "stateMutability": "nonpayable",
      "type": "function"
    },
    {
      "constant": false,
      "inputs": [
        {
          "name": "beneficiary",
          "type": "address"
        },
        {
          "name": "amount",
          "type": "uint256"
        },
        {
          "name": "lockTimeInDays",
          "type": "uint256"
        }
      ],
      "name": "lock",
      "outputs": [
        {
          "name": "",
          "type": "bool"
        }
      ],
      "payable": false,
      "stateMutability": "nonpayable",
      "type": "function"
    },
    {
      "constant": false,
      "inputs": [
        {
          "name": "beneficiaries",
          "type": "address[]"
        },
        {
          "name": "amount",
          "type": "uint256"
        },
        {
          "name": "lockTimeInDays",
          "type": "uint256"
        }
      ],
      "name": "batchLock",
      "outputs": [
        {
          "name": "",
          "type": "bool"
        }
      ],
      "payable": false,
      "stateMutability": "nonpayable",
      "type": "function"
    },
    {
      "constant": false,
      "inputs": [
        {
          "name": "to",
          "type": "address"
        },
        {
          "name": "amount",
          "type": "uint256"
        }
      ],
      "name": "send",
      "outputs": [
        {
          "name": "",
          "type": "bool"
        }
      ],
      "payable": false,
      "stateMutability": "nonpayable",
      "type": "function"
    },
    {
      "constant": false,
      "inputs": [],
      "name": "unlock",
      "outputs": [
        {
          "name": "",
          "type": "bool"
        }
      ],
      "payable": false,
      "stateMutability": "nonpayable",
      "type": "function"
    },
    {
      "constant": false,
      "inputs": [
        {
          "name": "beneficiary",
          "type": "address"
        }
      ],
      "name": "ownerUnlock",
      "outputs": [
        {
          "name": "",
          "type": "bool"
        }
      ],
      "payable": false,
      "stateMutability": "nonpayable",
      "type": "function"
    },
    {
      "constant": false,
      "inputs": [
        {
          "name": "beneficiaries",
          "type": "address[]"
        }
      ],
      "name": "batchOwnerUnLock",
      "outputs": [
        {
          "name": "",
          "type": "bool"
        }
      ],
      "payable": false,
      "stateMutability": "nonpayable",
      "type": "function"
    },
    {
      "constant": true,
      "inputs": [
        {
          "name": "from",
          "type": "address"
        }
      ],
      "name": "computeAllowance",
      "outputs": [
        {
          "name": "",
          "type": "uint256"
        }
      ],
      "payable": false,
      "stateMutability": "view",
      "type": "function"
    },
    {
      "constant": true,
      "inputs": [
        {
          "name": "from",
          "type": "address"
        }
      ],
      "name": "steps",
      "outputs": [
        {
          "name": "elapsed",
          "type": "uint256"
        },
        {
          "name": "duration",
          "type": "uint256"
        },
        {
          "name": "perBlock",
          "type": "uint256"
        },
        {
          "name": "remainder",
          "type": "uint256"
        }
      ],
      "payable": false,
      "stateMutability": "view",
      "type": "function"
    },
    {
      "constant": true,
      "inputs": [
        {
          "name": "addr",
          "type": "address"
        }
      ],
      "name": "balanceOf",
      "outputs": [
        {
          "name": "",
          "type": "uint256"
        }
      ],
      "payable": false,
      "stateMutability": "view",
      "type": "function"
    }
  ],
  "bytecode": "0x6080604052731820a4b7618bde71dce8cdc73aab6c95905fad24600160006101000a81548173ffffffffffffffffffffffffffffffffffffffff021916908373ffffffffffffffffffffffffffffffffffffffff1602179055503480156200006657600080fd5b5060405160208062002b1f833981018060405260208110156200008857600080fd5b8101908080519060200190929190505050336000806101000a81548173ffffffffffffffffffffffffffffffffffffffff021916908373ffffffffffffffffffffffffffffffffffffffff1602179055506000809054906101000a900473ffffffffffffffffffffffffffffffffffffffff1673ffffffffffffffffffffffffffffffffffffffff16600073ffffffffffffffffffffffffffffffffffffffff167f8be0079c531659141344cd1fd0a4f28419497f9722a3daafe3b4186f6b6457e060405160405180910390a360008060146101000a81548160ff021916908315150217905550600073ffffffffffffffffffffffffffffffffffffffff168173ffffffffffffffffffffffffffffffffffffffff16141562000213576040517f08c379a000000000000000000000000000000000000000000000000000000000815260040180806020018281038252601b8152602001807f546f6b656e20616464726573732063616e6e6f7420626520307830000000000081525060200191505060405180910390fd5b80600260006101000a81548173ffffffffffffffffffffffffffffffffffffffff021916908373ffffffffffffffffffffffffffffffffffffffff160217905550600160009054906101000a900473ffffffffffffffffffffffffffffffffffffffff1673ffffffffffffffffffffffffffffffffffffffff166329965a1d3060405180807f455243373737546f6b656e73526563697069656e74000000000000000000000081525060150190506040518091039020306040518463ffffffff1660e01b8152600401808473ffffffffffffffffffffffffffffffffffffffff1673ffffffffffffffffffffffffffffffffffffffff1681526020018381526020018273ffffffffffffffffffffffffffffffffffffffff1673ffffffffffffffffffffffffffffffffffffffff1681526020019350505050600060405180830381600087803b1580156200036757600080fd5b505af11580156200037c573d6000803e3d6000fd5b50505050600160009054906101000a900473ffffffffffffffffffffffffffffffffffffffff1673ffffffffffffffffffffffffffffffffffffffff166329965a1d3060405180807f455243373737546f6b656e7353656e646572000000000000000000000000000081525060120190506040518091039020306040518463ffffffff1660e01b8152600401808473ffffffffffffffffffffffffffffffffffffffff1673ffffffffffffffffffffffffffffffffffffffff1681526020018381526020018273ffffffffffffffffffffffffffffffffffffffff1673ffffffffffffffffffffffffffffffffffffffff1681526020019350505050600060405180830381600087803b1580156200049357600080fd5b505af1158015620004a8573d6000803e3d6000fd5b505050505061266280620004bd6000396000f3fe608060405234801561001057600080fd5b506004361061012b5760003560e01c80638456cb59116100ad578063e2ab691d11610071578063e2ab691d14610731578063f2fde38b146107a1578063f3eafc0e146107e5578063f9bb895c14610852578063fc0c546a146109225761012b565b80638456cb59146106335780638da5cb5b1461063d5780638f32d59b14610687578063a69df4b5146106a9578063d0679d34146106cb5761012b565b80635c975abb116100f45780635c975abb1461040a5780635de9a1371461042c57806370a0823114610499578063715018a6146104f157806375ab9782146104fb5761012b565b806223de29146101305780631e326a2f146102685780633979ce601461034c5780633f4ba83a146103a45780633f65c6f7146103ae575b600080fd5b610266600480360360c081101561014657600080fd5b81019080803573ffffffffffffffffffffffffffffffffffffffff169060200190929190803573ffffffffffffffffffffffffffffffffffffffff169060200190929190803573ffffffffffffffffffffffffffffffffffffffff16906020019092919080359060200190929190803590602001906401000000008111156101cd57600080fd5b8201836020820111156101df57600080fd5b8035906020019184600183028401116401000000008311171561020157600080fd5b90919293919293908035906020019064010000000081111561022257600080fd5b82018360208201111561023457600080fd5b8035906020019184600183028401116401000000008311171561025657600080fd5b909192939192939050505061096c565b005b6103326004803603606081101561027e57600080fd5b810190808035906020019064010000000081111561029b57600080fd5b8201836020820111156102ad57600080fd5b803590602001918460208302840111640100000000831117156102cf57600080fd5b919080806020026020016040519081016040528093929190818152602001838360200280828437600081840152601f19601f8201169050808301925050505050505091929192908035906020019092919080359060200190929190505050610b60565b604051808215151515815260200191505060405180910390f35b61038e6004803603602081101561036257600080fd5b81019080803573ffffffffffffffffffffffffffffffffffffffff169060200190929190505050610c51565b6040518082815260200191505060405180910390f35b6103ac610de3565b005b6103f0600480360360208110156103c457600080fd5b81019080803573ffffffffffffffffffffffffffffffffffffffff169060200190929190505050610e8c565b604051808215151515815260200191505060405180910390f35b610412611200565b604051808215151515815260200191505060405180910390f35b61046e6004803603602081101561044257600080fd5b81019080803573ffffffffffffffffffffffffffffffffffffffff169060200190929190505050611216565b6040518085815260200184815260200183815260200182815260200194505050505060405180910390f35b6104db600480360360208110156104af57600080fd5b81019080803573ffffffffffffffffffffffffffffffffffffffff169060200190929190505050611246565b6040518082815260200191505060405180910390f35b6104f9611292565b005b610631600480360360c081101561051157600080fd5b81019080803573ffffffffffffffffffffffffffffffffffffffff169060200190929190803573ffffffffffffffffffffffffffffffffffffffff169060200190929190803573ffffffffffffffffffffffffffffffffffffffff169060200190929190803590602001909291908035906020019064010000000081111561059857600080fd5b8201836020820111156105aa57600080fd5b803590602001918460018302840111640100000000831117156105cc57600080fd5b9091929391929390803590602001906401000000008111156105ed57600080fd5b8201836020820111156105ff57600080fd5b8035906020019184600183028401116401000000008311171561062157600080fd5b9091929391929390505050611362565b005b61063b61152c565b005b6106456115d7565b604051808273ffffffffffffffffffffffffffffffffffffffff1673ffffffffffffffffffffffffffffffffffffffff16815260200191505060405180910390f35b61068f611600565b604051808215151515815260200191505060405180910390f35b6106b1611657565b604051808215151515815260200191505060405180910390f35b610717600480360360408110156106e157600080fd5b81019080803573ffffffffffffffffffffffffffffffffffffffff169060200190929190803590602001909291905050506118fa565b604051808215151515815260200191505060405180910390f35b6107876004803603606081101561074757600080fd5b81019080803573ffffffffffffffffffffffffffffffffffffffff1690602001909291908035906020019092919080359060200190929190505050611b79565b604051808215151515815260200191505060405180910390f35b6107e3600480360360208110156107b757600080fd5b81019080803573ffffffffffffffffffffffffffffffffffffffff16906020019092919050505061203d565b005b610827600480360360208110156107fb57600080fd5b81019080803573ffffffffffffffffffffffffffffffffffffffff16906020019092919050505061205a565b6040518085815260200184815260200183815260200182815260200194505050505060405180910390f35b6109086004803603602081101561086857600080fd5b810190808035906020019064010000000081111561088557600080fd5b82018360208201111561089757600080fd5b803590602001918460208302840111640100000000831117156108b957600080fd5b919080806020026020016040519081016040528093929190818152602001838360200280828437600081840152601f19601f82011690508083019250505050505050919291929050505061218a565b604051808215151515815260200191505060405180910390f35b61092a61220e565b604051808273ffffffffffffffffffffffffffffffffffffffff1673ffffffffffffffffffffffffffffffffffffffff16815260200191505060405180910390f35b600060149054906101000a900460ff161561098657600080fd5b600260009054906101000a900473ffffffffffffffffffffffffffffffffffffffff1673ffffffffffffffffffffffffffffffffffffffff163373ffffffffffffffffffffffffffffffffffffffff1614610a49576040517f08c379a00000000000000000000000000000000000000000000000000000000081526004018080602001828103825260208152602001807f43616e206f6e6c7920726563656976652047656f44422047656f546f6b656e7381525060200191505060405180910390fd5b6000610a536115d7565b9050610aaa86600360008473ffffffffffffffffffffffffffffffffffffffff1673ffffffffffffffffffffffffffffffffffffffff1681526020019081526020016000206000015461223490919063ffffffff16565b600360008373ffffffffffffffffffffffffffffffffffffffff1673ffffffffffffffffffffffffffffffffffffffff168152602001908152602001600020600001819055508773ffffffffffffffffffffffffffffffffffffffff168973ffffffffffffffffffffffffffffffffffffffff167fd4535bc905fb57beca32cb4d69e1ef43fc473b41a4818f3baf86e01b716bc30f886040518082815260200191505060405180910390a3505050505050505050565b6000610b6a611600565b610b7357600080fd5b600060149054906101000a900460ff1615610b8d57600080fd5b6000845111610c04576040517f08c379a00000000000000000000000000000000000000000000000000000000081526004018080602001828103825260188152602001807f456d7074792062656e65666963696172696573206c697374000000000000000081525060200191505060405180910390fd5b60008090505b84518160ff161015610c4557610c37858260ff1681518110610c2857fe5b60200260200101518585611b79565b508080600101915050610c0a565b60019150509392505050565b600080600360008473ffffffffffffffffffffffffffffffffffffffff1673ffffffffffffffffffffffffffffffffffffffff1681526020019081526020016000206002015490506000600360008573ffffffffffffffffffffffffffffffffffffffff1673ffffffffffffffffffffffffffffffffffffffff1681526020019081526020016000206003015490506000600360008673ffffffffffffffffffffffffffffffffffffffff1673ffffffffffffffffffffffffffffffffffffffff168152602001908152602001600020600001549050600082421015610d7f57610d7a610d59610d4a86866122bc90919063ffffffff16565b8461234590919063ffffffff16565b610d6c86426122bc90919063ffffffff16565b6123d490919063ffffffff16565b610d81565b815b9050610dd8600360008873ffffffffffffffffffffffffffffffffffffffff1673ffffffffffffffffffffffffffffffffffffffff16815260200190815260200160002060010154826122bc90919063ffffffff16565b945050505050919050565b610deb611600565b610df457600080fd5b600060149054906101000a900460ff16610e0d57600080fd5b60008060146101000a81548160ff0219169083151502179055507f5db9ee0a495bf2e6ff9c91a7834c1ba4fdd244a5e8aa4e537bd38aeae4b073aa33604051808273ffffffffffffffffffffffffffffffffffffffff1673ffffffffffffffffffffffffffffffffffffffff16815260200191505060405180910390a1565b6000610e96611600565b610e9f57600080fd5b600060149054906101000a900460ff1615610eb957600080fd5b600073ffffffffffffffffffffffffffffffffffffffff168273ffffffffffffffffffffffffffffffffffffffff161415610f5c576040517f08c379a000000000000000000000000000000000000000000000000000000000815260040180806020018281038252601f8152602001807f43616e6e6f7420756e6c6f636b20666f7220746865203020616464726573730081525060200191505060405180910390fd5b6000610f6783610c51565b905060008111610fdf576040517f08c379a000000000000000000000000000000000000000000000000000000000815260040180806020018281038252601d8152602001807f4e6f20616c6c6f77616e6365206f6e207468697320636f6e747261637400000081525060200191505060405180910390fd5b61103481600360008673ffffffffffffffffffffffffffffffffffffffff1673ffffffffffffffffffffffffffffffffffffffff1681526020019081526020016000206001015461223490919063ffffffff16565b600360008573ffffffffffffffffffffffffffffffffffffffff1673ffffffffffffffffffffffffffffffffffffffff16815260200190815260200160002060010181905550600260009054906101000a900473ffffffffffffffffffffffffffffffffffffffff1673ffffffffffffffffffffffffffffffffffffffff16639bd9bbc6848386604051602001808273ffffffffffffffffffffffffffffffffffffffff1673ffffffffffffffffffffffffffffffffffffffff1660601b81526014019150506040516020818303038152906040526040518463ffffffff1660e01b8152600401808473ffffffffffffffffffffffffffffffffffffffff1673ffffffffffffffffffffffffffffffffffffffff16815260200183815260200180602001828103825283818151815260200191508051906020019080838360005b83811015611190578082015181840152602081019050611175565b50505050905090810190601f1680156111bd5780820380516001836020036101000a031916815260200191505b50945050505050600060405180830381600087803b1580156111de57600080fd5b505af11580156111f2573d6000803e3d6000fd5b505050506001915050919050565b60008060149054906101000a900460ff16905090565b60036020528060005260406000206000915090508060000154908060010154908060020154908060030154905084565b6000600360008373ffffffffffffffffffffffffffffffffffffffff1673ffffffffffffffffffffffffffffffffffffffff168152602001908152602001600020600001549050919050565b61129a611600565b6112a357600080fd5b600073ffffffffffffffffffffffffffffffffffffffff166000809054906101000a900473ffffffffffffffffffffffffffffffffffffffff1673ffffffffffffffffffffffffffffffffffffffff167f8be0079c531659141344cd1fd0a4f28419497f9722a3daafe3b4186f6b6457e060405160405180910390a360008060006101000a81548173ffffffffffffffffffffffffffffffffffffffff021916908373ffffffffffffffffffffffffffffffffffffffff160217905550565b600060149054906101000a900460ff161561137c57600080fd5b600260009054906101000a900473ffffffffffffffffffffffffffffffffffffffff1673ffffffffffffffffffffffffffffffffffffffff163373ffffffffffffffffffffffffffffffffffffffff1614611422576040517f08c379a00000000000000000000000000000000000000000000000000000000081526004018080602001828103825260328152602001806125dc6032913960400191505060405180910390fd5b3073ffffffffffffffffffffffffffffffffffffffff168773ffffffffffffffffffffffffffffffffffffffff161461145a57600080fd5b8573ffffffffffffffffffffffffffffffffffffffff166114be85858080601f016020809104026020016040519081016040528093929190818152602001838380828437600081840152601f19601f8201169050808301925050505050505061245a565b73ffffffffffffffffffffffffffffffffffffffff168973ffffffffffffffffffffffffffffffffffffffff167f218a8d7313000db684a5937ca567bab0486ef45ba01440dc1af3887f7e2f10a4886040518082815260200191505060405180910390a45050505050505050565b611534611600565b61153d57600080fd5b600060149054906101000a900460ff161561155757600080fd5b6001600060146101000a81548160ff0219169083151502179055507f62e78cea01bee320cd4e420270b5ea74000d11b0c9f74754ebdbfc544b05a25833604051808273ffffffffffffffffffffffffffffffffffffffff1673ffffffffffffffffffffffffffffffffffffffff16815260200191505060405180910390a1565b60008060009054906101000a900473ffffffffffffffffffffffffffffffffffffffff16905090565b60008060009054906101000a900473ffffffffffffffffffffffffffffffffffffffff1673ffffffffffffffffffffffffffffffffffffffff163373ffffffffffffffffffffffffffffffffffffffff1614905090565b60008061166333610c51565b9050600081116116db576040517f08c379a000000000000000000000000000000000000000000000000000000000815260040180806020018281038252601d8152602001807f4e6f20616c6c6f77616e6365206f6e207468697320636f6e747261637400000081525060200191505060405180910390fd5b61173081600360003373ffffffffffffffffffffffffffffffffffffffff1673ffffffffffffffffffffffffffffffffffffffff1681526020019081526020016000206001015461223490919063ffffffff16565b600360003373ffffffffffffffffffffffffffffffffffffffff1673ffffffffffffffffffffffffffffffffffffffff16815260200190815260200160002060010181905550600260009054906101000a900473ffffffffffffffffffffffffffffffffffffffff1673ffffffffffffffffffffffffffffffffffffffff16639bd9bbc6338333604051602001808273ffffffffffffffffffffffffffffffffffffffff1673ffffffffffffffffffffffffffffffffffffffff1660601b81526014019150506040516020818303038152906040526040518463ffffffff1660e01b8152600401808473ffffffffffffffffffffffffffffffffffffffff1673ffffffffffffffffffffffffffffffffffffffff16815260200183815260200180602001828103825283818151815260200191508051906020019080838360005b8381101561188c578082015181840152602081019050611871565b50505050905090810190601f1680156118b95780820380516001836020036101000a031916815260200191505b50945050505050600060405180830381600087803b1580156118da57600080fd5b505af11580156118ee573d6000803e3d6000fd5b50505050600191505090565b600061190533610c51565b82111561191157600080fd5b6000821161191e57600080fd5b600073ffffffffffffffffffffffffffffffffffffffff168373ffffffffffffffffffffffffffffffffffffffff16141561195857600080fd5b6119ad82600360003373ffffffffffffffffffffffffffffffffffffffff1673ffffffffffffffffffffffffffffffffffffffff1681526020019081526020016000206001015461223490919063ffffffff16565b600360003373ffffffffffffffffffffffffffffffffffffffff1673ffffffffffffffffffffffffffffffffffffffff16815260200190815260200160002060010181905550600260009054906101000a900473ffffffffffffffffffffffffffffffffffffffff1673ffffffffffffffffffffffffffffffffffffffff16639bd9bbc6848433604051602001808273ffffffffffffffffffffffffffffffffffffffff1673ffffffffffffffffffffffffffffffffffffffff1660601b81526014019150506040516020818303038152906040526040518463ffffffff1660e01b8152600401808473ffffffffffffffffffffffffffffffffffffffff1673ffffffffffffffffffffffffffffffffffffffff16815260200183815260200180602001828103825283818151815260200191508051906020019080838360005b83811015611b09578082015181840152602081019050611aee565b50505050905090810190601f168015611b365780820380516001836020036101000a031916815260200191505b50945050505050600060405180830381600087803b158015611b5757600080fd5b505af1158015611b6b573d6000803e3d6000fd5b505050506001905092915050565b6000611b83611600565b611b8c57600080fd5b600060149054906101000a900460ff1615611ba657600080fd5b600073ffffffffffffffffffffffffffffffffffffffff168473ffffffffffffffffffffffffffffffffffffffff161415611c2c576040517f08c379a00000000000000000000000000000000000000000000000000000000081526004018080602001828103825260278152602001806125946027913960400191505060405180910390fd5b611c346115d7565b73ffffffffffffffffffffffffffffffffffffffff168473ffffffffffffffffffffffffffffffffffffffff161415611cd5576040517f08c379a00000000000000000000000000000000000000000000000000000000081526004018080602001828103825260178152602001807f43616e6e6f742073656c662d6c6f636b20746f6b656e7300000000000000000081525060200191505060405180910390fd5b60008311611d2e576040517f08c379a000000000000000000000000000000000000000000000000000000000815260040180806020018281038252602981526020018061260e6029913960400191505060405180910390fd5b60008211611da4576040517f08c379a00000000000000000000000000000000000000000000000000000000081526004018080602001828103825260208152602001807f4c6f636b2074696d65206d7573742062652067726561746572207468616e203081525060200191505060405180910390fd5b6000600360008673ffffffffffffffffffffffffffffffffffffffff1673ffffffffffffffffffffffffffffffffffffffff1681526020019081526020016000206000015414611e3f576040517f08c379a000000000000000000000000000000000000000000000000000000000815260040180806020018281038252602581526020018061256f6025913960400191505060405180910390fd5b611e9483600360003373ffffffffffffffffffffffffffffffffffffffff1673ffffffffffffffffffffffffffffffffffffffff168152602001908152602001600020600001546122bc90919063ffffffff16565b600360003373ffffffffffffffffffffffffffffffffffffffff1673ffffffffffffffffffffffffffffffffffffffff1681526020019081526020016000206000018190555082600360008673ffffffffffffffffffffffffffffffffffffffff1673ffffffffffffffffffffffffffffffffffffffff1681526020019081526020016000206000018190555042600360008673ffffffffffffffffffffffffffffffffffffffff1673ffffffffffffffffffffffffffffffffffffffff168152602001908152602001600020600201819055506000611f92611f8362015180856123d490919063ffffffff16565b4261223490919063ffffffff16565b905080600360008773ffffffffffffffffffffffffffffffffffffffff1673ffffffffffffffffffffffffffffffffffffffff168152602001908152602001600020600301819055508473ffffffffffffffffffffffffffffffffffffffff167fb4e1813e62d8fc9ba70d32f1266a2a9d2f9ac9ceb9850bc5db599201ffe133178583604051808381526020018281526020019250505060405180910390a260019150509392505050565b612045611600565b61204e57600080fd5b61205781612476565b50565b6000806000806000600360008773ffffffffffffffffffffffffffffffffffffffff1673ffffffffffffffffffffffffffffffffffffffff1681526020019081526020016000206002015490506000600360008873ffffffffffffffffffffffffffffffffffffffff1673ffffffffffffffffffffffffffffffffffffffff1681526020019081526020016000206003015490506000600360008973ffffffffffffffffffffffffffffffffffffffff1673ffffffffffffffffffffffffffffffffffffffff16815260200190815260200160002060000154905061214883426122bc90919063ffffffff16565b965061215d83836122bc90919063ffffffff16565b9550612172868261234590919063ffffffff16565b945085818161217d57fe5b0693505050509193509193565b6000612194611600565b61219d57600080fd5b600060149054906101000a900460ff16156121b757600080fd5b60008251116121c557600080fd5b60008090505b82518160ff161015612204576121f6838260ff16815181106121e957fe5b6020026020010151610e8c565b5080806001019150506121cb565b6001915050919050565b600260009054906101000a900473ffffffffffffffffffffffffffffffffffffffff1681565b6000808284019050838110156122b2576040517f08c379a000000000000000000000000000000000000000000000000000000000815260040180806020018281038252601b8152602001807f536166654d6174683a206164646974696f6e206f766572666c6f77000000000081525060200191505060405180910390fd5b8091505092915050565b600082821115612334576040517f08c379a000000000000000000000000000000000000000000000000000000000815260040180806020018281038252601e8152602001807f536166654d6174683a207375627472616374696f6e206f766572666c6f77000081525060200191505060405180910390fd5b600082840390508091505092915050565b60008082116123bc576040517f08c379a000000000000000000000000000000000000000000000000000000000815260040180806020018281038252601a8152602001807f536166654d6174683a206469766973696f6e206279207a65726f00000000000081525060200191505060405180910390fd5b60008284816123c757fe5b0490508091505092915050565b6000808314156123e75760009050612454565b60008284029050828482816123f857fe5b041461244f576040517f08c379a00000000000000000000000000000000000000000000000000000000081526004018080602001828103825260218152602001806125bb6021913960400191505060405180910390fd5b809150505b92915050565b6000601482511461246a57600080fd5b60148201519050919050565b600073ffffffffffffffffffffffffffffffffffffffff168173ffffffffffffffffffffffffffffffffffffffff1614156124b057600080fd5b8073ffffffffffffffffffffffffffffffffffffffff166000809054906101000a900473ffffffffffffffffffffffffffffffffffffffff1673ffffffffffffffffffffffffffffffffffffffff167f8be0079c531659141344cd1fd0a4f28419497f9722a3daafe3b4186f6b6457e060405160405180910390a3806000806101000a81548173ffffffffffffffffffffffffffffffffffffffff021916908373ffffffffffffffffffffffffffffffffffffffff1602179055505056fe54686973206164647265737320616c7265616479206861732066756e6473206c6f636b656443616e6e6f74206c6f636b20616d6f756e747320666f7220746865203078302061646472657373536166654d6174683a206d756c7469706c69636174696f6e206f766572666c6f7743616e206f6e6c792062652063616c6c6564206279207468652047656f44422047656f546f6b656e7320636f6e747261637454686520616d6f756e7420746f206c6f636b206d7573742062652067726561746572207468616e2030a165627a7a723058200a5e31ecbe1e971c02f4750b76bf74467d6a10231053624e8284e1675584d0fc0029",
  "source": "pragma solidity >= 0.5.0 <6.0.0;\n\n// import \"./GeoToken.sol\";\nimport \"../externals/openzeppelin-solidity/contracts/math/SafeMath.sol\";\nimport \"../externals/openzeppelin-solidity/contracts/token/ERC777/IERC777.sol\";\nimport \"./utils/Pausable.sol\";\nimport \"../externals/openzeppelin-solidity/contracts/token/ERC777/IERC777Recipient.sol\";\nimport \"../externals/openzeppelin-solidity/contracts/token/ERC777/IERC777Sender.sol\";\nimport \"../externals/openzeppelin-solidity/contracts/introspection/IERC1820Registry.sol\";\n\n\n/**\n * @dev Contract to hold and release in steps the funds of GEO for the presale investors. ERC777 Implementation\n *\n * This contract will be passed a BENEFICIARY (ADDRESS) and a lock DURATION IN DAYS. The constructor will compute\n * the timestamp at which the funds should be released. Then the beneficiary or the owner can call the unlock function\n * to release an amount of tokens proportional to the time that has passed since the lock, eg: if a lock of 180 days\n * has been passed to the constructor, and 10 (10e18) tokens have been assigned, then the user will be able to\n * withdraw 5 (5e18) tokens approximately. It is important that the amount of tokens being held is divisible by\n * the duration of the lock in seconds, otherwise the amount will be fully locked until the complete time has passed,\n * missing the stepped release (ie, if lock duration is 180 days = 15 552 000 seconds, and less than 15 552 000 tokens\n * are locked, then the division yields 0 tokens per step, and won't be able to unlock the tokens until 15 552 000\n * seconds have passed).\n *\n * The contract takes advantage of the ERC777 specification in a way that it is not possible to lose tokens.\n * Sending tokens to the contract will update the locked amount for the beneficiary to withdraw, but it will not\n * update the timestamp for the full unlock.\n */\ncontract GeoTokenLockUnitary is Pausable, IERC777Recipient, IERC777Sender {\n  using SafeMath for uint256;\n\n  struct Lock {\n    uint256 balance;\n    uint256 withdrawn;\n    uint256 lockTimestamp;\n    uint256 unlockTimestamp;\n  }\n\n  IERC1820Registry private _erc1820 = IERC1820Registry(0x1820a4B7618BdE71Dce8cdc73aAB6C95905faD24); // See EIP1820\n  bytes32 constant private TOKENS_SENDER_INTERFACE_HASH = keccak256(\"ERC777TokensSender\"); // See EIP777\n  bytes32 constant private TOKENS_RECIPIENT_INTERFACE_HASH = keccak256(\"ERC777TokensRecipient\"); // See EIP777\n\n  IERC777 public token; // ERC777 basic token contract being held\n  mapping(address => Lock) public locks;\n\n\n  event LogTokensReceived(\n    address indexed operator,\n    address indexed from,\n    uint256 amount\n  );\n\n  event LogTokensSent(\n    address indexed operator,\n    address indexed from,\n    address indexed to,\n    uint256 amount\n  );\n\n  event LogTokensLocked(\n    address indexed to,\n    uint256 amount,\n    uint256 unlockTimestamp\n  );\n\n  /**\n   * @dev note that the duration must be specified in DAYS. This will be translated to EVM timestamp (Unix timestamp)\n   * in seconds.\n   *\n   * @param _token IERC777 address of the ERC777 contract\n   */\n  constructor(IERC777 _token) public {\n    require(address(_token) != address(0), \"Token address cannot be 0x0\");\n    token = _token;\n    // Register as a token receiver\n    _erc1820.setInterfaceImplementer(address(this), TOKENS_RECIPIENT_INTERFACE_HASH, address(this));\n    // Register as a token sender\n    _erc1820.setInterfaceImplementer(address(this), TOKENS_SENDER_INTERFACE_HASH, address(this));\n  }\n\n  /*\n    @dev: This function is the default callback for the contract.\n\n    We do not want to accept any ether.\n  */\n  function() external {\n    revert();\n  }\n\n  /**\n   * @dev ERC777 Hook. It will be called when this contract sends tokens to any address.\n   * This function will update the withdrawn amount by the beneficiary, keeping the internal balance record so that\n   * no more than the allowed amount for the time passed is withdrawn.\n   * Flow should be: this.unlock() calls => token.send() calls => token.tokensToSend(this) calls => this.tokensToSend()\n   */\n  function tokensToSend(\n      address operator,\n      address from,\n      address to,\n      uint256 amount,\n      bytes calldata userData,\n      bytes calldata /*operatorData*/\n  ) external whenNotPaused {\n    require(msg.sender == address(token), \"Can only be called by the GeoDB GeoTokens contract\");\n    require(from == address(this));\n\n    emit LogTokensSent(operator, bytesToAddress(userData), to, amount);\n  }\n\n  /**\n   * @dev ERC777 Hook. It will be called when this contract receives tokens.\n   * This function will update and increase the owner's funds.\n   * Flow should be: token.send() calls => token.tokensReceived(this) calls => this.tokensReceived()\n   */\n  function tokensReceived(\n      address operator,\n      address from,\n      address /*to*/,\n      uint256 amount,\n      bytes calldata /*userData*/,\n      bytes calldata /*operatorData*/\n  ) external whenNotPaused {\n    require(msg.sender == address(token), \"Can only receive GeoDB GeoTokens\");\n    address owner = owner();\n    locks[owner].balance = locks[owner].balance.add(amount);\n    emit LogTokensReceived(operator, from, amount);\n  }\n\n  function lock(address beneficiary, uint256 amount, uint256 lockTimeInDays) public onlyOwner whenNotPaused returns (bool) {\n\n    require(beneficiary != address(0), \"Cannot lock amounts for the 0x0 address\");\n    require(beneficiary != owner(), \"Cannot self-lock tokens\");\n    require(amount > 0, \"The amount to lock must be greater than 0\");\n    require(lockTimeInDays > 0, \"Lock time must be greater than 0\");\n    require(locks[beneficiary].balance == 0, \"This address already has funds locked\");\n\n    locks[msg.sender].balance = locks[msg.sender].balance.sub(amount);\n    locks[beneficiary].balance = amount;\n    locks[beneficiary].lockTimestamp = now;\n    uint256 unlockTimestamp = now.add(lockTimeInDays.mul(1 days));\n    locks[beneficiary].unlockTimestamp = unlockTimestamp;\n    emit LogTokensLocked(beneficiary, amount, unlockTimestamp);\n    return true;\n  }\n\n  function batchLock(address[] memory beneficiaries, uint256 amount, uint256 lockTimeInDays) public onlyOwner whenNotPaused returns (bool) {\n    require(beneficiaries.length > 0, \"Empty beneficiaries list\");\n    uint8 i = 0;\n\n    for(i; i < beneficiaries.length; i++) {\n      lock(beneficiaries[i], amount, lockTimeInDays);\n    }\n\n    return true;\n  }\n\n  function send(address to, uint256 amount) public returns (bool) {\n    require(amount <= computeAllowance(msg.sender));\n    require(amount > 0);\n    require(to != address(0));\n\n    locks[msg.sender].withdrawn = locks[msg.sender].withdrawn.add(amount);\n    token.send(to, amount, abi.encodePacked(msg.sender));\n    return true;\n  }\n\n  function unlock() public returns (bool) {\n    uint256 allowance = computeAllowance(msg.sender);\n    require(allowance > 0, \"No allowance on this contract\");\n\n    locks[msg.sender].withdrawn = locks[msg.sender].withdrawn.add(allowance);\n    token.send(msg.sender, allowance, abi.encodePacked(msg.sender));\n    return true;\n  }\n\n  function ownerUnlock(address beneficiary) public onlyOwner whenNotPaused returns (bool) {\n    require(beneficiary != address(0), \"Cannot unlock for the 0 address\");\n    uint256 allowance = computeAllowance(beneficiary);\n    require(allowance > 0, \"No allowance on this contract\");\n\n    locks[beneficiary].withdrawn = locks[beneficiary].withdrawn.add(allowance);\n    token.send(beneficiary, allowance, abi.encodePacked(beneficiary));\n    return true;\n  }\n\n  function batchOwnerUnLock(address[] memory beneficiaries) public onlyOwner whenNotPaused returns (bool) {\n    require(beneficiaries.length > 0);\n    uint8 i = 0;\n\n    for(i; i < beneficiaries.length; i++) {\n      ownerUnlock(beneficiaries[i]);\n    }\n\n    return true;\n  }\n\n  /**\n   * @dev computes the total amount of tokens that could be retrieved at this point in time.\n   * @return uint256 the total amount of tokens that the sender is entitled to at this point in time.\n   */\n  function computeAllowance(address from) public view returns (uint256) {\n\n    uint256 lockTimestamp = locks[from].lockTimestamp;\n    uint256 unlockTimestamp = locks[from].unlockTimestamp;\n    uint256 lockedAmount = locks[from].balance;\n\n    uint256 totalAllowance = now >= unlockTimestamp ? lockedAmount : // If lock time has passed, allow to retrieve all funds\n      // else, compute the proportional allowance\n      now.sub(lockTimestamp) // Elapsed seconds since contract creation\n      .mul(\n        lockedAmount.div(unlockTimestamp.sub(lockTimestamp)) // Allowance per block\n      );\n\n    return totalAllowance.sub(locks[from].withdrawn);\n  }\n\n  function steps(address from) public view returns (uint256 elapsed, uint256 duration, uint256 perBlock, uint256 remainder) {\n    uint256 lockTimestamp = locks[from].lockTimestamp;\n    uint256 unlockTimestamp = locks[from].unlockTimestamp;\n    uint256 lockedAmount = locks[from].balance;\n\n    elapsed = now.sub(lockTimestamp);\n    duration = unlockTimestamp.sub(lockTimestamp);\n    perBlock = lockedAmount.div(duration);\n    remainder =lockedAmount % duration;\n\n  }\n\n  /**\n   * @dev returns the balance that was originally locked - the total presale entitlement of the holder.\n   * @return uint256 field balance of mapping\n   */\n  function balanceOf(address addr) public view returns (uint256) {\n    return locks[addr].balance;\n  }\n\n  function bytesToAddress(bytes memory bys) private pure returns (address addr) {\n    require(bys.length == 20);\n    assembly {\n      addr := mload(add(bys,20))\n    }\n  }\n\n// 1.587.478.744\n//\n// 23.328.000 // Tiempo transcurrido\n// 46.656.000 // Total tiempo\n//\n// 21.433.470.507,544582367 // Desbloqueo por tiempo\n\n}\n",
  "sourcePath": "/home/mad/geodb/fabric/ethereum/contracts/GeoTokenLockUnitary.sol",
  "compiler": {
    "name": "solc",
    "version": "0.5.7+commit.6da8b019.Emscripten.clang"
  },
  "schemaVersion": "3.0.10",
  "updatedAt": "2019-07-27T22:51:56.570Z",
  "devdoc": {
    "details": "Contract to hold and release in steps the funds of GEO for the presale investors. ERC777 Implementation * This contract will be passed a BENEFICIARY (ADDRESS) and a lock DURATION IN DAYS. The constructor will compute the timestamp at which the funds should be released. Then the beneficiary or the owner can call the unlock function to release an amount of tokens proportional to the time that has passed since the lock, eg: if a lock of 180 days has been passed to the constructor, and 10 (10e18) tokens have been assigned, then the user will be able to withdraw 5 (5e18) tokens approximately. It is important that the amount of tokens being held is divisible by the duration of the lock in seconds, otherwise the amount will be fully locked until the complete time has passed, missing the stepped release (ie, if lock duration is 180 days = 15 552 000 seconds, and less than 15 552 000 tokens are locked, then the division yields 0 tokens per step, and won't be able to unlock the tokens until 15 552 000 seconds have passed). * The contract takes advantage of the ERC777 specification in a way that it is not possible to lose tokens. Sending tokens to the contract will update the locked amount for the beneficiary to withdraw, but it will not update the timestamp for the full unlock.",
    "methods": {
      "balanceOf(address)": {
        "details": "returns the balance that was originally locked - the total presale entitlement of the holder.",
        "return": "uint256 field balance of mapping"
      },
      "computeAllowance(address)": {
        "details": "computes the total amount of tokens that could be retrieved at this point in time.",
        "return": "uint256 the total amount of tokens that the sender is entitled to at this point in time."
      },
      "constructor": {
        "details": "note that the duration must be specified in DAYS. This will be translated to EVM timestamp (Unix timestamp) in seconds.",
        "params": {
          "_token": "IERC777 address of the ERC777 contract"
        }
      },
      "isOwner()": {
        "return": "true if `msg.sender` is the owner of the contract."
      },
      "owner()": {
        "return": "the address of the owner."
      },
      "pause()": {
        "details": "Called by the owner, triggers stopped state."
      },
      "paused()": {
        "details": "Returns true if the contract is paused, and false otherwise."
      },
      "renounceOwnership()": {
        "details": "Allows the current owner to relinquish control of the contract. It will not be possible to call the functions with the `onlyOwner` modifier anymore."
      },
      "tokensReceived(address,address,address,uint256,bytes,bytes)": {
        "details": "ERC777 Hook. It will be called when this contract receives tokens. This function will update and increase the owner's funds. Flow should be: token.send() calls => token.tokensReceived(this) calls => this.tokensReceived()"
      },
      "tokensToSend(address,address,address,uint256,bytes,bytes)": {
        "details": "ERC777 Hook. It will be called when this contract sends tokens to any address. This function will update the withdrawn amount by the beneficiary, keeping the internal balance record so that no more than the allowed amount for the time passed is withdrawn. Flow should be: this.unlock() calls => token.send() calls => token.tokensToSend(this) calls => this.tokensToSend()"
      },
      "transferOwnership(address)": {
        "details": "Allows the current owner to transfer control of the contract to a newOwner.",
        "params": {
          "newOwner": "The address to transfer ownership to."
        }
      },
      "unpause()": {
        "details": "Called by the owner, returns to normal state."
      }
    }
  },
  "userdoc": {
    "methods": {
      "renounceOwnership()": {
        "notice": "Renouncing ownership will leave the contract without an owner, thereby removing any functionality that is only available to the owner."
      }
    }
  }
}