{
  "contractName": "GeoTokenLock777",
  "abi": [
    {
      "constant": false,
      "inputs": [],
      "name": "unpause",
      "outputs": [],
      "payable": false,
      "stateMutability": "nonpayable",
      "type": "function"
    },
    {
      "constant": true,
      "inputs": [],
      "name": "paused",
      "outputs": [
        {
          "name": "",
          "type": "bool"
        }
      ],
      "payable": false,
      "stateMutability": "view",
      "type": "function"
    },
    {
      "constant": false,
      "inputs": [],
      "name": "renounceOwnership",
      "outputs": [],
      "payable": false,
      "stateMutability": "nonpayable",
      "type": "function"
    },
    {
      "constant": false,
      "inputs": [],
      "name": "pause",
      "outputs": [],
      "payable": false,
      "stateMutability": "nonpayable",
      "type": "function"
    },
    {
      "constant": true,
      "inputs": [],
      "name": "owner",
      "outputs": [
        {
          "name": "",
          "type": "address"
        }
      ],
      "payable": false,
      "stateMutability": "view",
      "type": "function"
    },
    {
      "constant": true,
      "inputs": [],
      "name": "isOwner",
      "outputs": [
        {
          "name": "",
          "type": "bool"
        }
      ],
      "payable": false,
      "stateMutability": "view",
      "type": "function"
    },
    {
      "constant": false,
      "inputs": [
        {
          "name": "newOwner",
          "type": "address"
        }
      ],
      "name": "transferOwnership",
      "outputs": [],
      "payable": false,
      "stateMutability": "nonpayable",
      "type": "function"
    },
    {
      "inputs": [
        {
          "name": "token",
          "type": "address"
        },
        {
          "name": "beneficiary",
          "type": "address"
        },
        {
          "name": "lockTimeInDays",
          "type": "uint256"
        }
      ],
      "payable": false,
      "stateMutability": "nonpayable",
      "type": "constructor"
    },
    {
      "anonymous": false,
      "inputs": [
        {
          "indexed": true,
          "name": "operator",
          "type": "address"
        },
        {
          "indexed": true,
          "name": "from",
          "type": "address"
        },
        {
          "indexed": false,
          "name": "amount",
          "type": "uint256"
        }
      ],
      "name": "LogTokensReceived",
      "type": "event"
    },
    {
      "anonymous": false,
      "inputs": [
        {
          "indexed": true,
          "name": "operator",
          "type": "address"
        },
        {
          "indexed": true,
          "name": "from",
          "type": "address"
        },
        {
          "indexed": false,
          "name": "amount",
          "type": "uint256"
        }
      ],
      "name": "LogTokensSent",
      "type": "event"
    },
    {
      "anonymous": false,
      "inputs": [
        {
          "indexed": false,
          "name": "account",
          "type": "address"
        }
      ],
      "name": "Paused",
      "type": "event"
    },
    {
      "anonymous": false,
      "inputs": [
        {
          "indexed": false,
          "name": "account",
          "type": "address"
        }
      ],
      "name": "Unpaused",
      "type": "event"
    },
    {
      "anonymous": false,
      "inputs": [
        {
          "indexed": true,
          "name": "previousOwner",
          "type": "address"
        },
        {
          "indexed": true,
          "name": "newOwner",
          "type": "address"
        }
      ],
      "name": "OwnershipTransferred",
      "type": "event"
    },
    {
      "constant": false,
      "inputs": [
        {
          "name": "operator",
          "type": "address"
        },
        {
          "name": "from",
          "type": "address"
        },
        {
          "name": "to",
          "type": "address"
        },
        {
          "name": "amount",
          "type": "uint256"
        },
        {
          "name": "userData",
          "type": "bytes"
        },
        {
          "name": "operatorData",
          "type": "bytes"
        }
      ],
      "name": "tokensToSend",
      "outputs": [],
      "payable": false,
      "stateMutability": "nonpayable",
      "type": "function"
    },
    {
      "constant": false,
      "inputs": [
        {
          "name": "operator",
          "type": "address"
        },
        {
          "name": "from",
          "type": "address"
        },
        {
          "name": "to",
          "type": "address"
        },
        {
          "name": "amount",
          "type": "uint256"
        },
        {
          "name": "userData",
          "type": "bytes"
        },
        {
          "name": "operatorData",
          "type": "bytes"
        }
      ],
      "name": "tokensReceived",
      "outputs": [],
      "payable": false,
      "stateMutability": "nonpayable",
      "type": "function"
    },
    {
      "constant": false,
      "inputs": [
        {
          "name": "withdrawAmount",
          "type": "uint256"
        }
      ],
      "name": "unlock",
      "outputs": [
        {
          "name": "",
          "type": "bool"
        }
      ],
      "payable": false,
      "stateMutability": "nonpayable",
      "type": "function"
    },
    {
      "constant": true,
      "inputs": [],
      "name": "token",
      "outputs": [
        {
          "name": "",
          "type": "address"
        }
      ],
      "payable": false,
      "stateMutability": "view",
      "type": "function"
    },
    {
      "constant": true,
      "inputs": [],
      "name": "beneficiary",
      "outputs": [
        {
          "name": "",
          "type": "address"
        }
      ],
      "payable": false,
      "stateMutability": "view",
      "type": "function"
    },
    {
      "constant": true,
      "inputs": [],
      "name": "lockTimestamp",
      "outputs": [
        {
          "name": "",
          "type": "uint256"
        }
      ],
      "payable": false,
      "stateMutability": "view",
      "type": "function"
    },
    {
      "constant": true,
      "inputs": [],
      "name": "unlockTimestamp",
      "outputs": [
        {
          "name": "",
          "type": "uint256"
        }
      ],
      "payable": false,
      "stateMutability": "view",
      "type": "function"
    },
    {
      "constant": true,
      "inputs": [],
      "name": "lockedAmount",
      "outputs": [
        {
          "name": "",
          "type": "uint256"
        }
      ],
      "payable": false,
      "stateMutability": "view",
      "type": "function"
    },
    {
      "constant": true,
      "inputs": [],
      "name": "withdrawnAmount",
      "outputs": [
        {
          "name": "",
          "type": "uint256"
        }
      ],
      "payable": false,
      "stateMutability": "view",
      "type": "function"
    },
    {
      "constant": true,
      "inputs": [],
      "name": "computeAllowance",
      "outputs": [
        {
          "name": "",
          "type": "uint256"
        }
      ],
      "payable": false,
      "stateMutability": "view",
      "type": "function"
    }
  ],
  "bytecode": "0x6080604052731820a4b7618bde71dce8cdc73aab6c95905fad24600160006101000a81548173ffffffffffffffffffffffffffffffffffffffff021916908373ffffffffffffffffffffffffffffffffffffffff1602179055503480156200006657600080fd5b5060405160608062001871833981018060405260608110156200008857600080fd5b81019080805190602001909291908051906020019092919080519060200190929190505050336000806101000a81548173ffffffffffffffffffffffffffffffffffffffff021916908373ffffffffffffffffffffffffffffffffffffffff1602179055506000809054906101000a900473ffffffffffffffffffffffffffffffffffffffff1673ffffffffffffffffffffffffffffffffffffffff16600073ffffffffffffffffffffffffffffffffffffffff167f8be0079c531659141344cd1fd0a4f28419497f9722a3daafe3b4186f6b6457e060405160405180910390a360008060146101000a81548160ff02191690831515021790555082600260006101000a81548173ffffffffffffffffffffffffffffffffffffffff021916908373ffffffffffffffffffffffffffffffffffffffff16021790555081600360006101000a81548173ffffffffffffffffffffffffffffffffffffffff021916908373ffffffffffffffffffffffffffffffffffffffff16021790555042600481905550620002426200022d6201518083620004a960201b62000ffd1790919060201c565b426200053460201b62000e5d1790919060201c565b600581905550600160009054906101000a900473ffffffffffffffffffffffffffffffffffffffff1673ffffffffffffffffffffffffffffffffffffffff166329965a1d3060405180807f455243373737546f6b656e73526563697069656e74000000000000000000000081525060150190506040518091039020306040518463ffffffff1660e01b8152600401808473ffffffffffffffffffffffffffffffffffffffff1673ffffffffffffffffffffffffffffffffffffffff1681526020018381526020018273ffffffffffffffffffffffffffffffffffffffff1673ffffffffffffffffffffffffffffffffffffffff1681526020019350505050600060405180830381600087803b1580156200035b57600080fd5b505af115801562000370573d6000803e3d6000fd5b50505050600160009054906101000a900473ffffffffffffffffffffffffffffffffffffffff1673ffffffffffffffffffffffffffffffffffffffff166329965a1d3060405180807f455243373737546f6b656e7353656e646572000000000000000000000000000081525060120190506040518091039020306040518463ffffffff1660e01b8152600401808473ffffffffffffffffffffffffffffffffffffffff1673ffffffffffffffffffffffffffffffffffffffff1681526020018381526020018273ffffffffffffffffffffffffffffffffffffffff1673ffffffffffffffffffffffffffffffffffffffff1681526020019350505050600060405180830381600087803b1580156200048757600080fd5b505af11580156200049c573d6000803e3d6000fd5b50505050505050620005bd565b600080831415620004be57600090506200052e565b6000828402905082848281620004d057fe5b041462000529576040517f08c379a0000000000000000000000000000000000000000000000000000000008152600401808060200182810382526021815260200180620018506021913960400191505060405180910390fd5b809150505b92915050565b600080828401905083811015620005b3576040517f08c379a000000000000000000000000000000000000000000000000000000000815260040180806020018281038252601b8152602001807f536166654d6174683a206164646974696f6e206f766572666c6f77000000000081525060200191505060405180910390fd5b8091505092915050565b61128380620005cd6000396000f3fe608060405234801561001057600080fd5b506004361061010a5760003560e01c8063830de4b1116100a25780638f32d59b116100715780638f32d59b146104f3578063aa082a9d14610515578063b544bf8314610533578063f2fde38b14610551578063fc0c546a146105955761010a565b8063830de4b1146104635780638456cb59146104815780638c7a3d031461048b5780638da5cb5b146104a95761010a565b80636198e339116100de5780636198e339146102bd5780636ab28bc814610303578063715018a61461032157806375ab97821461032b5761010a565b806223de291461010f57806338af3eed146102475780633f4ba83a146102915780635c975abb1461029b575b600080fd5b610245600480360360c081101561012557600080fd5b81019080803573ffffffffffffffffffffffffffffffffffffffff169060200190929190803573ffffffffffffffffffffffffffffffffffffffff169060200190929190803573ffffffffffffffffffffffffffffffffffffffff16906020019092919080359060200190929190803590602001906401000000008111156101ac57600080fd5b8201836020820111156101be57600080fd5b803590602001918460018302840111640100000000831117156101e057600080fd5b90919293919293908035906020019064010000000081111561020157600080fd5b82018360208201111561021357600080fd5b8035906020019184600183028401116401000000008311171561023557600080fd5b90919293919293905050506105df565b005b61024f610729565b604051808273ffffffffffffffffffffffffffffffffffffffff1673ffffffffffffffffffffffffffffffffffffffff16815260200191505060405180910390f35b610299610753565b005b6102a36107fc565b604051808215151515815260200191505060405180910390f35b6102e9600480360360208110156102d357600080fd5b8101908080359060200190929190505050610812565b604051808215151515815260200191505060405180910390f35b61030b610a11565b6040518082815260200191505060405180910390f35b610329610a1b565b005b610461600480360360c081101561034157600080fd5b81019080803573ffffffffffffffffffffffffffffffffffffffff169060200190929190803573ffffffffffffffffffffffffffffffffffffffff169060200190929190803573ffffffffffffffffffffffffffffffffffffffff16906020019092919080359060200190929190803590602001906401000000008111156103c857600080fd5b8201836020820111156103da57600080fd5b803590602001918460018302840111640100000000831117156103fc57600080fd5b90919293919293908035906020019064010000000081111561041d57600080fd5b82018360208201111561042f57600080fd5b8035906020019184600183028401116401000000008311171561045157600080fd5b9091929391929390505050610aeb565b005b61046b610c55565b6040518082815260200191505060405180910390f35b610489610c5f565b005b610493610d0a565b6040518082815260200191505060405180910390f35b6104b1610d82565b604051808273ffffffffffffffffffffffffffffffffffffffff1673ffffffffffffffffffffffffffffffffffffffff16815260200191505060405180910390f35b6104fb610dab565b604051808215151515815260200191505060405180910390f35b61051d610e02565b6040518082815260200191505060405180910390f35b61053b610e0c565b6040518082815260200191505060405180910390f35b6105936004803603602081101561056757600080fd5b81019080803573ffffffffffffffffffffffffffffffffffffffff169060200190929190505050610e16565b005b61059d610e33565b604051808273ffffffffffffffffffffffffffffffffffffffff1673ffffffffffffffffffffffffffffffffffffffff16815260200191505060405180910390f35b600060149054906101000a900460ff16156105f957600080fd5b600260009054906101000a900473ffffffffffffffffffffffffffffffffffffffff1673ffffffffffffffffffffffffffffffffffffffff163373ffffffffffffffffffffffffffffffffffffffff161461069f576040517f08c379a000000000000000000000000000000000000000000000000000000000815260040180806020018281038252603481526020018061117c6034913960400191505060405180910390fd5b6106b485600654610e5d90919063ffffffff16565b6006819055508673ffffffffffffffffffffffffffffffffffffffff168873ffffffffffffffffffffffffffffffffffffffff167fd4535bc905fb57beca32cb4d69e1ef43fc473b41a4818f3baf86e01b716bc30f876040518082815260200191505060405180910390a35050505050505050565b6000600360009054906101000a900473ffffffffffffffffffffffffffffffffffffffff16905090565b61075b610dab565b61076457600080fd5b600060149054906101000a900460ff1661077d57600080fd5b60008060146101000a81548160ff0219169083151502179055507f5db9ee0a495bf2e6ff9c91a7834c1ba4fdd244a5e8aa4e537bd38aeae4b073aa33604051808273ffffffffffffffffffffffffffffffffffffffff1673ffffffffffffffffffffffffffffffffffffffff16815260200191505060405180910390a1565b60008060149054906101000a900460ff16905090565b6000600360009054906101000a900473ffffffffffffffffffffffffffffffffffffffff1673ffffffffffffffffffffffffffffffffffffffff163373ffffffffffffffffffffffffffffffffffffffff1614806108a25750610873610d82565b73ffffffffffffffffffffffffffffffffffffffff163373ffffffffffffffffffffffffffffffffffffffff16145b6108f7576040517f08c379a00000000000000000000000000000000000000000000000000000000081526004018080602001828103825260328152602001806112266032913960400191505060405180910390fd5b600060149054906101000a900460ff161561091157600080fd5b600260009054906101000a900473ffffffffffffffffffffffffffffffffffffffff1673ffffffffffffffffffffffffffffffffffffffff16639bd9bbc6600360009054906101000a900473ffffffffffffffffffffffffffffffffffffffff16846040518363ffffffff1660e01b8152600401808373ffffffffffffffffffffffffffffffffffffffff1673ffffffffffffffffffffffffffffffffffffffff168152602001828152602001806020018281038252600081526020016020019350505050600060405180830381600087803b1580156109f057600080fd5b505af1158015610a04573d6000803e3d6000fd5b5050505060019050919050565b6000600654905090565b610a23610dab565b610a2c57600080fd5b600073ffffffffffffffffffffffffffffffffffffffff166000809054906101000a900473ffffffffffffffffffffffffffffffffffffffff1673ffffffffffffffffffffffffffffffffffffffff167f8be0079c531659141344cd1fd0a4f28419497f9722a3daafe3b4186f6b6457e060405160405180910390a360008060006101000a81548173ffffffffffffffffffffffffffffffffffffffff021916908373ffffffffffffffffffffffffffffffffffffffff160217905550565b600060149054906101000a900460ff1615610b0557600080fd5b600360009054906101000a900473ffffffffffffffffffffffffffffffffffffffff1673ffffffffffffffffffffffffffffffffffffffff168673ffffffffffffffffffffffffffffffffffffffff1614610b5f57600080fd5b6000610b69610d0a565b90506000610b8287600754610e5d90919063ffffffff16565b905081811115610bdd576040517f08c379a00000000000000000000000000000000000000000000000000000000081526004018080602001828103825260558152602001806111b06055913960600191505060405180910390fd5b806007819055508873ffffffffffffffffffffffffffffffffffffffff168a73ffffffffffffffffffffffffffffffffffffffff167f8654ea01df0da3823c96d324482991de361cf0b15fd6718650ee352f896ac4cf896040518082815260200191505060405180910390a350505050505050505050565b6000600754905090565b610c67610dab565b610c7057600080fd5b600060149054906101000a900460ff1615610c8a57600080fd5b6001600060146101000a81548160ff0219169083151502179055507f62e78cea01bee320cd4e420270b5ea74000d11b0c9f74754ebdbfc544b05a25833604051808273ffffffffffffffffffffffffffffffffffffffff1673ffffffffffffffffffffffffffffffffffffffff16815260200191505060405180910390a1565b6000806004549050600060055490506000600654905081421015610d7857610d73610d52610d418585610ee590919063ffffffff16565b600654610f6e90919063ffffffff16565b610d658542610ee590919063ffffffff16565b610ffd90919063ffffffff16565b610d7a565b805b935050505090565b60008060009054906101000a900473ffffffffffffffffffffffffffffffffffffffff16905090565b60008060009054906101000a900473ffffffffffffffffffffffffffffffffffffffff1673ffffffffffffffffffffffffffffffffffffffff163373ffffffffffffffffffffffffffffffffffffffff1614905090565b6000600554905090565b6000600454905090565b610e1e610dab565b610e2757600080fd5b610e3081611083565b50565b6000600260009054906101000a900473ffffffffffffffffffffffffffffffffffffffff16905090565b600080828401905083811015610edb576040517f08c379a000000000000000000000000000000000000000000000000000000000815260040180806020018281038252601b8152602001807f536166654d6174683a206164646974696f6e206f766572666c6f77000000000081525060200191505060405180910390fd5b8091505092915050565b600082821115610f5d576040517f08c379a000000000000000000000000000000000000000000000000000000000815260040180806020018281038252601e8152602001807f536166654d6174683a207375627472616374696f6e206f766572666c6f77000081525060200191505060405180910390fd5b600082840390508091505092915050565b6000808211610fe5576040517f08c379a000000000000000000000000000000000000000000000000000000000815260040180806020018281038252601a8152602001807f536166654d6174683a206469766973696f6e206279207a65726f00000000000081525060200191505060405180910390fd5b6000828481610ff057fe5b0490508091505092915050565b600080831415611010576000905061107d565b600082840290508284828161102157fe5b0414611078576040517f08c379a00000000000000000000000000000000000000000000000000000000081526004018080602001828103825260218152602001806112056021913960400191505060405180910390fd5b809150505b92915050565b600073ffffffffffffffffffffffffffffffffffffffff168173ffffffffffffffffffffffffffffffffffffffff1614156110bd57600080fd5b8073ffffffffffffffffffffffffffffffffffffffff166000809054906101000a900473ffffffffffffffffffffffffffffffffffffffff1673ffffffffffffffffffffffffffffffffffffffff167f8be0079c531659141344cd1fd0a4f28419497f9722a3daafe3b4186f6b6457e060405160405180910390a3806000806101000a81548173ffffffffffffffffffffffffffffffffffffffff021916908373ffffffffffffffffffffffffffffffffffffffff1602179055505056fe43616e206f6e6c79207265636569766520746f6b656e732066726f6d207468652047454f2045524337373720636f6e747261637447656f546f6b656e4c6f636b3a20596f752061726520747279696e6720746f20756e6c6f636b206d6f72652066756e6473207468616e207768617420796f752061726520616c6c6f776564207269676874206e6f77536166654d6174683a206d756c7469706c69636174696f6e206f766572666c6f7747656f546f6b656e4c6f636b3a20596f75206d75737420626520746865206f776e6572206f722062656e6566696369617279a165627a7a72305820c4ee2f0f574a796ac22e3cc1c6189f94618d2ede3b3994f032a1712a527cc41d0029536166654d6174683a206d756c7469706c69636174696f6e206f766572666c6f77",
  "source": "pragma solidity >= 0.5.0 <6.0.0;\n\n// import \"./GeoToken.sol\";\nimport \"../externals/openzeppelin-solidity/contracts/math/SafeMath.sol\";\nimport \"../externals/openzeppelin-solidity/contracts/token/ERC777/IERC777.sol\";\nimport \"./utils/Pausable.sol\";\nimport \"../externals/openzeppelin-solidity/contracts/token/ERC777/IERC777Recipient.sol\";\nimport \"../externals/openzeppelin-solidity/contracts/token/ERC777/IERC777Sender.sol\";\nimport \"../externals/openzeppelin-solidity/contracts/introspection/IERC1820Registry.sol\";\n\n/**\n * @dev Contract to hold and release in steps the funds of GEO for the presale investors. ERC777 Implementation\n *\n * This contract will be passed a BENEFICIARY (ADDRESS) and a lock DURATION IN DAYS. The constructor will compute\n * the timestamp at which the funds should be released. Then the beneficiary or the owner can call the unlock function\n * to release an amount of tokens proportional to the time that has passed since the lock, eg: if a lock of 180 days\n * has been passed to the constructor, and 10 (10e18) tokens have been assigned, then the user will be able to\n * withdraw 5 (5e18) tokens approximately. It is important that the amount of tokens being held is divisible by\n * the duration of the lock in seconds, otherwise the amount will be fully locked until the complete time has passed,\n * missing the stepped release (ie, if lock duration is 180 days = 15 552 000 seconds, and less than 15 552 000 tokens\n * are locked, then the division yields 0 tokens per step, and won't be able to unlock the tokens until 15 552 000\n * seconds have passed).\n *\n * The contract takes advantage of the ERC777 specification in a way that it is not possible to lose tokens.\n * Sending tokens to the contract will update the locked amount for the beneficiary to withdraw, but it will not\n * update the timestamp for the full unlock.\n */\ncontract GeoTokenLock777 is Pausable, IERC777Recipient, IERC777Sender {\n  using SafeMath for uint256;\n\n  IERC1820Registry private _erc1820 = IERC1820Registry(0x1820a4B7618BdE71Dce8cdc73aAB6C95905faD24); // See EIP1820\n  bytes32 constant private TOKENS_SENDER_INTERFACE_HASH = keccak256(\"ERC777TokensSender\"); // See EIP777\n  bytes32 constant private TOKENS_RECIPIENT_INTERFACE_HASH = keccak256(\"ERC777TokensRecipient\"); // See EIP777\n\n  IERC777 private _token; // ERC777 basic token contract being held\n\n  address private _beneficiary; // beneficiary of tokens after they are released\n\n  uint256 private _lockTimestamp; // timestamp of the moment the contract is instantiated\n  uint256 private _unlockTimestamp; // timestamp of the moment when the funds are fully available\n\n  uint256 private _lockedAmount; // amount of tokens that are going to be locked\n  uint256 private _withdrawnAmount; // amount of tokens that have been withdrawn\n\n  event LogTokensReceived(\n    address indexed operator,\n    address indexed from,\n    uint256 amount\n  );\n\n  event LogTokensSent(\n    address indexed operator,\n    address indexed from,\n    uint256 amount\n  );\n\n  /**\n   * @dev note that the duration must be specified in DAYS. This will be translated to EVM timestamp (Unix timestamp)\n   * in seconds.\n   *\n   * @param token IERC777 address of the ERC777 contract\n   * @param beneficiary address address of the beneficiary of the contract\n   * @param lockTimeInDays uint256 specifies the period of time from now that the funds will be locked for the user\n   */\n  constructor(IERC777 token, address beneficiary, uint256 lockTimeInDays) public {\n    _token = token;\n    _beneficiary = beneficiary;\n    _lockTimestamp = now;\n    _unlockTimestamp = now.add(lockTimeInDays.mul(1 days));\n\n    // Register as a token receiver\n    _erc1820.setInterfaceImplementer(address(this), TOKENS_RECIPIENT_INTERFACE_HASH, address(this));\n    // Register as a token sender\n    _erc1820.setInterfaceImplementer(address(this), TOKENS_SENDER_INTERFACE_HASH, address(this));\n  }\n\n\n  modifier onlyOwnerOrBeneficiary {\n    require(msg.sender == _beneficiary || msg.sender == owner(), \"GeoTokenLock: You must be the owner or beneficiary\");\n    _;\n  }\n\n\n  /**\n   * @dev ERC777 Hook. It will be called when this contract sends tokens to any address.\n   * This function will update the withdrawn amount by the beneficiary, keeping the internal balance record so that\n   * no more than the allowed amount for the time passed is withdrawn.\n   * Flow should be: this.unlock() calls => token.send() calls => token.tokensToSend(this) calls => this.tokensToSend()\n   */\n  function tokensToSend(\n      address operator,\n      address from,\n      address to,\n      uint256 amount,\n      bytes calldata userData,\n      bytes calldata operatorData\n  ) external whenNotPaused {\n\n    require(to == _beneficiary);\n    uint256 allowance = computeAllowance();\n    uint256 usedAllowance = _withdrawnAmount.add(amount);\n    require(\n      usedAllowance <= allowance,\n      \"GeoTokenLock: You are trying to unlock more funds than what you are allowed right now\"\n    );\n    _withdrawnAmount = usedAllowance;\n\n    emit LogTokensSent(operator, from, amount);\n  }\n\n  /**\n   * @dev ERC777 Hook. It will be called when this contract receives tokens.\n   * This function will update and increase the locked amount for the beneficiary, but it will not\n   * update the lock's timestamp for the funds to be released.\n   * Flow should be: token.send() calls => token.tokensReceived(this) calls => this.tokensReceived()\n   */\n  function tokensReceived(\n      address operator,\n      address from,\n      address to,\n      uint256 amount,\n      bytes calldata userData,\n      bytes calldata operatorData\n  ) external whenNotPaused {\n\n    require(msg.sender == address(_token), \"Can only receive tokens from the GEO ERC777 contract\");\n    _lockedAmount = _lockedAmount.add(amount);\n    emit LogTokensReceived(operator, from, amount);\n\n  }\n\n  /**\n   * @dev Unlock function. Will unlock the requested amount (if allowed).\n   *\n   * @param withdrawAmount the amount to unlock\n   */\n  function unlock(uint256 withdrawAmount) public onlyOwnerOrBeneficiary whenNotPaused returns (bool) {\n      _token.send(_beneficiary, withdrawAmount, \"\");\n      return true;\n  }\n\n  /**\n   * @return the token being held.\n   */\n  function token() public view returns (IERC777) {\n      return _token;\n  }\n\n  /**\n   * @return the beneficiary of the tokens.\n   */\n  function beneficiary() public view returns (address) {\n      return _beneficiary;\n  }\n\n  /**\n   * @return the moment this contract was instantiated\n   */\n  function lockTimestamp() public view returns (uint256) {\n    return _lockTimestamp;\n  }\n\n  /**\n   * @return the moment this contract will allow full access to the funds\n   */\n  function unlockTimestamp() public view returns (uint256) {\n    return _unlockTimestamp;\n  }\n\n  /**\n   * @return how many tokens have been locked in the contract. Not current amount, but sum of all historic locked funds.\n   */\n  function lockedAmount() public view returns (uint256) {\n    return _lockedAmount;\n  }\n\n  /**\n   * @return how many tokens have been locked in the contract. Not current amount, but sum of all historic locked funds.\n   */\n  function withdrawnAmount() public view returns (uint256) {\n    return _withdrawnAmount;\n  }\n\n  /**\n   * @return how many tokens have been locked in the contract. Not current amount, but sum of all historic locked funds.\n   */\n  function computeAllowance() public view returns (uint256) {\n\n    uint256 mLockTimestamp = _lockTimestamp;\n    uint256 mUnlockTimestamp = _unlockTimestamp;\n    uint256 mLockedAmount = _lockedAmount;\n\n    return now >= mUnlockTimestamp ? mLockedAmount : // If lock time has passed, allow to retrieve all funds\n      // else, compute the allowance as allowancePerBlock * numberOfBlocks\n      now.sub(mLockTimestamp) // Elapsed seconds since contract creation\n      .mul(\n        _lockedAmount.div(mUnlockTimestamp.sub(mLockTimestamp)) // Allowance per block\n      );\n  }\n}\n",
  "sourcePath": "/home/mad/geodb/fabric/ethereum/contracts/GeoTokenLock777.sol",
  "compiler": {
    "name": "solc",
    "version": "0.5.7+commit.6da8b019.Emscripten.clang"
  },
  "schemaVersion": "3.0.10",
  "updatedAt": "2019-07-19T09:22:56.337Z",
  "devdoc": {
    "details": "Contract to hold and release in steps the funds of GEO for the presale investors. ERC777 Implementation * This contract will be passed a BENEFICIARY (ADDRESS) and a lock DURATION IN DAYS. The constructor will compute the timestamp at which the funds should be released. Then the beneficiary or the owner can call the unlock function to release an amount of tokens proportional to the time that has passed since the lock, eg: if a lock of 180 days has been passed to the constructor, and 10 (10e18) tokens have been assigned, then the user will be able to withdraw 5 (5e18) tokens approximately. It is important that the amount of tokens being held is divisible by the duration of the lock in seconds, otherwise the amount will be fully locked until the complete time has passed, missing the stepped release (ie, if lock duration is 180 days = 15 552 000 seconds, and less than 15 552 000 tokens are locked, then the division yields 0 tokens per step, and won't be able to unlock the tokens until 15 552 000 seconds have passed). * The contract takes advantage of the ERC777 specification in a way that it is not possible to lose tokens. Sending tokens to the contract will update the locked amount for the beneficiary to withdraw, but it will not update the timestamp for the full unlock.",
    "methods": {
      "beneficiary()": {
        "return": "the beneficiary of the tokens."
      },
      "computeAllowance()": {
        "return": "how many tokens have been locked in the contract. Not current amount, but sum of all historic locked funds."
      },
      "constructor": {
        "details": "note that the duration must be specified in DAYS. This will be translated to EVM timestamp (Unix timestamp) in seconds.",
        "params": {
          "beneficiary": "address address of the beneficiary of the contract",
          "lockTimeInDays": "uint256 specifies the period of time from now that the funds will be locked for the user",
          "token": "IERC777 address of the ERC777 contract"
        }
      },
      "isOwner()": {
        "return": "true if `msg.sender` is the owner of the contract."
      },
      "lockTimestamp()": {
        "return": "the moment this contract was instantiated"
      },
      "lockedAmount()": {
        "return": "how many tokens have been locked in the contract. Not current amount, but sum of all historic locked funds."
      },
      "owner()": {
        "return": "the address of the owner."
      },
      "pause()": {
        "details": "Called by the owner, triggers stopped state."
      },
      "paused()": {
        "details": "Returns true if the contract is paused, and false otherwise."
      },
      "renounceOwnership()": {
        "details": "Allows the current owner to relinquish control of the contract. It will not be possible to call the functions with the `onlyOwner` modifier anymore."
      },
      "token()": {
        "return": "the token being held."
      },
      "tokensReceived(address,address,address,uint256,bytes,bytes)": {
        "details": "ERC777 Hook. It will be called when this contract receives tokens. This function will update and increase the locked amount for the beneficiary, but it will not update the lock's timestamp for the funds to be released. Flow should be: token.send() calls => token.tokensReceived(this) calls => this.tokensReceived()"
      },
      "tokensToSend(address,address,address,uint256,bytes,bytes)": {
        "details": "ERC777 Hook. It will be called when this contract sends tokens to any address. This function will update the withdrawn amount by the beneficiary, keeping the internal balance record so that no more than the allowed amount for the time passed is withdrawn. Flow should be: this.unlock() calls => token.send() calls => token.tokensToSend(this) calls => this.tokensToSend()"
      },
      "transferOwnership(address)": {
        "details": "Allows the current owner to transfer control of the contract to a newOwner.",
        "params": {
          "newOwner": "The address to transfer ownership to."
        }
      },
      "unlock(uint256)": {
        "details": "Unlock function. Will unlock the requested amount (if allowed).",
        "params": {
          "withdrawAmount": "the amount to unlock"
        }
      },
      "unlockTimestamp()": {
        "return": "the moment this contract will allow full access to the funds"
      },
      "unpause()": {
        "details": "Called by the owner, returns to normal state."
      },
      "withdrawnAmount()": {
        "return": "how many tokens have been locked in the contract. Not current amount, but sum of all historic locked funds."
      }
    }
  },
  "userdoc": {
    "methods": {
      "renounceOwnership()": {
        "notice": "Renouncing ownership will leave the contract without an owner, thereby removing any functionality that is only available to the owner."
      }
    }
  }
}